{
  "contractName": "Ballot",
  "abi": [
    {
      "inputs": [
        {
          "internalType": "address",
          "name": "",
          "type": "address"
        }
      ],
      "name": "wallets",
      "outputs": [
        {
          "internalType": "address",
          "name": "inst",
          "type": "address"
        },
        {
          "internalType": "address",
          "name": "stud",
          "type": "address"
        },
        {
          "components": [
            {
              "internalType": "string",
              "name": "aadhar",
              "type": "string"
            }
          ],
          "internalType": "struct Ballot.Documents",
          "name": "documents",
          "type": "tuple"
        }
      ],
      "stateMutability": "view",
      "type": "function"
    },
    {
      "inputs": [
        {
          "internalType": "address",
          "name": "instituteaddress",
          "type": "address"
        }
      ],
      "name": "createNewMultiSigbyUser",
      "outputs": [],
      "stateMutability": "nonpayable",
      "type": "function"
    },
    {
      "inputs": [
        {
          "internalType": "string",
          "name": "",
          "type": "string"
        }
      ],
      "name": "uploadAadhar",
      "outputs": [
        {
          "internalType": "bool",
          "name": "",
          "type": "bool"
        }
      ],
      "stateMutability": "pure",
      "type": "function"
    }
  ],
  "bytecode": "0x608060405234801561001057600080fd5b5061069b806100206000396000f3fe608060405234801561001057600080fd5b50600436106100415760003560e01c806302e8dbc01461004657806389b08f1114610076578063fc75d4f5146100a8575b600080fd5b610060600480360381019061005b91906103fb565b6100c4565b60405161006d919061045f565b60405180910390f35b610090600480360381019061008b91906104d8565b6100cf565b60405161009f939291906105c6565b60405180910390f35b6100c260048036038101906100bd91906104d8565b6101d5565b005b600060019050919050565b60006020528060005260406000206000915090508060000160009054906101000a900473ffffffffffffffffffffffffffffffffffffffff16908060010160009054906101000a900473ffffffffffffffffffffffffffffffffffffffff16908060020160405180602001604052908160008201805461014e90610633565b80601f016020809104026020016040519081016040528092919081815260200182805461017a90610633565b80156101c75780601f1061019c576101008083540402835291602001916101c7565b820191906000526020600020905b8154815290600101906020018083116101aa57829003601f168201915b505050505081525050905083565b60008060003373ffffffffffffffffffffffffffffffffffffffff1673ffffffffffffffffffffffffffffffffffffffff1681526020019081526020016000209050818160000160006101000a81548173ffffffffffffffffffffffffffffffffffffffff021916908373ffffffffffffffffffffffffffffffffffffffff160217905550338160010160006101000a81548173ffffffffffffffffffffffffffffffffffffffff021916908373ffffffffffffffffffffffffffffffffffffffff1602179055505050565b6000604051905090565b600080fd5b600080fd5b600080fd5b600080fd5b6000601f19601f8301169050919050565b7f4e487b7100000000000000000000000000000000000000000000000000000000600052604160045260246000fd5b610308826102bf565b810181811067ffffffffffffffff82111715610327576103266102d0565b5b80604052505050565b600061033a6102a1565b905061034682826102ff565b919050565b600067ffffffffffffffff821115610366576103656102d0565b5b61036f826102bf565b9050602081019050919050565b82818337600083830152505050565b600061039e6103998461034b565b610330565b9050828152602081018484840111156103ba576103b96102ba565b5b6103c584828561037c565b509392505050565b600082601f8301126103e2576103e16102b5565b5b81356103f284826020860161038b565b91505092915050565b600060208284031215610411576104106102ab565b5b600082013567ffffffffffffffff81111561042f5761042e6102b0565b5b61043b848285016103cd565b91505092915050565b60008115159050919050565b61045981610444565b82525050565b60006020820190506104746000830184610450565b92915050565b600073ffffffffffffffffffffffffffffffffffffffff82169050919050565b60006104a58261047a565b9050919050565b6104b58161049a565b81146104c057600080fd5b50565b6000813590506104d2816104ac565b92915050565b6000602082840312156104ee576104ed6102ab565b5b60006104fc848285016104c3565b91505092915050565b61050e8161049a565b82525050565b600081519050919050565b600082825260208201905092915050565b60005b8381101561054e578082015181840152602081019050610533565b8381111561055d576000848401525b50505050565b600061056e82610514565b610578818561051f565b9350610588818560208601610530565b610591816102bf565b840191505092915050565b600060208301600083015184820360008601526105b98282610563565b9150508091505092915050565b60006060820190506105db6000830186610505565b6105e86020830185610505565b81810360408301526105fa818461059c565b9050949350505050565b7f4e487b7100000000000000000000000000000000000000000000000000000000600052602260045260246000fd5b6000600282049050600182168061064b57607f821691505b6020821081141561065f5761065e610604565b5b5091905056fea26469706673582212207bc151aba647bab6e4cc2fb3abdb417f9d5ec124193007039494837c2ffaa35264736f6c634300080b0033",
  "immutableReferences": {},
  "source": "// SPDX-License-Identifier: MIT\npragma solidity ^0.8;\ncontract Ballot {\n  struct Documents {  \n    string aadhar;\n  }\n  \n  struct MultiSig { \n    address inst;\n    address stud;\n    Documents documents;  \n  }\n\n  mapping(address=>MultiSig) public wallets ;\n\n  function createNewMultiSigbyUser(address instituteaddress) public {\n    MultiSig storage wa = wallets[msg.sender];\n    wa.inst=instituteaddress;\n    wa.stud=msg.sender;\n  }\n\n  function uploadAadhar(string memory) public pure returns (bool) {\n    // MultiSig storage wa=wallets[msg.sender];\n    return true;\n  }\n}\n",
  "sourcePath": "/home/shubhankargupta/Documents/BCTIdentity/src/contracts/SimpleStorage.sol",
  "compiler": {
    "name": "solc",
    "version": "0.8.11+commit.d7f03943.Emscripten.clang"
  },
  "schemaVersion": "3.4.4",
  "updatedAt": "2021-12-28T07:16:27.484Z",
  "devdoc": {
    "kind": "dev",
    "methods": {},
    "version": 1
  },
  "userdoc": {
    "kind": "user",
    "methods": {},
    "version": 1
  }
}