{
  "contractName": "SimpleStorage",
  "abi": [
    {
      "inputs": [],
      "payable": false,
      "stateMutability": "nonpayable",
      "type": "constructor"
    },
    {
      "constant": true,
      "inputs": [],
      "name": "j",
      "outputs": [
        {
          "internalType": "address",
          "name": "",
          "type": "address"
        }
      ],
      "payable": false,
      "stateMutability": "view",
      "type": "function"
    },
    {
      "constant": false,
      "inputs": [
        {
          "internalType": "address",
          "name": "a",
          "type": "address"
        }
      ],
      "name": "createNewMultiSigUser",
      "outputs": [
        {
          "internalType": "bool",
          "name": "",
          "type": "bool"
        }
      ],
      "payable": false,
      "stateMutability": "nonpayable",
      "type": "function"
    },
    {
      "constant": false,
      "inputs": [
        {
          "internalType": "address",
          "name": "a",
          "type": "address"
        }
      ],
      "name": "createNewMultiSigInst",
      "outputs": [],
      "payable": false,
      "stateMutability": "nonpayable",
      "type": "function"
    },
    {
      "constant": true,
      "inputs": [
        {
          "internalType": "address",
          "name": "a",
          "type": "address"
        }
      ],
      "name": "doesWalletExists",
      "outputs": [
        {
          "internalType": "bool",
          "name": "",
          "type": "bool"
        }
      ],
      "payable": false,
      "stateMutability": "view",
      "type": "function"
    },
    {
      "constant": false,
      "inputs": [
        {
          "internalType": "bool",
          "name": "ad",
          "type": "bool"
        },
        {
          "internalType": "string",
          "name": "hash",
          "type": "string"
        }
      ],
      "name": "createUploadRequestbyUser",
      "outputs": [],
      "payable": false,
      "stateMutability": "nonpayable",
      "type": "function"
    },
    {
      "constant": false,
      "inputs": [
        {
          "internalType": "address",
          "name": "a",
          "type": "address"
        },
        {
          "internalType": "bool",
          "name": "ad",
          "type": "bool"
        },
        {
          "internalType": "string",
          "name": "hash",
          "type": "string"
        }
      ],
      "name": "createUploadRequestbyInstitute",
      "outputs": [],
      "payable": false,
      "stateMutability": "nonpayable",
      "type": "function"
    },
    {
      "constant": true,
      "inputs": [
        {
          "internalType": "address",
          "name": "ad",
          "type": "address"
        }
      ],
      "name": "getUploadReqList",
      "outputs": [
        {
          "internalType": "address[]",
          "name": "",
          "type": "address[]"
        }
      ],
      "payable": false,
      "stateMutability": "view",
      "type": "function"
    },
    {
      "constant": false,
      "inputs": [
        {
          "internalType": "address",
          "name": "ad",
          "type": "address"
        }
      ],
      "name": "approveUploadbyUser",
      "outputs": [],
      "payable": false,
      "stateMutability": "nonpayable",
      "type": "function"
    },
    {
      "constant": false,
      "inputs": [
        {
          "internalType": "address",
          "name": "ad",
          "type": "address"
        },
        {
          "internalType": "address",
          "name": "student",
          "type": "address"
        }
      ],
      "name": "approveUploadbyInstitute",
      "outputs": [
        {
          "internalType": "bool",
          "name": "",
          "type": "bool"
        }
      ],
      "payable": false,
      "stateMutability": "nonpayable",
      "type": "function"
    },
    {
      "constant": true,
      "inputs": [
        {
          "internalType": "address",
          "name": "stud",
          "type": "address"
        }
      ],
      "name": "getAadhar",
      "outputs": [
        {
          "internalType": "string",
          "name": "",
          "type": "string"
        }
      ],
      "payable": false,
      "stateMutability": "view",
      "type": "function"
    },
    {
      "constant": true,
      "inputs": [
        {
          "internalType": "address",
          "name": "a",
          "type": "address"
        }
      ],
      "name": "getOwners",
      "outputs": [
        {
          "internalType": "address",
          "name": "",
          "type": "address"
        },
        {
          "internalType": "address",
          "name": "",
          "type": "address"
        }
      ],
      "payable": false,
      "stateMutability": "view",
      "type": "function"
    },
    {
      "constant": true,
      "inputs": [
        {
          "internalType": "address",
          "name": "ad",
          "type": "address"
        }
      ],
      "name": "getInstitutesWallet",
      "outputs": [
        {
          "internalType": "address[]",
          "name": "",
          "type": "address[]"
        }
      ],
      "payable": false,
      "stateMutability": "view",
      "type": "function"
    },
    {
      "constant": true,
      "inputs": [
        {
          "internalType": "address",
          "name": "ad",
          "type": "address"
        }
      ],
      "name": "getInstitutesUploadList",
      "outputs": [
        {
          "internalType": "address[]",
          "name": "",
          "type": "address[]"
        }
      ],
      "payable": false,
      "stateMutability": "view",
      "type": "function"
    },
    {
      "constant": false,
      "inputs": [
        {
          "internalType": "address",
          "name": "stud",
          "type": "address"
        },
        {
          "internalType": "address",
          "name": "Inst",
          "type": "address"
        }
      ],
      "name": "changeOwnerInstfromInst",
      "outputs": [],
      "payable": false,
      "stateMutability": "nonpayable",
      "type": "function"
    },
    {
      "constant": false,
      "inputs": [
        {
          "internalType": "address",
          "name": "Inst",
          "type": "address"
        }
      ],
      "name": "changeOwnerInstfromStud",
      "outputs": [],
      "payable": false,
      "stateMutability": "nonpayable",
      "type": "function"
    },
    {
      "constant": true,
      "inputs": [
        {
          "internalType": "address",
          "name": "a",
          "type": "address"
        }
      ],
      "name": "getChangeOwnerList",
      "outputs": [
        {
          "internalType": "address[]",
          "name": "",
          "type": "address[]"
        }
      ],
      "payable": false,
      "stateMutability": "view",
      "type": "function"
    },
    {
      "constant": false,
      "inputs": [
        {
          "internalType": "string",
          "name": "name",
          "type": "string"
        },
        {
          "internalType": "string",
          "name": "pro",
          "type": "string"
        },
        {
          "internalType": "address",
          "name": "my",
          "type": "address"
        },
        {
          "internalType": "string",
          "name": "no",
          "type": "string"
        },
        {
          "internalType": "string",
          "name": "email",
          "type": "string"
        }
      ],
      "name": "updateProf",
      "outputs": [],
      "payable": false,
      "stateMutability": "nonpayable",
      "type": "function"
    },
    {
      "constant": true,
      "inputs": [
        {
          "internalType": "address",
          "name": "a",
          "type": "address"
        }
      ],
      "name": "getProfile",
      "outputs": [
        {
          "internalType": "string",
          "name": "",
          "type": "string"
        },
        {
          "internalType": "string",
          "name": "",
          "type": "string"
        }
      ],
      "payable": false,
      "stateMutability": "view",
      "type": "function"
    },
    {
      "constant": false,
      "inputs": [
        {
          "internalType": "address",
          "name": "ad",
          "type": "address"
        }
      ],
      "name": "approveChangeOwnerINSTReqbyStud",
      "outputs": [],
      "payable": false,
      "stateMutability": "nonpayable",
      "type": "function"
    },
    {
      "constant": false,
      "inputs": [
        {
          "internalType": "address",
          "name": "ad",
          "type": "address"
        },
        {
          "internalType": "address",
          "name": "io",
          "type": "address"
        }
      ],
      "name": "approveChangeOwnerINSTReqbyInst",
      "outputs": [],
      "payable": false,
      "stateMutability": "nonpayable",
      "type": "function"
    },
    {
      "constant": false,
      "inputs": [
        {
          "internalType": "address",
          "name": "a",
          "type": "address"
        },
        {
          "internalType": "bool",
          "name": "adhar",
          "type": "bool"
        },
        {
          "internalType": "uint8",
          "name": "d",
          "type": "uint8"
        }
      ],
      "name": "createNewPartialOwnerRequest",
      "outputs": [],
      "payable": false,
      "stateMutability": "nonpayable",
      "type": "function"
    },
    {
      "constant": true,
      "inputs": [
        {
          "internalType": "address",
          "name": "a",
          "type": "address"
        }
      ],
      "name": "getPartialOwnerShipList",
      "outputs": [
        {
          "internalType": "address[]",
          "name": "",
          "type": "address[]"
        }
      ],
      "payable": false,
      "stateMutability": "view",
      "type": "function"
    },
    {
      "constant": true,
      "inputs": [
        {
          "internalType": "address",
          "name": "a",
          "type": "address"
        }
      ],
      "name": "isIamPartialOwner",
      "outputs": [
        {
          "internalType": "bool",
          "name": "",
          "type": "bool"
        }
      ],
      "payable": false,
      "stateMutability": "view",
      "type": "function"
    },
    {
      "constant": true,
      "inputs": [
        {
          "internalType": "address",
          "name": "a",
          "type": "address"
        }
      ],
      "name": "getPartialOwnerSList",
      "outputs": [
        {
          "internalType": "address[]",
          "name": "",
          "type": "address[]"
        }
      ],
      "payable": false,
      "stateMutability": "view",
      "type": "function"
    },
    {
      "constant": false,
      "inputs": [],
      "name": "set",
      "outputs": [],
      "payable": false,
      "stateMutability": "nonpayable",
      "type": "function"
    },
    {
      "constant": true,
      "inputs": [
        {
          "internalType": "address",
          "name": "stud",
          "type": "address"
        },
        {
          "internalType": "address",
          "name": "paro",
          "type": "address"
        }
      ],
      "name": "getPartialOwnerShipINFO",
      "outputs": [
        {
          "internalType": "bool",
          "name": "",
          "type": "bool"
        },
        {
          "internalType": "uint256",
          "name": "",
          "type": "uint256"
        }
      ],
      "payable": false,
      "stateMutability": "view",
      "type": "function"
    },
    {
      "constant": true,
      "inputs": [
        {
          "internalType": "address",
          "name": "stud",
          "type": "address"
        },
        {
          "internalType": "address",
          "name": "reqq",
          "type": "address"
        }
      ],
      "name": "getUploadRequestTIMESTAMP",
      "outputs": [
        {
          "internalType": "uint256",
          "name": "",
          "type": "uint256"
        }
      ],
      "payable": false,
      "stateMutability": "view",
      "type": "function"
    },
    {
      "constant": true,
      "inputs": [
        {
          "internalType": "address",
          "name": "stud",
          "type": "address"
        },
        {
          "internalType": "address",
          "name": "reqq",
          "type": "address"
        }
      ],
      "name": "getChangeOwnerRequestTIMESTAMP",
      "outputs": [
        {
          "internalType": "uint256",
          "name": "",
          "type": "uint256"
        }
      ],
      "payable": false,
      "stateMutability": "view",
      "type": "function"
    },
    {
      "constant": false,
      "inputs": [
        {
          "internalType": "address",
          "name": "a",
          "type": "address"
        },
        {
          "internalType": "uint8",
          "name": "qw",
          "type": "uint8"
        },
        {
          "internalType": "string",
          "name": "io",
          "type": "string"
        }
      ],
      "name": "setAaadharNo",
      "outputs": [],
      "payable": false,
      "stateMutability": "nonpayable",
      "type": "function"
    },
    {
      "constant": false,
      "inputs": [
        {
          "internalType": "address",
          "name": "stud",
          "type": "address"
        },
        {
          "internalType": "address",
          "name": "ad",
          "type": "address"
        }
      ],
      "name": "createNEwAccess",
      "outputs": [],
      "payable": false,
      "stateMutability": "nonpayable",
      "type": "function"
    },
    {
      "constant": true,
      "inputs": [
        {
          "internalType": "address",
          "name": "a",
          "type": "address"
        }
      ],
      "name": "getIhaveaAccess",
      "outputs": [
        {
          "internalType": "address[]",
          "name": "",
          "type": "address[]"
        }
      ],
      "payable": false,
      "stateMutability": "view",
      "type": "function"
    },
    {
      "constant": true,
      "inputs": [
        {
          "internalType": "address",
          "name": "stud",
          "type": "address"
        },
        {
          "internalType": "address",
          "name": "inst",
          "type": "address"
        }
      ],
      "name": "getUploadReqPic",
      "outputs": [
        {
          "internalType": "string",
          "name": "",
          "type": "string"
        }
      ],
      "payable": false,
      "stateMutability": "view",
      "type": "function"
    },
    {
      "constant": true,
      "inputs": [
        {
          "internalType": "address",
          "name": "a",
          "type": "address"
        }
      ],
      "name": "getPastOwner",
      "outputs": [
        {
          "internalType": "address[]",
          "name": "",
          "type": "address[]"
        }
      ],
      "payable": false,
      "stateMutability": "view",
      "type": "function"
    }
  ],
  "bytecode": "0x608060405234801561001057600080fd5b50614c2a806100206000396000f3fe608060405234801561001057600080fd5b50600436106101fb5760003560e01c80637a17dab51161011a578063cdb2b1f1116100ad578063f9cdf62b1161007c578063f9cdf62b146112d8578063fa271d8014611371578063fb9e0ac9146113e9578063fd8b84b11461144d578063fe2dc83c14611504576101fb565b8063cdb2b1f1146110ed578063d5808aa01461114a578063d88997f7146111e3578063e5f91f711461127c576101fb565b8063b533c202116100e9578063b533c20214610d60578063b582ec5f14610df9578063b8e010de14610e43578063c1b14dcb14610e4d576101fb565b80637a17dab514610b0257806384320a3f14610b9b57806388839eb114610bdf578063989bb9ff14610cc7576101fb565b806347e4ab251161019257806367ddb8641161016157806367ddb864146108d457806367fa04cb146109305780636b061c24146109ed5780636d30a0be14610a69576101fb565b806347e4ab251461066357806365e69686146106e657806367973e5c1461077f578063679a6f791461085c576101fb565b80632aebaf40116101ce5780632aebaf401461049857806332584da91461057f57806333b62877146105c35780633b2b0d341461061f576101fb565b80630e8ab506146102005780630f53a470146102445780631dbcc0311461036d57806320a38c5f146103d1575b600080fd5b6102426004803603602081101561021657600080fd5b81019080803573ffffffffffffffffffffffffffffffffffffffff169060200190929190505050611568565b005b6102866004803603602081101561025a57600080fd5b81019080803573ffffffffffffffffffffffffffffffffffffffff169060200190929190505050611855565b604051808060200180602001838103835285818151815260200191508051906020019080838360005b838110156102ca5780820151818401526020810190506102af565b50505050905090810190601f1680156102f75780820380516001836020036101000a031916815260200191505b50838103825284818151815260200191508051906020019080838360005b83811015610330578082015181840152602081019050610315565b50505050905090810190601f16801561035d5780820380516001836020036101000a031916815260200191505b5094505050505060405180910390f35b6103cf6004803603604081101561038357600080fd5b81019080803573ffffffffffffffffffffffffffffffffffffffff169060200190929190803573ffffffffffffffffffffffffffffffffffffffff169060200190929190505050611a21565b005b610496600480360360408110156103e757600080fd5b810190808035151590602001909291908035906020019064010000000081111561041057600080fd5b82018360208201111561042257600080fd5b8035906020019184600183028401116401000000008311171561044457600080fd5b91908080601f016020809104026020016040519081016040528093929190818152602001838380828437600081840152601f19601f820116905080830192505050505050509192919290505050611e68565b005b61057d600480360360608110156104ae57600080fd5b81019080803573ffffffffffffffffffffffffffffffffffffffff169060200190929190803515159060200190929190803590602001906401000000008111156104f757600080fd5b82018360208201111561050957600080fd5b8035906020019184600183028401116401000000008311171561052b57600080fd5b91908080601f016020809104026020016040519081016040528093929190818152602001838380828437600081840152601f19601f82011690508083019250505050505050919291929050505061226a565b005b6105c16004803603602081101561059557600080fd5b81019080803573ffffffffffffffffffffffffffffffffffffffff16906020019092919050505061265c565b005b610605600480360360208110156105d957600080fd5b81019080803573ffffffffffffffffffffffffffffffffffffffff1690602001909291905050506128e4565b604051808215151515815260200191505060405180910390f35b6106616004803603602081101561063557600080fd5b81019080803573ffffffffffffffffffffffffffffffffffffffff169060200190929190505050612952565b005b6106c56004803603604081101561067957600080fd5b81019080803573ffffffffffffffffffffffffffffffffffffffff169060200190929190803573ffffffffffffffffffffffffffffffffffffffff169060200190929190505050612cc9565b60405180831515151581526020018281526020019250505060405180910390f35b610728600480360360208110156106fc57600080fd5b81019080803573ffffffffffffffffffffffffffffffffffffffff169060200190929190505050612dee565b6040518080602001828103825283818151815260200191508051906020019060200280838360005b8381101561076b578082015181840152602081019050610750565b505050509050019250505060405180910390f35b6107e16004803603604081101561079557600080fd5b81019080803573ffffffffffffffffffffffffffffffffffffffff169060200190929190803573ffffffffffffffffffffffffffffffffffffffff169060200190929190505050612ebd565b6040518080602001828103825283818151815260200191508051906020019080838360005b83811015610821578082015181840152602081019050610806565b50505050905090810190601f16801561084e5780820380516001836020036101000a031916815260200191505b509250505060405180910390f35b6108be6004803603604081101561087257600080fd5b81019080803573ffffffffffffffffffffffffffffffffffffffff169060200190929190803573ffffffffffffffffffffffffffffffffffffffff169060200190929190505050612fe1565b6040518082815260200191505060405180910390f35b610916600480360360208110156108ea57600080fd5b81019080803573ffffffffffffffffffffffffffffffffffffffff16906020019092919050505061306d565b604051808215151515815260200191505060405180910390f35b6109726004803603602081101561094657600080fd5b81019080803573ffffffffffffffffffffffffffffffffffffffff169060200190929190505050613278565b6040518080602001828103825283818151815260200191508051906020019080838360005b838110156109b2578082015181840152602081019050610997565b50505050905090810190601f1680156109df5780820380516001836020036101000a031916815260200191505b509250505060405180910390f35b610a4f60048036036040811015610a0357600080fd5b81019080803573ffffffffffffffffffffffffffffffffffffffff169060200190929190803573ffffffffffffffffffffffffffffffffffffffff16906020019092919050505061335e565b604051808215151515815260200191505060405180910390f35b610aab60048036036020811015610a7f57600080fd5b81019080803573ffffffffffffffffffffffffffffffffffffffff1690602001909291905050506136e7565b6040518080602001828103825283818151815260200191508051906020019060200280838360005b83811015610aee578082015181840152602081019050610ad3565b505050509050019250505060405180910390f35b610b4460048036036020811015610b1857600080fd5b81019080803573ffffffffffffffffffffffffffffffffffffffff1690602001909291905050506137b6565b6040518080602001828103825283818151815260200191508051906020019060200280838360005b83811015610b87578082015181840152602081019050610b6c565b505050509050019250505060405180910390f35b610bdd60048036036020811015610bb157600080fd5b81019080803573ffffffffffffffffffffffffffffffffffffffff169060200190929190505050613885565b005b610cc560048036036060811015610bf557600080fd5b81019080803573ffffffffffffffffffffffffffffffffffffffff169060200190929190803560ff16906020019092919080359060200190640100000000811115610c3f57600080fd5b820183602082011115610c5157600080fd5b80359060200191846001830284011164010000000083111715610c7357600080fd5b91908080601f016020809104026020016040519081016040528093929190818152602001838380828437600081840152601f19601f820116905080830192505050505050509192919290505050613a88565b005b610d0960048036036020811015610cdd57600080fd5b81019080803573ffffffffffffffffffffffffffffffffffffffff169060200190929190505050613b43565b6040518080602001828103825283818151815260200191508051906020019060200280838360005b83811015610d4c578082015181840152602081019050610d31565b505050509050019250505060405180910390f35b610da260048036036020811015610d7657600080fd5b81019080803573ffffffffffffffffffffffffffffffffffffffff169060200190929190505050613c15565b6040518080602001828103825283818151815260200191508051906020019060200280838360005b83811015610de5578082015181840152602081019050610dca565b505050509050019250505060405180910390f35b610e01613ce4565b604051808273ffffffffffffffffffffffffffffffffffffffff1673ffffffffffffffffffffffffffffffffffffffff16815260200191505060405180910390f35b610e4b613d0a565b005b6110eb600480360360a0811015610e6357600080fd5b8101908080359060200190640100000000811115610e8057600080fd5b820183602082011115610e9257600080fd5b80359060200191846001830284011164010000000083111715610eb457600080fd5b91908080601f016020809104026020016040519081016040528093929190818152602001838380828437600081840152601f19601f82011690508083019250505050505050919291929080359060200190640100000000811115610f1757600080fd5b820183602082011115610f2957600080fd5b80359060200191846001830284011164010000000083111715610f4b57600080fd5b91908080601f016020809104026020016040519081016040528093929190818152602001838380828437600081840152601f19601f820116905080830192505050505050509192919290803573ffffffffffffffffffffffffffffffffffffffff16906020019092919080359060200190640100000000811115610fce57600080fd5b820183602082011115610fe057600080fd5b8035906020019184600183028401116401000000008311171561100257600080fd5b91908080601f016020809104026020016040519081016040528093929190818152602001838380828437600081840152601f19601f8201169050808301925050505050505091929192908035906020019064010000000081111561106557600080fd5b82018360208201111561107757600080fd5b8035906020019184600183028401116401000000008311171561109957600080fd5b91908080601f016020809104026020016040519081016040528093929190818152602001838380828437600081840152601f19601f820116905080830192505050505050509192919290505050613d9a565b005b6111486004803603606081101561110357600080fd5b81019080803573ffffffffffffffffffffffffffffffffffffffff169060200190929190803515159060200190929190803560ff169060200190929190505050613f05565b005b61118c6004803603602081101561116057600080fd5b81019080803573ffffffffffffffffffffffffffffffffffffffff1690602001909291905050506140d1565b6040518080602001828103825283818151815260200191508051906020019060200280838360005b838110156111cf5780820151818401526020810190506111b4565b505050509050019250505060405180910390f35b611225600480360360208110156111f957600080fd5b81019080803573ffffffffffffffffffffffffffffffffffffffff16906020019092919050505061419e565b6040518080602001828103825283818151815260200191508051906020019060200280838360005b8381101561126857808201518184015260208101905061124d565b505050509050019250505060405180910390f35b6112be6004803603602081101561129257600080fd5b81019080803573ffffffffffffffffffffffffffffffffffffffff16906020019092919050505061426d565b604051808215151515815260200191505060405180910390f35b61131a600480360360208110156112ee57600080fd5b81019080803573ffffffffffffffffffffffffffffffffffffffff1690602001909291905050506143b4565b6040518080602001828103825283818151815260200191508051906020019060200280838360005b8381101561135d578082015181840152602081019050611342565b505050509050019250505060405180910390f35b6113d36004803603604081101561138757600080fd5b81019080803573ffffffffffffffffffffffffffffffffffffffff169060200190929190803573ffffffffffffffffffffffffffffffffffffffff169060200190929190505050614483565b6040518082815260200191505060405180910390f35b61144b600480360360408110156113ff57600080fd5b81019080803573ffffffffffffffffffffffffffffffffffffffff169060200190929190803573ffffffffffffffffffffffffffffffffffffffff16906020019092919050505061450f565b005b61148f6004803603602081101561146357600080fd5b81019080803573ffffffffffffffffffffffffffffffffffffffff1690602001909291905050506147fd565b604051808373ffffffffffffffffffffffffffffffffffffffff1673ffffffffffffffffffffffffffffffffffffffff1681526020018273ffffffffffffffffffffffffffffffffffffffff1673ffffffffffffffffffffffffffffffffffffffff1681526020019250505060405180910390f35b6115666004803603604081101561151a57600080fd5b81019080803573ffffffffffffffffffffffffffffffffffffffff169060200190929190803573ffffffffffffffffffffffffffffffffffffffff1690602001909291905050506148d3565b005b60016000803373ffffffffffffffffffffffffffffffffffffffff1673ffffffffffffffffffffffffffffffffffffffff168152602001908152602001600020600e0160008373ffffffffffffffffffffffffffffffffffffffff1673ffffffffffffffffffffffffffffffffffffffff16815260200190815260200160002060000160016101000a81548160ff0219169083151502179055506000803373ffffffffffffffffffffffffffffffffffffffff1673ffffffffffffffffffffffffffffffffffffffff168152602001908152602001600020600e0160008273ffffffffffffffffffffffffffffffffffffffff1673ffffffffffffffffffffffffffffffffffffffff16815260200190815260200160002060000160019054906101000a900460ff16801561172857506000803373ffffffffffffffffffffffffffffffffffffffff1673ffffffffffffffffffffffffffffffffffffffff168152602001908152602001600020600e0160008273ffffffffffffffffffffffffffffffffffffffff1673ffffffffffffffffffffffffffffffffffffffff16815260200190815260200160002060000160009054906101000a900460ff165b15611852576000803373ffffffffffffffffffffffffffffffffffffffff1673ffffffffffffffffffffffffffffffffffffffff168152602001908152602001600020600e0160008273ffffffffffffffffffffffffffffffffffffffff1673ffffffffffffffffffffffffffffffffffffffff16815260200190815260200160002060000160029054906101000a900473ffffffffffffffffffffffffffffffffffffffff166000803373ffffffffffffffffffffffffffffffffffffffff1673ffffffffffffffffffffffffffffffffffffffff16815260200190815260200160002060000160010160006101000a81548173ffffffffffffffffffffffffffffffffffffffff021916908373ffffffffffffffffffffffffffffffffffffffff1602179055505b50565b6060806000808473ffffffffffffffffffffffffffffffffffffffff1673ffffffffffffffffffffffffffffffffffffffff1681526020019081526020016000206007016000016000808573ffffffffffffffffffffffffffffffffffffffff1673ffffffffffffffffffffffffffffffffffffffff168152602001908152602001600020600701600101818054600181600116156101000203166002900480601f0160208091040260200160405190810160405280929190818152602001828054600181600116156101000203166002900480156119755780601f1061194a57610100808354040283529160200191611975565b820191906000526020600020905b81548152906001019060200180831161195857829003601f168201915b50505050509150808054600181600116156101000203166002900480601f016020809104026020016040519081016040528092919081815260200182805460018160011615610100020316600290048015611a115780601f106119e657610100808354040283529160200191611a11565b820191906000526020600020905b8154815290600101906020018083116119f457829003601f168201915b5050505050905091509150915091565b60016000808473ffffffffffffffffffffffffffffffffffffffff1673ffffffffffffffffffffffffffffffffffffffff168152602001908152602001600020600e0160003373ffffffffffffffffffffffffffffffffffffffff1673ffffffffffffffffffffffffffffffffffffffff16815260200190815260200160002060000160006101000a81548160ff021916908315150217905550806000808473ffffffffffffffffffffffffffffffffffffffff1673ffffffffffffffffffffffffffffffffffffffff168152602001908152602001600020600e0160003373ffffffffffffffffffffffffffffffffffffffff1673ffffffffffffffffffffffffffffffffffffffff16815260200190815260200160002060000160026101000a81548173ffffffffffffffffffffffffffffffffffffffff021916908373ffffffffffffffffffffffffffffffffffffffff1602179055506000808373ffffffffffffffffffffffffffffffffffffffff1673ffffffffffffffffffffffffffffffffffffffff168152602001908152602001600020600d013390806001815401808255809150509060018203906000526020600020016000909192909190916101000a81548173ffffffffffffffffffffffffffffffffffffffff021916908373ffffffffffffffffffffffffffffffffffffffff16021790555050426000808473ffffffffffffffffffffffffffffffffffffffff1673ffffffffffffffffffffffffffffffffffffffff168152602001908152602001600020600e0160003373ffffffffffffffffffffffffffffffffffffffff1673ffffffffffffffffffffffffffffffffffffffff1681526020019081526020016000206002018190555060016000808473ffffffffffffffffffffffffffffffffffffffff1673ffffffffffffffffffffffffffffffffffffffff168152602001908152602001600020600e0160003373ffffffffffffffffffffffffffffffffffffffff1673ffffffffffffffffffffffffffffffffffffffff16815260200190815260200160002060000160016101000a81548160ff0219169083151502179055506000808373ffffffffffffffffffffffffffffffffffffffff1673ffffffffffffffffffffffffffffffffffffffff168152602001908152602001600020600e0160003373ffffffffffffffffffffffffffffffffffffffff1673ffffffffffffffffffffffffffffffffffffffff16815260200190815260200160002060000160029054906101000a900473ffffffffffffffffffffffffffffffffffffffff166000808473ffffffffffffffffffffffffffffffffffffffff1673ffffffffffffffffffffffffffffffffffffffff16815260200190815260200160002060000160010160006101000a81548173ffffffffffffffffffffffffffffffffffffffff021916908373ffffffffffffffffffffffffffffffffffffffff1602179055505050565b60008060003373ffffffffffffffffffffffffffffffffffffffff1673ffffffffffffffffffffffffffffffffffffffff16815260200190815260200160002060000160010160009054906101000a900473ffffffffffffffffffffffffffffffffffffffff16905060016000803373ffffffffffffffffffffffffffffffffffffffff1673ffffffffffffffffffffffffffffffffffffffff168152602001908152602001600020600b0160008373ffffffffffffffffffffffffffffffffffffffff1673ffffffffffffffffffffffffffffffffffffffff16815260200190815260200160002060000160000160006101000a81548160ff02191690831515021790555060008060003373ffffffffffffffffffffffffffffffffffffffff1673ffffffffffffffffffffffffffffffffffffffff168152602001908152602001600020600b0160008373ffffffffffffffffffffffffffffffffffffffff1673ffffffffffffffffffffffffffffffffffffffff16815260200190815260200160002060000160000160016101000a81548160ff021916908315150217905550826000803373ffffffffffffffffffffffffffffffffffffffff1673ffffffffffffffffffffffffffffffffffffffff168152602001908152602001600020600b0160008373ffffffffffffffffffffffffffffffffffffffff1673ffffffffffffffffffffffffffffffffffffffff16815260200190815260200160002060010160006101000a81548160ff021916908315150217905550816000803373ffffffffffffffffffffffffffffffffffffffff1673ffffffffffffffffffffffffffffffffffffffff168152602001908152602001600020600b0160008373ffffffffffffffffffffffffffffffffffffffff1673ffffffffffffffffffffffffffffffffffffffff1681526020019081526020016000206002019080519060200190612139929190614ac9565b506000803373ffffffffffffffffffffffffffffffffffffffff1673ffffffffffffffffffffffffffffffffffffffff168152602001908152602001600020600c013390806001815401808255809150509060018203906000526020600020016000909192909190916101000a81548173ffffffffffffffffffffffffffffffffffffffff021916908373ffffffffffffffffffffffffffffffffffffffff16021790555050426000803373ffffffffffffffffffffffffffffffffffffffff1673ffffffffffffffffffffffffffffffffffffffff168152602001908152602001600020600b0160008373ffffffffffffffffffffffffffffffffffffffff1673ffffffffffffffffffffffffffffffffffffffff16815260200190815260200160002060030181905550505050565b60016000808573ffffffffffffffffffffffffffffffffffffffff1673ffffffffffffffffffffffffffffffffffffffff168152602001908152602001600020600b0160008573ffffffffffffffffffffffffffffffffffffffff1673ffffffffffffffffffffffffffffffffffffffff16815260200190815260200160002060000160000160016101000a81548160ff02191690831515021790555060008060008573ffffffffffffffffffffffffffffffffffffffff1673ffffffffffffffffffffffffffffffffffffffff168152602001908152602001600020600b0160008573ffffffffffffffffffffffffffffffffffffffff1673ffffffffffffffffffffffffffffffffffffffff16815260200190815260200160002060000160000160006101000a81548160ff021916908315150217905550816000808573ffffffffffffffffffffffffffffffffffffffff1673ffffffffffffffffffffffffffffffffffffffff168152602001908152602001600020600b0160008573ffffffffffffffffffffffffffffffffffffffff1673ffffffffffffffffffffffffffffffffffffffff16815260200190815260200160002060010160006101000a81548160ff021916908315150217905550426000808573ffffffffffffffffffffffffffffffffffffffff1673ffffffffffffffffffffffffffffffffffffffff168152602001908152602001600020600b0160008573ffffffffffffffffffffffffffffffffffffffff1673ffffffffffffffffffffffffffffffffffffffff16815260200190815260200160002060030181905550806000808573ffffffffffffffffffffffffffffffffffffffff1673ffffffffffffffffffffffffffffffffffffffff168152602001908152602001600020600b0160008573ffffffffffffffffffffffffffffffffffffffff1673ffffffffffffffffffffffffffffffffffffffff1681526020019081526020016000206002019080519060200190612558929190614ac9565b506000808473ffffffffffffffffffffffffffffffffffffffff1673ffffffffffffffffffffffffffffffffffffffff168152602001908152602001600020600c013390806001815401808255809150509060018203906000526020600020016000909192909190916101000a81548173ffffffffffffffffffffffffffffffffffffffff021916908373ffffffffffffffffffffffffffffffffffffffff16021790555050806000808573ffffffffffffffffffffffffffffffffffffffff1673ffffffffffffffffffffffffffffffffffffffff1681526020019081526020016000206004016000019080519060200190612656929190614ac9565b50505050565b60016000803373ffffffffffffffffffffffffffffffffffffffff1673ffffffffffffffffffffffffffffffffffffffff168152602001908152602001600020600e0160003373ffffffffffffffffffffffffffffffffffffffff1673ffffffffffffffffffffffffffffffffffffffff16815260200190815260200160002060000160016101000a81548160ff021916908315150217905550806000803373ffffffffffffffffffffffffffffffffffffffff1673ffffffffffffffffffffffffffffffffffffffff168152602001908152602001600020600e0160003373ffffffffffffffffffffffffffffffffffffffff1673ffffffffffffffffffffffffffffffffffffffff16815260200190815260200160002060000160026101000a81548173ffffffffffffffffffffffffffffffffffffffff021916908373ffffffffffffffffffffffffffffffffffffffff1602179055506000803373ffffffffffffffffffffffffffffffffffffffff1673ffffffffffffffffffffffffffffffffffffffff168152602001908152602001600020600d013390806001815401808255809150509060018203906000526020600020016000909192909190916101000a81548173ffffffffffffffffffffffffffffffffffffffff021916908373ffffffffffffffffffffffffffffffffffffffff16021790555050426000803373ffffffffffffffffffffffffffffffffffffffff1673ffffffffffffffffffffffffffffffffffffffff168152602001908152602001600020600e0160003373ffffffffffffffffffffffffffffffffffffffff1673ffffffffffffffffffffffffffffffffffffffff1681526020019081526020016000206002018190555050565b600060011515600160008473ffffffffffffffffffffffffffffffffffffffff1673ffffffffffffffffffffffffffffffffffffffff16815260200190815260200160002060009054906101000a900460ff1615151415612948576001905061294d565b600090505b919050565b60016000803373ffffffffffffffffffffffffffffffffffffffff1673ffffffffffffffffffffffffffffffffffffffff168152602001908152602001600020600b0160008373ffffffffffffffffffffffffffffffffffffffff1673ffffffffffffffffffffffffffffffffffffffff16815260200190815260200160002060000160000160006101000a81548160ff0219169083151502179055506000803373ffffffffffffffffffffffffffffffffffffffff1673ffffffffffffffffffffffffffffffffffffffff168152602001908152602001600020600b0160008273ffffffffffffffffffffffffffffffffffffffff1673ffffffffffffffffffffffffffffffffffffffff16815260200190815260200160002060000160000160009054906101000a900460ff168015612b1b57506000803373ffffffffffffffffffffffffffffffffffffffff1673ffffffffffffffffffffffffffffffffffffffff168152602001908152602001600020600b0160008273ffffffffffffffffffffffffffffffffffffffff1673ffffffffffffffffffffffffffffffffffffffff16815260200190815260200160002060000160000160019054906101000a900460ff165b15612cc6576000803373ffffffffffffffffffffffffffffffffffffffff1673ffffffffffffffffffffffffffffffffffffffff168152602001908152602001600020600b0160008273ffffffffffffffffffffffffffffffffffffffff1673ffffffffffffffffffffffffffffffffffffffff1681526020019081526020016000206002016000803373ffffffffffffffffffffffffffffffffffffffff1673ffffffffffffffffffffffffffffffffffffffff1681526020019081526020016000206004016000019080546001816001161561010002031660029004612c04929190614b49565b506000803373ffffffffffffffffffffffffffffffffffffffff1673ffffffffffffffffffffffffffffffffffffffff168152602001908152602001600020600c0160016000803373ffffffffffffffffffffffffffffffffffffffff1673ffffffffffffffffffffffffffffffffffffffff168152602001908152602001600020600c01805490500381548110612c9857fe5b9060005260206000200160006101000a81549073ffffffffffffffffffffffffffffffffffffffff02191690555b50565b6000806000808573ffffffffffffffffffffffffffffffffffffffff1673ffffffffffffffffffffffffffffffffffffffff16815260200190815260200160002060000160020160008473ffffffffffffffffffffffffffffffffffffffff1673ffffffffffffffffffffffffffffffffffffffff16815260200190815260200160002060000160009054906101000a900460ff166000808673ffffffffffffffffffffffffffffffffffffffff1673ffffffffffffffffffffffffffffffffffffffff16815260200190815260200160002060000160020160008573ffffffffffffffffffffffffffffffffffffffff1673ffffffffffffffffffffffffffffffffffffffff16815260200190815260200160002060020154915091509250929050565b60606000808373ffffffffffffffffffffffffffffffffffffffff1673ffffffffffffffffffffffffffffffffffffffff168152602001908152602001600020600c01805480602002602001604051908101604052809291908181526020018280548015612eb157602002820191906000526020600020905b8160009054906101000a900473ffffffffffffffffffffffffffffffffffffffff1673ffffffffffffffffffffffffffffffffffffffff1681526020019060010190808311612e67575b50505050509050919050565b60606000808473ffffffffffffffffffffffffffffffffffffffff1673ffffffffffffffffffffffffffffffffffffffff168152602001908152602001600020600b0160008373ffffffffffffffffffffffffffffffffffffffff1673ffffffffffffffffffffffffffffffffffffffff1681526020019081526020016000206002018054600181600116156101000203166002900480601f016020809104026020016040519081016040528092919081815260200182805460018160011615610100020316600290048015612fd45780601f10612fa957610100808354040283529160200191612fd4565b820191906000526020600020905b815481529060010190602001808311612fb757829003601f168201915b5050505050905092915050565b60008060008473ffffffffffffffffffffffffffffffffffffffff1673ffffffffffffffffffffffffffffffffffffffff168152602001908152602001600020600b0160008373ffffffffffffffffffffffffffffffffffffffff1673ffffffffffffffffffffffffffffffffffffffff16815260200190815260200160002060030154905092915050565b6000816000803373ffffffffffffffffffffffffffffffffffffffff1673ffffffffffffffffffffffffffffffffffffffff16815260200190815260200160002060000160010160006101000a81548173ffffffffffffffffffffffffffffffffffffffff021916908373ffffffffffffffffffffffffffffffffffffffff160217905550336000803373ffffffffffffffffffffffffffffffffffffffff1673ffffffffffffffffffffffffffffffffffffffff16815260200190815260200160002060000160000160016101000a81548173ffffffffffffffffffffffffffffffffffffffff021916908373ffffffffffffffffffffffffffffffffffffffff16021790555060018060003373ffffffffffffffffffffffffffffffffffffffff1673ffffffffffffffffffffffffffffffffffffffff16815260200190815260200160002060006101000a81548160ff021916908315150217905550600260008373ffffffffffffffffffffffffffffffffffffffff1673ffffffffffffffffffffffffffffffffffffffff1681526020019081526020016000203390806001815401808255809150509060018203906000526020600020016000909192909190916101000a81548173ffffffffffffffffffffffffffffffffffffffff021916908373ffffffffffffffffffffffffffffffffffffffff1602179055505060019050919050565b60606000808373ffffffffffffffffffffffffffffffffffffffff1673ffffffffffffffffffffffffffffffffffffffff1681526020019081526020016000206004016000018054600181600116156101000203166002900480601f0160208091040260200160405190810160405280929190818152602001828054600181600116156101000203166002900480156133525780601f1061332757610100808354040283529160200191613352565b820191906000526020600020905b81548152906001019060200180831161333557829003601f168201915b50505050509050919050565b600060016000808473ffffffffffffffffffffffffffffffffffffffff1673ffffffffffffffffffffffffffffffffffffffff168152602001908152602001600020600b0160008573ffffffffffffffffffffffffffffffffffffffff1673ffffffffffffffffffffffffffffffffffffffff16815260200190815260200160002060000160000160016101000a81548160ff0219169083151502179055506000808373ffffffffffffffffffffffffffffffffffffffff1673ffffffffffffffffffffffffffffffffffffffff168152602001908152602001600020600b0160008473ffffffffffffffffffffffffffffffffffffffff1673ffffffffffffffffffffffffffffffffffffffff16815260200190815260200160002060000160000160009054906101000a900460ff16801561352957506000808373ffffffffffffffffffffffffffffffffffffffff1673ffffffffffffffffffffffffffffffffffffffff168152602001908152602001600020600b0160008473ffffffffffffffffffffffffffffffffffffffff1673ffffffffffffffffffffffffffffffffffffffff16815260200190815260200160002060000160000160019054906101000a900460ff165b156136dc576000808373ffffffffffffffffffffffffffffffffffffffff1673ffffffffffffffffffffffffffffffffffffffff168152602001908152602001600020600b0160008473ffffffffffffffffffffffffffffffffffffffff1673ffffffffffffffffffffffffffffffffffffffff1681526020019081526020016000206002016000808473ffffffffffffffffffffffffffffffffffffffff1673ffffffffffffffffffffffffffffffffffffffff1681526020019081526020016000206004016000019080546001816001161561010002031660029004613612929190614b49565b506000808373ffffffffffffffffffffffffffffffffffffffff1673ffffffffffffffffffffffffffffffffffffffff168152602001908152602001600020600c0160016000808573ffffffffffffffffffffffffffffffffffffffff1673ffffffffffffffffffffffffffffffffffffffff168152602001908152602001600020600c018054905003815481106136a657fe5b9060005260206000200160006101000a81549073ffffffffffffffffffffffffffffffffffffffff0219169055600190506136e1565b600090505b92915050565b60606000808373ffffffffffffffffffffffffffffffffffffffff1673ffffffffffffffffffffffffffffffffffffffff1681526020019081526020016000206012018054806020026020016040519081016040528092919081815260200182805480156137aa57602002820191906000526020600020905b8160009054906101000a900473ffffffffffffffffffffffffffffffffffffffff1673ffffffffffffffffffffffffffffffffffffffff1681526020019060010190808311613760575b50505050509050919050565b60606000808373ffffffffffffffffffffffffffffffffffffffff1673ffffffffffffffffffffffffffffffffffffffff168152602001908152602001600020600d0180548060200260200160405190810160405280929190818152602001828054801561387957602002820191906000526020600020905b8160009054906101000a900473ffffffffffffffffffffffffffffffffffffffff1673ffffffffffffffffffffffffffffffffffffffff168152602001906001019080831161382f575b50505050509050919050565b806000803373ffffffffffffffffffffffffffffffffffffffff1673ffffffffffffffffffffffffffffffffffffffff16815260200190815260200160002060000160000160016101000a81548173ffffffffffffffffffffffffffffffffffffffff021916908373ffffffffffffffffffffffffffffffffffffffff160217905550336000803373ffffffffffffffffffffffffffffffffffffffff1673ffffffffffffffffffffffffffffffffffffffff16815260200190815260200160002060000160010160006101000a81548173ffffffffffffffffffffffffffffffffffffffff021916908373ffffffffffffffffffffffffffffffffffffffff16021790555060018060003373ffffffffffffffffffffffffffffffffffffffff1673ffffffffffffffffffffffffffffffffffffffff16815260200190815260200160002060006101000a81548160ff021916908315150217905550600260003373ffffffffffffffffffffffffffffffffffffffff1673ffffffffffffffffffffffffffffffffffffffff1681526020019081526020016000208190806001815401808255809150509060018203906000526020600020016000909192909190916101000a81548173ffffffffffffffffffffffffffffffffffffffff021916908373ffffffffffffffffffffffffffffffffffffffff1602179055505050565b816000808573ffffffffffffffffffffffffffffffffffffffff1673ffffffffffffffffffffffffffffffffffffffff16815260200190815260200160002060040160010160006101000a81548160ff021916908360ff160217905550806000808573ffffffffffffffffffffffffffffffffffffffff1673ffffffffffffffffffffffffffffffffffffffff1681526020019081526020016000206004016002019080519060200190613b3d929190614ac9565b50505050565b60606000808373ffffffffffffffffffffffffffffffffffffffff1673ffffffffffffffffffffffffffffffffffffffff168152602001908152602001600020600001600301805480602002602001604051908101604052809291908181526020018280548015613c0957602002820191906000526020600020905b8160009054906101000a900473ffffffffffffffffffffffffffffffffffffffff1673ffffffffffffffffffffffffffffffffffffffff1681526020019060010190808311613bbf575b50505050509050919050565b60606000808373ffffffffffffffffffffffffffffffffffffffff1673ffffffffffffffffffffffffffffffffffffffff168152602001908152602001600020601101805480602002602001604051908101604052809291908181526020018280548015613cd857602002820191906000526020600020905b8160009054906101000a900473ffffffffffffffffffffffffffffffffffffffff1673ffffffffffffffffffffffffffffffffffffffff1681526020019060010190808311613c8e575b50505050509050919050565b600360009054906101000a900473ffffffffffffffffffffffffffffffffffffffff1681565b6040518060400160405280600981526020017f48484848484841414800000000000000000000000000000000000000000000008152506000803373ffffffffffffffffffffffffffffffffffffffff1673ffffffffffffffffffffffffffffffffffffffff1681526020019081526020016000206004016000019080519060200190613d97929190614ac9565b50565b846000808573ffffffffffffffffffffffffffffffffffffffff1673ffffffffffffffffffffffffffffffffffffffff1681526020019081526020016000206007016000019080519060200190613df2929190614ac9565b50836000808573ffffffffffffffffffffffffffffffffffffffff1673ffffffffffffffffffffffffffffffffffffffff1681526020019081526020016000206007016001019080519060200190613e4b929190614ac9565b50816000808573ffffffffffffffffffffffffffffffffffffffff1673ffffffffffffffffffffffffffffffffffffffff1681526020019081526020016000206007016003019080519060200190613ea4929190614ac9565b50806000808573ffffffffffffffffffffffffffffffffffffffff1673ffffffffffffffffffffffffffffffffffffffff1681526020019081526020016000206007016002019080519060200190613efd929190614ac9565b505050505050565b816000808573ffffffffffffffffffffffffffffffffffffffff1673ffffffffffffffffffffffffffffffffffffffff168152602001908152602001600020600f0160003373ffffffffffffffffffffffffffffffffffffffff1673ffffffffffffffffffffffffffffffffffffffff16815260200190815260200160002060020160006101000a81548160ff0219169083151502179055508060ff166000808573ffffffffffffffffffffffffffffffffffffffff1673ffffffffffffffffffffffffffffffffffffffff168152602001908152602001600020600f0160003373ffffffffffffffffffffffffffffffffffffffff1673ffffffffffffffffffffffffffffffffffffffff168152602001908152602001600020600101819055506000808473ffffffffffffffffffffffffffffffffffffffff1673ffffffffffffffffffffffffffffffffffffffff1681526020019081526020016000206010013390806001815401808255809150509060018203906000526020600020016000909192909190916101000a81548173ffffffffffffffffffffffffffffffffffffffff021916908373ffffffffffffffffffffffffffffffffffffffff16021790555050505050565b6060600260008373ffffffffffffffffffffffffffffffffffffffff1673ffffffffffffffffffffffffffffffffffffffff16815260200190815260200160002080548060200260200160405190810160405280929190818152602001828054801561419257602002820191906000526020600020905b8160009054906101000a900473ffffffffffffffffffffffffffffffffffffffff1673ffffffffffffffffffffffffffffffffffffffff1681526020019060010190808311614148575b50505050509050919050565b60606000808373ffffffffffffffffffffffffffffffffffffffff1673ffffffffffffffffffffffffffffffffffffffff168152602001908152602001600020600c0180548060200260200160405190810160405280929190818152602001828054801561426157602002820191906000526020600020905b8160009054906101000a900473ffffffffffffffffffffffffffffffffffffffff1673ffffffffffffffffffffffffffffffffffffffff1681526020019060010190808311614217575b50505050509050919050565b600060606000808473ffffffffffffffffffffffffffffffffffffffff1673ffffffffffffffffffffffffffffffffffffffff16815260200190815260200160002060000160030180548060200260200160405190810160405280929190818152602001828054801561433557602002820191906000526020600020905b8160009054906101000a900473ffffffffffffffffffffffffffffffffffffffff1673ffffffffffffffffffffffffffffffffffffffff16815260200190600101908083116142eb575b50505050509050600080905060008090505b82518110156143a95782818151811061435c57fe5b602002602001015173ffffffffffffffffffffffffffffffffffffffff163373ffffffffffffffffffffffffffffffffffffffff16141561439c57600191505b8080600101915050614347565b508092505050919050565b60606000808373ffffffffffffffffffffffffffffffffffffffff1673ffffffffffffffffffffffffffffffffffffffff16815260200190815260200160002060100180548060200260200160405190810160405280929190818152602001828054801561447757602002820191906000526020600020905b8160009054906101000a900473ffffffffffffffffffffffffffffffffffffffff1673ffffffffffffffffffffffffffffffffffffffff168152602001906001019080831161442d575b50505050509050919050565b60008060008473ffffffffffffffffffffffffffffffffffffffff1673ffffffffffffffffffffffffffffffffffffffff168152602001908152602001600020600e0160008373ffffffffffffffffffffffffffffffffffffffff1673ffffffffffffffffffffffffffffffffffffffff16815260200190815260200160002060020154905092915050565b60016000808373ffffffffffffffffffffffffffffffffffffffff1673ffffffffffffffffffffffffffffffffffffffff168152602001908152602001600020600e0160008473ffffffffffffffffffffffffffffffffffffffff1673ffffffffffffffffffffffffffffffffffffffff16815260200190815260200160002060000160006101000a81548160ff0219169083151502179055506000808273ffffffffffffffffffffffffffffffffffffffff1673ffffffffffffffffffffffffffffffffffffffff168152602001908152602001600020600e0160008373ffffffffffffffffffffffffffffffffffffffff1673ffffffffffffffffffffffffffffffffffffffff16815260200190815260200160002060000160019054906101000a900460ff1680156146cf57506000808273ffffffffffffffffffffffffffffffffffffffff1673ffffffffffffffffffffffffffffffffffffffff168152602001908152602001600020600e0160008373ffffffffffffffffffffffffffffffffffffffff1673ffffffffffffffffffffffffffffffffffffffff16815260200190815260200160002060000160009054906101000a900460ff165b156147f9576000808273ffffffffffffffffffffffffffffffffffffffff1673ffffffffffffffffffffffffffffffffffffffff168152602001908152602001600020600e0160008373ffffffffffffffffffffffffffffffffffffffff1673ffffffffffffffffffffffffffffffffffffffff16815260200190815260200160002060000160029054906101000a900473ffffffffffffffffffffffffffffffffffffffff166000808373ffffffffffffffffffffffffffffffffffffffff1673ffffffffffffffffffffffffffffffffffffffff16815260200190815260200160002060000160010160006101000a81548173ffffffffffffffffffffffffffffffffffffffff021916908373ffffffffffffffffffffffffffffffffffffffff1602179055505b5050565b6000806000808473ffffffffffffffffffffffffffffffffffffffff1673ffffffffffffffffffffffffffffffffffffffff16815260200190815260200160002060000160000160019054906101000a900473ffffffffffffffffffffffffffffffffffffffff166000808573ffffffffffffffffffffffffffffffffffffffff1673ffffffffffffffffffffffffffffffffffffffff16815260200190815260200160002060000160010160009054906101000a900473ffffffffffffffffffffffffffffffffffffffff1691509150915091565b6000808373ffffffffffffffffffffffffffffffffffffffff1673ffffffffffffffffffffffffffffffffffffffff1681526020019081526020016000206000016003018190806001815401808255809150509060018203906000526020600020016000909192909190916101000a81548173ffffffffffffffffffffffffffffffffffffffff021916908373ffffffffffffffffffffffffffffffffffffffff160217905550506000808273ffffffffffffffffffffffffffffffffffffffff1673ffffffffffffffffffffffffffffffffffffffff1681526020019081526020016000206011018290806001815401808255809150509060018203906000526020600020016000909192909190916101000a81548173ffffffffffffffffffffffffffffffffffffffff021916908373ffffffffffffffffffffffffffffffffffffffff160217905550506000808273ffffffffffffffffffffffffffffffffffffffff1673ffffffffffffffffffffffffffffffffffffffff1681526020019081526020016000206012018190806001815401808255809150509060018203906000526020600020016000909192909190916101000a81548173ffffffffffffffffffffffffffffffffffffffff021916908373ffffffffffffffffffffffffffffffffffffffff160217905550505050565b828054600181600116156101000203166002900490600052602060002090601f016020900481019282601f10614b0a57805160ff1916838001178555614b38565b82800160010185558215614b38579182015b82811115614b37578251825591602001919060010190614b1c565b5b509050614b459190614bd0565b5090565b828054600181600116156101000203166002900490600052602060002090601f016020900481019282601f10614b825780548555614bbf565b82800160010185558215614bbf57600052602060002091601f016020900482015b82811115614bbe578254825591600101919060010190614ba3565b5b509050614bcc9190614bd0565b5090565b614bf291905b80821115614bee576000816000905550600101614bd6565b5090565b9056fea265627a7a7231582088ba6b2b9f4ab98c46cc104194dd6457da4412065cd130db113f9bdcc666aa2664736f6c63430005110032",
  "source": "pragma solidity ^0.5.0;\n\ncontract SimpleStorage {\n    struct Documents {\n        string aadhar;\n        uint8 aadharno;\n        string aadharnoHash;\n    }\n\n    struct PersonalInfo {\n        string name;\n        string propic;\n        string email;\n        string phone;\n    }\n\n    struct Owners {\n        uint8 max;\n        address stud;\n        address inst;\n        mapping(address => PartialOwner) partialowner;\n        address[] listofpartialowner;\n    }\n\n    struct Request {\n        bool stud;\n        bool inst;\n        bool aadhar;\n    }\n\n    struct ApprovalRequest {\n        bool stud;\n        bool inst;\n    }\n\n    struct ChangeOwnerShip {\n        bool stud;\n        bool inst;\n        address studa;\n        address insta;\n        ApprovalRequest approve;\n    }\n\n    struct ChangeOwnerShipInst {\n        bool inst;\n        bool stud;\n        address neinst;\n        address nestud;\n        uint256 timestamp;\n    }\n\n    struct Upload {\n        ApprovalRequest approve;\n        bool aadhar;\n        string aadharhash;\n        uint256 timestamp;\n    }\n\n    struct PartialOwner {\n        bool aadhar;\n        uint256 day;\n        uint256 expiry;\n    }\n\n    struct PartialOwnerRequest {\n        ApprovalRequest approve;\n        uint256 day;\n        bool aadhar;\n    }\n\n    struct MultiSig {\n        Owners owners;\n        Documents doc;\n        PersonalInfo profile;\n        mapping(address => Upload) uploadreq;\n        address[] listofuploadreq;\n        address[] listofchangeowneri;\n        mapping(address => ChangeOwnerShipInst) changeowneri;\n        mapping(address => PartialOwnerRequest) partialowner;\n        address[] listofpartialowner;\n        address[] ihaveaccess;\n        address[] PastOwners;\n    }\n\n    mapping(address => MultiSig) wallets;\n    mapping(address => bool) listofwall;\n    mapping(address => address[]) iminwall;\n    address public j;\n\n    function createNewMultiSigUser(address a) public returns (bool) {\n        wallets[msg.sender].owners.inst = a;\n        wallets[msg.sender].owners.stud = msg.sender;\n        listofwall[msg.sender] = true;\n        iminwall[a].push(msg.sender);\n        return true;\n    }\n\n    constructor() public {}\n\n    function createNewMultiSigInst(address a) public {\n        wallets[msg.sender].owners.stud = a;\n        wallets[msg.sender].owners.inst = msg.sender;\n        listofwall[msg.sender] = true;\n        iminwall[msg.sender].push(a);\n    }\n\n    function doesWalletExists(address a) public view returns (bool) {\n        if (listofwall[a] == true) return true;\n        else return false;\n    }\n\n    function createUploadRequestbyUser(bool ad, string memory hash) public {\n        address inst = wallets[msg.sender].owners.inst;\n        wallets[msg.sender].uploadreq[inst].approve.stud = true;\n        wallets[msg.sender].uploadreq[inst].approve.inst = false;\n        wallets[msg.sender].uploadreq[inst].aadhar = ad;\n        wallets[msg.sender].uploadreq[inst].aadharhash = hash;\n        wallets[msg.sender].listofuploadreq.push(msg.sender);\n        wallets[msg.sender].uploadreq[inst].timestamp = now;\n    }\n\n    function createUploadRequestbyInstitute(\n        address a,\n        bool ad,\n        string memory hash\n    ) public {\n        wallets[a].uploadreq[a].approve.inst = true;\n        wallets[a].uploadreq[a].approve.stud = false;\n        wallets[a].uploadreq[a].aadhar = ad;\n        wallets[a].uploadreq[a].timestamp = now;\n        wallets[a].uploadreq[a].aadharhash = hash;\n        wallets[a].listofuploadreq.push(msg.sender);\n        wallets[a].doc.aadhar = hash;\n    }\n\n    function getUploadReqList(address ad)\n        public\n        view\n        returns (address[] memory)\n    {\n        return wallets[ad].listofuploadreq;\n    }\n\n    function approveUploadbyUser(address ad) public {\n        wallets[msg.sender].uploadreq[ad].approve.stud = true;\n        if (\n            wallets[msg.sender].uploadreq[ad].approve.stud &&\n            wallets[msg.sender].uploadreq[ad].approve.inst\n        ) {\n            wallets[msg.sender].doc.aadhar = wallets[msg.sender]\n                .uploadreq[ad]\n                .aadharhash;\n            delete wallets[msg.sender].listofuploadreq[\n                wallets[msg.sender].listofuploadreq.length - 1\n            ];\n        }\n    }\n\n    function approveUploadbyInstitute(address ad, address student) public returns (bool) {\n        wallets[student].uploadreq[ad].approve.inst = true;\n        if (\n            wallets[student].uploadreq[ad].approve.stud &&\n            wallets[student].uploadreq[ad].approve.inst\n        ) {\n            wallets[student].doc.aadhar = wallets[student]\n                .uploadreq[ad]\n                .aadharhash;\n\n            delete wallets[student].listofuploadreq[\n                wallets[student].listofuploadreq.length - 1\n            ];\n            return true;\n        } else {\n            return false;\n        }\n    }\n\n    function getAadhar(address stud) public view returns (string memory) {\n        return wallets[stud].doc.aadhar;\n    }\n\n    function getOwners(address a) public view returns (address, address) {\n        return (wallets[a].owners.stud, wallets[a].owners.inst);\n    }\n\n    function getInstitutesWallet(address ad)\n        public\n        view\n        returns (address[] memory)\n    {\n        return iminwall[ad];\n    }\n\n    function getInstitutesUploadList(address ad)\n        public\n        view\n        returns (address[] memory)\n    {\n        return wallets[ad].listofuploadreq;\n    }\n\n    function changeOwnerInstfromInst(address stud, address Inst) public {\n        wallets[stud].changeowneri[msg.sender].inst = true;\n        wallets[stud].changeowneri[msg.sender].neinst = Inst;\n        wallets[stud].listofchangeowneri.push(msg.sender);\n        wallets[stud].changeowneri[msg.sender].timestamp = now;\n        wallets[stud].changeowneri[msg.sender].stud = true;\n        wallets[stud].owners.inst = wallets[stud]\n            .changeowneri[msg.sender]\n            .neinst;\n    }\n\n    function changeOwnerInstfromStud(address Inst) public {\n        wallets[msg.sender].changeowneri[msg.sender].stud = true;\n        wallets[msg.sender].changeowneri[msg.sender].neinst = Inst;\n        wallets[msg.sender].listofchangeowneri.push(msg.sender);\n\n        wallets[msg.sender].changeowneri[msg.sender].timestamp = now;\n    }\n\n    function getChangeOwnerList(address a)\n        public\n        view\n        returns (address[] memory)\n    {\n        return wallets[a].listofchangeowneri;\n    }\n\n    function updateProf(\n        string memory name,\n        string memory pro,\n        address my,\n        string memory no,\n        string memory email\n    ) public {\n        wallets[my].profile.name = name;\n        wallets[my].profile.propic = pro;\n        wallets[my].profile.phone = no;\n        wallets[my].profile.email = email;\n    }\n\n    function getProfile(address a)\n        public\n        view\n        returns (string memory, string memory)\n    {\n        return (wallets[a].profile.name, wallets[a].profile.propic);\n    }\n\n    function approveChangeOwnerINSTReqbyStud(address ad) public {\n        wallets[msg.sender].changeowneri[ad].stud = true;\n        if (\n            wallets[msg.sender].changeowneri[ad].stud &&\n            wallets[msg.sender].changeowneri[ad].inst\n        ) {\n            wallets[msg.sender].owners.inst = wallets[msg.sender]\n                .changeowneri[ad]\n                .neinst;\n        }\n    }\n\n    function approveChangeOwnerINSTReqbyInst(address ad, address io) public {\n        wallets[io].changeowneri[ad].inst = true;\n        if (\n            wallets[io].changeowneri[ad].stud &&\n            wallets[io].changeowneri[ad].inst\n        ) {\n            wallets[io].owners.inst = wallets[io].changeowneri[ad].neinst;\n        }\n    }\n\n    function createNewPartialOwnerRequest(\n        address a,\n        bool adhar,\n        uint8 d\n    ) public {\n        wallets[a].partialowner[msg.sender].aadhar = adhar;\n        wallets[a].partialowner[msg.sender].day = d;\n        wallets[a].listofpartialowner.push(msg.sender);\n    }\n\n    function getPartialOwnerShipList(address a)\n        public\n        view\n        returns (address[] memory)\n    {\n        return wallets[a].listofpartialowner;\n    }\n\n    // function approvePartialOwnerReqfromStudent (address reqq) public {\n\n    // wallets[msg.sender].partialowner[reqq].approve.stud=true;\n\n    // if( wallets[msg.sender].partialowner[reqq].approve.stud==true&& wallets[msg.sender].partialowner[reqq].approve.inst==true)\n    //     {\n    //         wallets[msg.sender].owners.partialowner[msg.sender].aadhar=wallets[msg.sender].partialowner[reqq].aadhar;\n\n    //         wallets[msg.sender].owners.partialowner[msg.sender].expiry=now+ wallets[msg.sender].owners.partialowner[msg.sender].day * 1 minutes;\n    //         wallets[msg.sender].owners.listofpartialowner.push(reqq);\n\n    //     }\n\n    // }\n\n    // function approvePartialOwnerReqfromInst (address stud ,address reqq) public {\n\n    //     wallets[stud].partialowner[reqq].approve.inst=true;\n\n    //       wallets[stud].partialowner[reqq].approve.stud=true;\n\n    //          if( wallets[stud].partialowner[reqq].approve.stud==true&& wallets[stud].partialowner[reqq].approve.inst==true)\n    //       {\n\n    //     wallets[stud].owners.partialowner[reqq].aadhar=wallets[stud].partialowner[reqq].aadhar;\n\n    //   uint yuyu= wallets[stud].owners.partialowner[reqq].day ;\n\n    //     wallets[stud].owners.partialowner[reqq].expiry=now+ yuyu *1 minutes;\n    //     wallets[stud].owners.listofpartialowner.push(reqq);\n\n    //           }\n\n    // }\n\n    // function getAadharfromPartialOwner(address  a) public view returns (string memory){\n\n    // address [] memory va=wallets[a].owners.listofpartialowner;\n    // bool flag =false;\n    // for(uint i=0;i<va.length;i++){\n    // if(msg.sender==va[i])\n    // {\n    //  flag=true;\n\n    // }\n\n    // }\n\n    // if(flag==true){\n\n    //     if(wallets[a].owners.partialowner[msg.sender].aadhar==true){\n\n    //         if(wallets[a].owners.partialowner[msg.sender].day<now)\n    //          {\n\n    //              return wallets[a].doc.aadhar;\n\n    //           }\n    //          else {\n    //              return \"Date Expired\";\n    //          }\n\n    //     }else {\n\n    //         return \"error\";\n    //     }\n\n    //     }else {\n    //         return  \"a\";\n    //     }\n\n    // }\n\n    function isIamPartialOwner(address a) public view returns (bool) {\n        address[] memory va = wallets[a].owners.listofpartialowner;\n        bool flag = false;\n        for (uint256 i = 0; i < va.length; i++) {\n            if (msg.sender == va[i]) {\n                flag = true;\n            }\n        }\n\n        return flag;\n    }\n\n    function getPartialOwnerSList(address a)\n        public\n        view\n        returns (address[] memory)\n    {\n        return wallets[a].owners.listofpartialowner;\n    }\n\n    function set() public {\n        wallets[msg.sender].doc.aadhar = \"HHHHHHAAH\";\n    }\n\n    function getPartialOwnerShipINFO(address stud, address paro)\n        public\n        view\n        returns (bool, uint256)\n    {\n        //it returns the expiry date and whether the It Has Request to aadhar or NOt\n        return (\n            wallets[stud].owners.partialowner[paro].aadhar,\n            wallets[stud].owners.partialowner[paro].expiry\n        );\n    }\n\n    function getUploadRequestTIMESTAMP(address stud, address reqq)\n        public\n        view\n        returns (uint256)\n    {\n        return wallets[stud].uploadreq[reqq].timestamp;\n    }\n\n    function getChangeOwnerRequestTIMESTAMP(address stud, address reqq)\n        public\n        view\n        returns (uint256)\n    {\n        return wallets[stud].changeowneri[reqq].timestamp;\n    }\n\n    function setAaadharNo(\n        address a,\n        uint8 qw,\n        string memory io\n    ) public {\n        wallets[a].doc.aadharno = qw;\n        wallets[a].doc.aadharnoHash = io;\n    }\n\n    function createNEwAccess(address stud, address ad) public {\n        wallets[stud].owners.listofpartialowner.push(ad);\n\n        wallets[ad].ihaveaccess.push(stud);\n\n        wallets[ad].PastOwners.push(ad);\n    }\n\n    function getIhaveaAccess(address a) public view returns (address[] memory) {\n        return wallets[a].ihaveaccess;\n    }\n\n    function getUploadReqPic(address stud, address inst)\n        public\n        view\n        returns (string memory)\n    {\n        return wallets[stud].uploadreq[inst].aadharhash;\n    }\n\n    function getPastOwner(address a) public view returns (address[] memory) {\n        return wallets[a].PastOwners;\n    }\n}\n",
  "sourcePath": "/home/shubhankargupta/Documents/BCTIdentity/src/contracts/SimpleStorage.sol",
  "compiler": {
    "name": "solc",
    "version": "0.5.17+commit.d19bba13.Emscripten.clang"
  },
  "schemaVersion": "3.4.4",
  "updatedAt": "2022-01-01T10:34:31.165Z",
  "networkType": "ethereum",
  "devdoc": {
    "methods": {}
  },
  "userdoc": {
    "methods": {}
  }
}