{
  "contractName": "SimpleStorage",
  "abi": [
    {
      "inputs": [],
      "payable": false,
      "stateMutability": "nonpayable",
      "type": "constructor"
    },
    {
      "constant": true,
      "inputs": [],
      "name": "j",
      "outputs": [
        {
          "internalType": "address",
          "name": "",
          "type": "address"
        }
      ],
      "payable": false,
      "stateMutability": "view",
      "type": "function"
    },
    {
      "constant": false,
      "inputs": [
        {
          "internalType": "address",
          "name": "a",
          "type": "address"
        }
      ],
      "name": "createNewMultiSigUser",
      "outputs": [
        {
          "internalType": "bool",
          "name": "",
          "type": "bool"
        }
      ],
      "payable": false,
      "stateMutability": "nonpayable",
      "type": "function"
    },
    {
      "constant": false,
      "inputs": [
        {
          "internalType": "address",
          "name": "a",
          "type": "address"
        }
      ],
      "name": "createNewMultiSigInst",
      "outputs": [],
      "payable": false,
      "stateMutability": "nonpayable",
      "type": "function"
    },
    {
      "constant": true,
      "inputs": [
        {
          "internalType": "address",
          "name": "a",
          "type": "address"
        }
      ],
      "name": "doesWalletExists",
      "outputs": [
        {
          "internalType": "bool",
          "name": "",
          "type": "bool"
        }
      ],
      "payable": false,
      "stateMutability": "view",
      "type": "function"
    },
    {
      "constant": false,
      "inputs": [
        {
          "internalType": "bool",
          "name": "ad",
          "type": "bool"
        },
        {
          "internalType": "string",
          "name": "hash",
          "type": "string"
        }
      ],
      "name": "createUploadRequestbyUser",
      "outputs": [],
      "payable": false,
      "stateMutability": "nonpayable",
      "type": "function"
    },
    {
      "constant": false,
      "inputs": [
        {
          "internalType": "address",
          "name": "a",
          "type": "address"
        },
        {
          "internalType": "bool",
          "name": "ad",
          "type": "bool"
        },
        {
          "internalType": "string",
          "name": "hash",
          "type": "string"
        }
      ],
      "name": "createUploadRequestbyInstitute",
      "outputs": [],
      "payable": false,
      "stateMutability": "nonpayable",
      "type": "function"
    },
    {
      "constant": true,
      "inputs": [
        {
          "internalType": "address",
          "name": "ad",
          "type": "address"
        }
      ],
      "name": "getUploadReqList",
      "outputs": [
        {
          "internalType": "address[]",
          "name": "",
          "type": "address[]"
        }
      ],
      "payable": false,
      "stateMutability": "view",
      "type": "function"
    },
    {
      "constant": false,
      "inputs": [
        {
          "internalType": "address",
          "name": "ad",
          "type": "address"
        }
      ],
      "name": "approveUploadbyUser",
      "outputs": [],
      "payable": false,
      "stateMutability": "nonpayable",
      "type": "function"
    },
    {
      "constant": false,
      "inputs": [
        {
          "internalType": "address",
          "name": "ad",
          "type": "address"
        },
        {
          "internalType": "address",
          "name": "student",
          "type": "address"
        }
      ],
      "name": "approveUploadbyInstitute",
      "outputs": [],
      "payable": false,
      "stateMutability": "nonpayable",
      "type": "function"
    },
    {
      "constant": true,
      "inputs": [
        {
          "internalType": "address",
          "name": "stud",
          "type": "address"
        }
      ],
      "name": "getAadhar",
      "outputs": [
        {
          "internalType": "string",
          "name": "",
          "type": "string"
        }
      ],
      "payable": false,
      "stateMutability": "view",
      "type": "function"
    },
    {
      "constant": true,
      "inputs": [
        {
          "internalType": "address",
          "name": "a",
          "type": "address"
        }
      ],
      "name": "getOwners",
      "outputs": [
        {
          "internalType": "address",
          "name": "",
          "type": "address"
        },
        {
          "internalType": "address",
          "name": "",
          "type": "address"
        }
      ],
      "payable": false,
      "stateMutability": "view",
      "type": "function"
    },
    {
      "constant": true,
      "inputs": [
        {
          "internalType": "address",
          "name": "ad",
          "type": "address"
        }
      ],
      "name": "getInstitutesWallet",
      "outputs": [
        {
          "internalType": "address[]",
          "name": "",
          "type": "address[]"
        }
      ],
      "payable": false,
      "stateMutability": "view",
      "type": "function"
    },
    {
      "constant": true,
      "inputs": [
        {
          "internalType": "address",
          "name": "ad",
          "type": "address"
        }
      ],
      "name": "getInstitutesUploadList",
      "outputs": [
        {
          "internalType": "address[]",
          "name": "",
          "type": "address[]"
        }
      ],
      "payable": false,
      "stateMutability": "view",
      "type": "function"
    },
    {
      "constant": false,
      "inputs": [
        {
          "internalType": "address",
          "name": "stud",
          "type": "address"
        },
        {
          "internalType": "address",
          "name": "Inst",
          "type": "address"
        }
      ],
      "name": "changeOwnerInstfromInst",
      "outputs": [],
      "payable": false,
      "stateMutability": "nonpayable",
      "type": "function"
    },
    {
      "constant": false,
      "inputs": [
        {
          "internalType": "address",
          "name": "Inst",
          "type": "address"
        }
      ],
      "name": "changeOwnerInstfromStud",
      "outputs": [],
      "payable": false,
      "stateMutability": "nonpayable",
      "type": "function"
    },
    {
      "constant": true,
      "inputs": [
        {
          "internalType": "address",
          "name": "a",
          "type": "address"
        }
      ],
      "name": "getChangeOwnerList",
      "outputs": [
        {
          "internalType": "address[]",
          "name": "",
          "type": "address[]"
        }
      ],
      "payable": false,
      "stateMutability": "view",
      "type": "function"
    },
    {
      "constant": false,
      "inputs": [
        {
          "internalType": "string",
          "name": "name",
          "type": "string"
        },
        {
          "internalType": "string",
          "name": "pro",
          "type": "string"
        },
        {
          "internalType": "address",
          "name": "my",
          "type": "address"
        },
        {
          "internalType": "string",
          "name": "no",
          "type": "string"
        },
        {
          "internalType": "string",
          "name": "email",
          "type": "string"
        }
      ],
      "name": "updateProf",
      "outputs": [],
      "payable": false,
      "stateMutability": "nonpayable",
      "type": "function"
    },
    {
      "constant": true,
      "inputs": [
        {
          "internalType": "address",
          "name": "a",
          "type": "address"
        }
      ],
      "name": "getProfile",
      "outputs": [
        {
          "internalType": "string",
          "name": "",
          "type": "string"
        },
        {
          "internalType": "string",
          "name": "",
          "type": "string"
        }
      ],
      "payable": false,
      "stateMutability": "view",
      "type": "function"
    },
    {
      "constant": false,
      "inputs": [
        {
          "internalType": "address",
          "name": "ad",
          "type": "address"
        }
      ],
      "name": "approveChangeOwnerINSTReqbyStud",
      "outputs": [],
      "payable": false,
      "stateMutability": "nonpayable",
      "type": "function"
    },
    {
      "constant": false,
      "inputs": [
        {
          "internalType": "address",
          "name": "ad",
          "type": "address"
        },
        {
          "internalType": "address",
          "name": "io",
          "type": "address"
        }
      ],
      "name": "approveChangeOwnerINSTReqbyInst",
      "outputs": [],
      "payable": false,
      "stateMutability": "nonpayable",
      "type": "function"
    },
    {
      "constant": false,
      "inputs": [
        {
          "internalType": "address",
          "name": "a",
          "type": "address"
        },
        {
          "internalType": "bool",
          "name": "adhar",
          "type": "bool"
        },
        {
          "internalType": "uint8",
          "name": "d",
          "type": "uint8"
        }
      ],
      "name": "createNewPartialOwnerRequest",
      "outputs": [],
      "payable": false,
      "stateMutability": "nonpayable",
      "type": "function"
    },
    {
      "constant": true,
      "inputs": [
        {
          "internalType": "address",
          "name": "a",
          "type": "address"
        }
      ],
      "name": "getPartialOwnerShipList",
      "outputs": [
        {
          "internalType": "address[]",
          "name": "",
          "type": "address[]"
        }
      ],
      "payable": false,
      "stateMutability": "view",
      "type": "function"
    },
    {
      "constant": true,
      "inputs": [
        {
          "internalType": "address",
          "name": "a",
          "type": "address"
        }
      ],
      "name": "isIamPartialOwner",
      "outputs": [
        {
          "internalType": "bool",
          "name": "",
          "type": "bool"
        }
      ],
      "payable": false,
      "stateMutability": "view",
      "type": "function"
    },
    {
      "constant": true,
      "inputs": [
        {
          "internalType": "address",
          "name": "a",
          "type": "address"
        }
      ],
      "name": "getPartialOwnerSList",
      "outputs": [
        {
          "internalType": "address[]",
          "name": "",
          "type": "address[]"
        }
      ],
      "payable": false,
      "stateMutability": "view",
      "type": "function"
    },
    {
      "constant": false,
      "inputs": [],
      "name": "set",
      "outputs": [],
      "payable": false,
      "stateMutability": "nonpayable",
      "type": "function"
    },
    {
      "constant": true,
      "inputs": [
        {
          "internalType": "address",
          "name": "stud",
          "type": "address"
        },
        {
          "internalType": "address",
          "name": "paro",
          "type": "address"
        }
      ],
      "name": "getPartialOwnerShipINFO",
      "outputs": [
        {
          "internalType": "bool",
          "name": "",
          "type": "bool"
        },
        {
          "internalType": "uint256",
          "name": "",
          "type": "uint256"
        }
      ],
      "payable": false,
      "stateMutability": "view",
      "type": "function"
    },
    {
      "constant": true,
      "inputs": [
        {
          "internalType": "address",
          "name": "stud",
          "type": "address"
        },
        {
          "internalType": "address",
          "name": "reqq",
          "type": "address"
        }
      ],
      "name": "getUploadRequestTIMESTAMP",
      "outputs": [
        {
          "internalType": "uint256",
          "name": "",
          "type": "uint256"
        }
      ],
      "payable": false,
      "stateMutability": "view",
      "type": "function"
    },
    {
      "constant": true,
      "inputs": [
        {
          "internalType": "address",
          "name": "stud",
          "type": "address"
        },
        {
          "internalType": "address",
          "name": "reqq",
          "type": "address"
        }
      ],
      "name": "getChangeOwnerRequestTIMESTAMP",
      "outputs": [
        {
          "internalType": "uint256",
          "name": "",
          "type": "uint256"
        }
      ],
      "payable": false,
      "stateMutability": "view",
      "type": "function"
    },
    {
      "constant": false,
      "inputs": [
        {
          "internalType": "address",
          "name": "a",
          "type": "address"
        },
        {
          "internalType": "uint8",
          "name": "qw",
          "type": "uint8"
        },
        {
          "internalType": "string",
          "name": "io",
          "type": "string"
        }
      ],
      "name": "setAaadharNo",
      "outputs": [],
      "payable": false,
      "stateMutability": "nonpayable",
      "type": "function"
    },
    {
      "constant": false,
      "inputs": [
        {
          "internalType": "address",
          "name": "stud",
          "type": "address"
        },
        {
          "internalType": "address",
          "name": "ad",
          "type": "address"
        }
      ],
      "name": "createNEwAccess",
      "outputs": [],
      "payable": false,
      "stateMutability": "nonpayable",
      "type": "function"
    },
    {
      "constant": true,
      "inputs": [
        {
          "internalType": "address",
          "name": "a",
          "type": "address"
        }
      ],
      "name": "getIhaveaAccess",
      "outputs": [
        {
          "internalType": "address[]",
          "name": "",
          "type": "address[]"
        }
      ],
      "payable": false,
      "stateMutability": "view",
      "type": "function"
    },
    {
      "constant": true,
      "inputs": [
        {
          "internalType": "address",
          "name": "stud",
          "type": "address"
        },
        {
          "internalType": "address",
          "name": "inst",
          "type": "address"
        }
      ],
      "name": "getUploadReqPic",
      "outputs": [
        {
          "internalType": "string",
          "name": "",
          "type": "string"
        }
      ],
      "payable": false,
      "stateMutability": "view",
      "type": "function"
    },
    {
      "constant": true,
      "inputs": [
        {
          "internalType": "address",
          "name": "a",
          "type": "address"
        }
      ],
      "name": "getPastOwner",
      "outputs": [
        {
          "internalType": "address[]",
          "name": "",
          "type": "address[]"
        }
      ],
      "payable": false,
      "stateMutability": "view",
      "type": "function"
    }
  ],
  "bytecode": "0x608060405234801561001057600080fd5b50614c01806100206000396000f3fe608060405234801561001057600080fd5b50600436106101fb5760003560e01c80637a17dab51161011a578063cdb2b1f1116100ad578063f9cdf62b1161007c578063f9cdf62b146112c0578063fa271d8014611359578063fb9e0ac9146113d1578063fd8b84b114611435578063fe2dc83c146114ec576101fb565b8063cdb2b1f1146110d5578063d5808aa014611132578063d88997f7146111cb578063e5f91f7114611264576101fb565b8063b533c202116100e9578063b533c20214610d48578063b582ec5f14610de1578063b8e010de14610e2b578063c1b14dcb14610e35576101fb565b80637a17dab514610aea57806384320a3f14610b8357806388839eb114610bc7578063989bb9ff14610caf576101fb565b806347e4ab251161019257806367ddb8641161016157806367ddb864146108d457806367fa04cb146109305780636b061c24146109ed5780636d30a0be14610a51576101fb565b806347e4ab251461066357806365e69686146106e657806367973e5c1461077f578063679a6f791461085c576101fb565b80632aebaf40116101ce5780632aebaf401461049857806332584da91461057f57806333b62877146105c35780633b2b0d341461061f576101fb565b80630e8ab506146102005780630f53a470146102445780631dbcc0311461036d57806320a38c5f146103d1575b600080fd5b6102426004803603602081101561021657600080fd5b81019080803573ffffffffffffffffffffffffffffffffffffffff169060200190929190505050611550565b005b6102866004803603602081101561025a57600080fd5b81019080803573ffffffffffffffffffffffffffffffffffffffff16906020019092919050505061183d565b604051808060200180602001838103835285818151815260200191508051906020019080838360005b838110156102ca5780820151818401526020810190506102af565b50505050905090810190601f1680156102f75780820380516001836020036101000a031916815260200191505b50838103825284818151815260200191508051906020019080838360005b83811015610330578082015181840152602081019050610315565b50505050905090810190601f16801561035d5780820380516001836020036101000a031916815260200191505b5094505050505060405180910390f35b6103cf6004803603604081101561038357600080fd5b81019080803573ffffffffffffffffffffffffffffffffffffffff169060200190929190803573ffffffffffffffffffffffffffffffffffffffff169060200190929190505050611a09565b005b610496600480360360408110156103e757600080fd5b810190808035151590602001909291908035906020019064010000000081111561041057600080fd5b82018360208201111561042257600080fd5b8035906020019184600183028401116401000000008311171561044457600080fd5b91908080601f016020809104026020016040519081016040528093929190818152602001838380828437600081840152601f19601f820116905080830192505050505050509192919290505050611e50565b005b61057d600480360360608110156104ae57600080fd5b81019080803573ffffffffffffffffffffffffffffffffffffffff169060200190929190803515159060200190929190803590602001906401000000008111156104f757600080fd5b82018360208201111561050957600080fd5b8035906020019184600183028401116401000000008311171561052b57600080fd5b91908080601f016020809104026020016040519081016040528093929190818152602001838380828437600081840152601f19601f820116905080830192505050505050509192919290505050612252565b005b6105c16004803603602081101561059557600080fd5b81019080803573ffffffffffffffffffffffffffffffffffffffff169060200190929190505050612644565b005b610605600480360360208110156105d957600080fd5b81019080803573ffffffffffffffffffffffffffffffffffffffff1690602001909291905050506128cc565b604051808215151515815260200191505060405180910390f35b6106616004803603602081101561063557600080fd5b81019080803573ffffffffffffffffffffffffffffffffffffffff16906020019092919050505061293a565b005b6106c56004803603604081101561067957600080fd5b81019080803573ffffffffffffffffffffffffffffffffffffffff169060200190929190803573ffffffffffffffffffffffffffffffffffffffff169060200190929190505050612cb1565b60405180831515151581526020018281526020019250505060405180910390f35b610728600480360360208110156106fc57600080fd5b81019080803573ffffffffffffffffffffffffffffffffffffffff169060200190929190505050612dd6565b6040518080602001828103825283818151815260200191508051906020019060200280838360005b8381101561076b578082015181840152602081019050610750565b505050509050019250505060405180910390f35b6107e16004803603604081101561079557600080fd5b81019080803573ffffffffffffffffffffffffffffffffffffffff169060200190929190803573ffffffffffffffffffffffffffffffffffffffff169060200190929190505050612ea5565b6040518080602001828103825283818151815260200191508051906020019080838360005b83811015610821578082015181840152602081019050610806565b50505050905090810190601f16801561084e5780820380516001836020036101000a031916815260200191505b509250505060405180910390f35b6108be6004803603604081101561087257600080fd5b81019080803573ffffffffffffffffffffffffffffffffffffffff169060200190929190803573ffffffffffffffffffffffffffffffffffffffff169060200190929190505050612fc9565b6040518082815260200191505060405180910390f35b610916600480360360208110156108ea57600080fd5b81019080803573ffffffffffffffffffffffffffffffffffffffff169060200190929190505050613055565b604051808215151515815260200191505060405180910390f35b6109726004803603602081101561094657600080fd5b81019080803573ffffffffffffffffffffffffffffffffffffffff169060200190929190505050613260565b6040518080602001828103825283818151815260200191508051906020019080838360005b838110156109b2578082015181840152602081019050610997565b50505050905090810190601f1680156109df5780820380516001836020036101000a031916815260200191505b509250505060405180910390f35b610a4f60048036036040811015610a0357600080fd5b81019080803573ffffffffffffffffffffffffffffffffffffffff169060200190929190803573ffffffffffffffffffffffffffffffffffffffff169060200190929190505050613346565b005b610a9360048036036020811015610a6757600080fd5b81019080803573ffffffffffffffffffffffffffffffffffffffff1690602001909291905050506136be565b6040518080602001828103825283818151815260200191508051906020019060200280838360005b83811015610ad6578082015181840152602081019050610abb565b505050509050019250505060405180910390f35b610b2c60048036036020811015610b0057600080fd5b81019080803573ffffffffffffffffffffffffffffffffffffffff16906020019092919050505061378d565b6040518080602001828103825283818151815260200191508051906020019060200280838360005b83811015610b6f578082015181840152602081019050610b54565b505050509050019250505060405180910390f35b610bc560048036036020811015610b9957600080fd5b81019080803573ffffffffffffffffffffffffffffffffffffffff16906020019092919050505061385c565b005b610cad60048036036060811015610bdd57600080fd5b81019080803573ffffffffffffffffffffffffffffffffffffffff169060200190929190803560ff16906020019092919080359060200190640100000000811115610c2757600080fd5b820183602082011115610c3957600080fd5b80359060200191846001830284011164010000000083111715610c5b57600080fd5b91908080601f016020809104026020016040519081016040528093929190818152602001838380828437600081840152601f19601f820116905080830192505050505050509192919290505050613a5f565b005b610cf160048036036020811015610cc557600080fd5b81019080803573ffffffffffffffffffffffffffffffffffffffff169060200190929190505050613b1a565b6040518080602001828103825283818151815260200191508051906020019060200280838360005b83811015610d34578082015181840152602081019050610d19565b505050509050019250505060405180910390f35b610d8a60048036036020811015610d5e57600080fd5b81019080803573ffffffffffffffffffffffffffffffffffffffff169060200190929190505050613bec565b6040518080602001828103825283818151815260200191508051906020019060200280838360005b83811015610dcd578082015181840152602081019050610db2565b505050509050019250505060405180910390f35b610de9613cbb565b604051808273ffffffffffffffffffffffffffffffffffffffff1673ffffffffffffffffffffffffffffffffffffffff16815260200191505060405180910390f35b610e33613ce1565b005b6110d3600480360360a0811015610e4b57600080fd5b8101908080359060200190640100000000811115610e6857600080fd5b820183602082011115610e7a57600080fd5b80359060200191846001830284011164010000000083111715610e9c57600080fd5b91908080601f016020809104026020016040519081016040528093929190818152602001838380828437600081840152601f19601f82011690508083019250505050505050919291929080359060200190640100000000811115610eff57600080fd5b820183602082011115610f1157600080fd5b80359060200191846001830284011164010000000083111715610f3357600080fd5b91908080601f016020809104026020016040519081016040528093929190818152602001838380828437600081840152601f19601f820116905080830192505050505050509192919290803573ffffffffffffffffffffffffffffffffffffffff16906020019092919080359060200190640100000000811115610fb657600080fd5b820183602082011115610fc857600080fd5b80359060200191846001830284011164010000000083111715610fea57600080fd5b91908080601f016020809104026020016040519081016040528093929190818152602001838380828437600081840152601f19601f8201169050808301925050505050505091929192908035906020019064010000000081111561104d57600080fd5b82018360208201111561105f57600080fd5b8035906020019184600183028401116401000000008311171561108157600080fd5b91908080601f016020809104026020016040519081016040528093929190818152602001838380828437600081840152601f19601f820116905080830192505050505050509192919290505050613d71565b005b611130600480360360608110156110eb57600080fd5b81019080803573ffffffffffffffffffffffffffffffffffffffff169060200190929190803515159060200190929190803560ff169060200190929190505050613edc565b005b6111746004803603602081101561114857600080fd5b81019080803573ffffffffffffffffffffffffffffffffffffffff1690602001909291905050506140a8565b6040518080602001828103825283818151815260200191508051906020019060200280838360005b838110156111b757808201518184015260208101905061119c565b505050509050019250505060405180910390f35b61120d600480360360208110156111e157600080fd5b81019080803573ffffffffffffffffffffffffffffffffffffffff169060200190929190505050614175565b6040518080602001828103825283818151815260200191508051906020019060200280838360005b83811015611250578082015181840152602081019050611235565b505050509050019250505060405180910390f35b6112a66004803603602081101561127a57600080fd5b81019080803573ffffffffffffffffffffffffffffffffffffffff169060200190929190505050614244565b604051808215151515815260200191505060405180910390f35b611302600480360360208110156112d657600080fd5b81019080803573ffffffffffffffffffffffffffffffffffffffff16906020019092919050505061438b565b6040518080602001828103825283818151815260200191508051906020019060200280838360005b8381101561134557808201518184015260208101905061132a565b505050509050019250505060405180910390f35b6113bb6004803603604081101561136f57600080fd5b81019080803573ffffffffffffffffffffffffffffffffffffffff169060200190929190803573ffffffffffffffffffffffffffffffffffffffff16906020019092919050505061445a565b6040518082815260200191505060405180910390f35b611433600480360360408110156113e757600080fd5b81019080803573ffffffffffffffffffffffffffffffffffffffff169060200190929190803573ffffffffffffffffffffffffffffffffffffffff1690602001909291905050506144e6565b005b6114776004803603602081101561144b57600080fd5b81019080803573ffffffffffffffffffffffffffffffffffffffff1690602001909291905050506147d4565b604051808373ffffffffffffffffffffffffffffffffffffffff1673ffffffffffffffffffffffffffffffffffffffff1681526020018273ffffffffffffffffffffffffffffffffffffffff1673ffffffffffffffffffffffffffffffffffffffff1681526020019250505060405180910390f35b61154e6004803603604081101561150257600080fd5b81019080803573ffffffffffffffffffffffffffffffffffffffff169060200190929190803573ffffffffffffffffffffffffffffffffffffffff1690602001909291905050506148aa565b005b60016000803373ffffffffffffffffffffffffffffffffffffffff1673ffffffffffffffffffffffffffffffffffffffff168152602001908152602001600020600e0160008373ffffffffffffffffffffffffffffffffffffffff1673ffffffffffffffffffffffffffffffffffffffff16815260200190815260200160002060000160016101000a81548160ff0219169083151502179055506000803373ffffffffffffffffffffffffffffffffffffffff1673ffffffffffffffffffffffffffffffffffffffff168152602001908152602001600020600e0160008273ffffffffffffffffffffffffffffffffffffffff1673ffffffffffffffffffffffffffffffffffffffff16815260200190815260200160002060000160019054906101000a900460ff16801561171057506000803373ffffffffffffffffffffffffffffffffffffffff1673ffffffffffffffffffffffffffffffffffffffff168152602001908152602001600020600e0160008273ffffffffffffffffffffffffffffffffffffffff1673ffffffffffffffffffffffffffffffffffffffff16815260200190815260200160002060000160009054906101000a900460ff165b1561183a576000803373ffffffffffffffffffffffffffffffffffffffff1673ffffffffffffffffffffffffffffffffffffffff168152602001908152602001600020600e0160008273ffffffffffffffffffffffffffffffffffffffff1673ffffffffffffffffffffffffffffffffffffffff16815260200190815260200160002060000160029054906101000a900473ffffffffffffffffffffffffffffffffffffffff166000803373ffffffffffffffffffffffffffffffffffffffff1673ffffffffffffffffffffffffffffffffffffffff16815260200190815260200160002060000160010160006101000a81548173ffffffffffffffffffffffffffffffffffffffff021916908373ffffffffffffffffffffffffffffffffffffffff1602179055505b50565b6060806000808473ffffffffffffffffffffffffffffffffffffffff1673ffffffffffffffffffffffffffffffffffffffff1681526020019081526020016000206007016000016000808573ffffffffffffffffffffffffffffffffffffffff1673ffffffffffffffffffffffffffffffffffffffff168152602001908152602001600020600701600101818054600181600116156101000203166002900480601f01602080910402602001604051908101604052809291908181526020018280546001816001161561010002031660029004801561195d5780601f106119325761010080835404028352916020019161195d565b820191906000526020600020905b81548152906001019060200180831161194057829003601f168201915b50505050509150808054600181600116156101000203166002900480601f0160208091040260200160405190810160405280929190818152602001828054600181600116156101000203166002900480156119f95780601f106119ce576101008083540402835291602001916119f9565b820191906000526020600020905b8154815290600101906020018083116119dc57829003601f168201915b5050505050905091509150915091565b60016000808473ffffffffffffffffffffffffffffffffffffffff1673ffffffffffffffffffffffffffffffffffffffff168152602001908152602001600020600e0160003373ffffffffffffffffffffffffffffffffffffffff1673ffffffffffffffffffffffffffffffffffffffff16815260200190815260200160002060000160006101000a81548160ff021916908315150217905550806000808473ffffffffffffffffffffffffffffffffffffffff1673ffffffffffffffffffffffffffffffffffffffff168152602001908152602001600020600e0160003373ffffffffffffffffffffffffffffffffffffffff1673ffffffffffffffffffffffffffffffffffffffff16815260200190815260200160002060000160026101000a81548173ffffffffffffffffffffffffffffffffffffffff021916908373ffffffffffffffffffffffffffffffffffffffff1602179055506000808373ffffffffffffffffffffffffffffffffffffffff1673ffffffffffffffffffffffffffffffffffffffff168152602001908152602001600020600d013390806001815401808255809150509060018203906000526020600020016000909192909190916101000a81548173ffffffffffffffffffffffffffffffffffffffff021916908373ffffffffffffffffffffffffffffffffffffffff16021790555050426000808473ffffffffffffffffffffffffffffffffffffffff1673ffffffffffffffffffffffffffffffffffffffff168152602001908152602001600020600e0160003373ffffffffffffffffffffffffffffffffffffffff1673ffffffffffffffffffffffffffffffffffffffff1681526020019081526020016000206002018190555060016000808473ffffffffffffffffffffffffffffffffffffffff1673ffffffffffffffffffffffffffffffffffffffff168152602001908152602001600020600e0160003373ffffffffffffffffffffffffffffffffffffffff1673ffffffffffffffffffffffffffffffffffffffff16815260200190815260200160002060000160016101000a81548160ff0219169083151502179055506000808373ffffffffffffffffffffffffffffffffffffffff1673ffffffffffffffffffffffffffffffffffffffff168152602001908152602001600020600e0160003373ffffffffffffffffffffffffffffffffffffffff1673ffffffffffffffffffffffffffffffffffffffff16815260200190815260200160002060000160029054906101000a900473ffffffffffffffffffffffffffffffffffffffff166000808473ffffffffffffffffffffffffffffffffffffffff1673ffffffffffffffffffffffffffffffffffffffff16815260200190815260200160002060000160010160006101000a81548173ffffffffffffffffffffffffffffffffffffffff021916908373ffffffffffffffffffffffffffffffffffffffff1602179055505050565b60008060003373ffffffffffffffffffffffffffffffffffffffff1673ffffffffffffffffffffffffffffffffffffffff16815260200190815260200160002060000160010160009054906101000a900473ffffffffffffffffffffffffffffffffffffffff16905060016000803373ffffffffffffffffffffffffffffffffffffffff1673ffffffffffffffffffffffffffffffffffffffff168152602001908152602001600020600b0160008373ffffffffffffffffffffffffffffffffffffffff1673ffffffffffffffffffffffffffffffffffffffff16815260200190815260200160002060000160000160006101000a81548160ff02191690831515021790555060008060003373ffffffffffffffffffffffffffffffffffffffff1673ffffffffffffffffffffffffffffffffffffffff168152602001908152602001600020600b0160008373ffffffffffffffffffffffffffffffffffffffff1673ffffffffffffffffffffffffffffffffffffffff16815260200190815260200160002060000160000160016101000a81548160ff021916908315150217905550826000803373ffffffffffffffffffffffffffffffffffffffff1673ffffffffffffffffffffffffffffffffffffffff168152602001908152602001600020600b0160008373ffffffffffffffffffffffffffffffffffffffff1673ffffffffffffffffffffffffffffffffffffffff16815260200190815260200160002060010160006101000a81548160ff021916908315150217905550816000803373ffffffffffffffffffffffffffffffffffffffff1673ffffffffffffffffffffffffffffffffffffffff168152602001908152602001600020600b0160008373ffffffffffffffffffffffffffffffffffffffff1673ffffffffffffffffffffffffffffffffffffffff1681526020019081526020016000206002019080519060200190612121929190614aa0565b506000803373ffffffffffffffffffffffffffffffffffffffff1673ffffffffffffffffffffffffffffffffffffffff168152602001908152602001600020600c013390806001815401808255809150509060018203906000526020600020016000909192909190916101000a81548173ffffffffffffffffffffffffffffffffffffffff021916908373ffffffffffffffffffffffffffffffffffffffff16021790555050426000803373ffffffffffffffffffffffffffffffffffffffff1673ffffffffffffffffffffffffffffffffffffffff168152602001908152602001600020600b0160008373ffffffffffffffffffffffffffffffffffffffff1673ffffffffffffffffffffffffffffffffffffffff16815260200190815260200160002060030181905550505050565b60016000808573ffffffffffffffffffffffffffffffffffffffff1673ffffffffffffffffffffffffffffffffffffffff168152602001908152602001600020600b0160008573ffffffffffffffffffffffffffffffffffffffff1673ffffffffffffffffffffffffffffffffffffffff16815260200190815260200160002060000160000160016101000a81548160ff02191690831515021790555060008060008573ffffffffffffffffffffffffffffffffffffffff1673ffffffffffffffffffffffffffffffffffffffff168152602001908152602001600020600b0160008573ffffffffffffffffffffffffffffffffffffffff1673ffffffffffffffffffffffffffffffffffffffff16815260200190815260200160002060000160000160006101000a81548160ff021916908315150217905550816000808573ffffffffffffffffffffffffffffffffffffffff1673ffffffffffffffffffffffffffffffffffffffff168152602001908152602001600020600b0160008573ffffffffffffffffffffffffffffffffffffffff1673ffffffffffffffffffffffffffffffffffffffff16815260200190815260200160002060010160006101000a81548160ff021916908315150217905550426000808573ffffffffffffffffffffffffffffffffffffffff1673ffffffffffffffffffffffffffffffffffffffff168152602001908152602001600020600b0160008573ffffffffffffffffffffffffffffffffffffffff1673ffffffffffffffffffffffffffffffffffffffff16815260200190815260200160002060030181905550806000808573ffffffffffffffffffffffffffffffffffffffff1673ffffffffffffffffffffffffffffffffffffffff168152602001908152602001600020600b0160008573ffffffffffffffffffffffffffffffffffffffff1673ffffffffffffffffffffffffffffffffffffffff1681526020019081526020016000206002019080519060200190612540929190614aa0565b506000808473ffffffffffffffffffffffffffffffffffffffff1673ffffffffffffffffffffffffffffffffffffffff168152602001908152602001600020600c013390806001815401808255809150509060018203906000526020600020016000909192909190916101000a81548173ffffffffffffffffffffffffffffffffffffffff021916908373ffffffffffffffffffffffffffffffffffffffff16021790555050806000808573ffffffffffffffffffffffffffffffffffffffff1673ffffffffffffffffffffffffffffffffffffffff168152602001908152602001600020600401600001908051906020019061263e929190614aa0565b50505050565b60016000803373ffffffffffffffffffffffffffffffffffffffff1673ffffffffffffffffffffffffffffffffffffffff168152602001908152602001600020600e0160003373ffffffffffffffffffffffffffffffffffffffff1673ffffffffffffffffffffffffffffffffffffffff16815260200190815260200160002060000160016101000a81548160ff021916908315150217905550806000803373ffffffffffffffffffffffffffffffffffffffff1673ffffffffffffffffffffffffffffffffffffffff168152602001908152602001600020600e0160003373ffffffffffffffffffffffffffffffffffffffff1673ffffffffffffffffffffffffffffffffffffffff16815260200190815260200160002060000160026101000a81548173ffffffffffffffffffffffffffffffffffffffff021916908373ffffffffffffffffffffffffffffffffffffffff1602179055506000803373ffffffffffffffffffffffffffffffffffffffff1673ffffffffffffffffffffffffffffffffffffffff168152602001908152602001600020600d013390806001815401808255809150509060018203906000526020600020016000909192909190916101000a81548173ffffffffffffffffffffffffffffffffffffffff021916908373ffffffffffffffffffffffffffffffffffffffff16021790555050426000803373ffffffffffffffffffffffffffffffffffffffff1673ffffffffffffffffffffffffffffffffffffffff168152602001908152602001600020600e0160003373ffffffffffffffffffffffffffffffffffffffff1673ffffffffffffffffffffffffffffffffffffffff1681526020019081526020016000206002018190555050565b600060011515600160008473ffffffffffffffffffffffffffffffffffffffff1673ffffffffffffffffffffffffffffffffffffffff16815260200190815260200160002060009054906101000a900460ff16151514156129305760019050612935565b600090505b919050565b60016000803373ffffffffffffffffffffffffffffffffffffffff1673ffffffffffffffffffffffffffffffffffffffff168152602001908152602001600020600b0160008373ffffffffffffffffffffffffffffffffffffffff1673ffffffffffffffffffffffffffffffffffffffff16815260200190815260200160002060000160000160006101000a81548160ff0219169083151502179055506000803373ffffffffffffffffffffffffffffffffffffffff1673ffffffffffffffffffffffffffffffffffffffff168152602001908152602001600020600b0160008273ffffffffffffffffffffffffffffffffffffffff1673ffffffffffffffffffffffffffffffffffffffff16815260200190815260200160002060000160000160009054906101000a900460ff168015612b0357506000803373ffffffffffffffffffffffffffffffffffffffff1673ffffffffffffffffffffffffffffffffffffffff168152602001908152602001600020600b0160008273ffffffffffffffffffffffffffffffffffffffff1673ffffffffffffffffffffffffffffffffffffffff16815260200190815260200160002060000160000160019054906101000a900460ff165b15612cae576000803373ffffffffffffffffffffffffffffffffffffffff1673ffffffffffffffffffffffffffffffffffffffff168152602001908152602001600020600b0160008273ffffffffffffffffffffffffffffffffffffffff1673ffffffffffffffffffffffffffffffffffffffff1681526020019081526020016000206002016000803373ffffffffffffffffffffffffffffffffffffffff1673ffffffffffffffffffffffffffffffffffffffff1681526020019081526020016000206004016000019080546001816001161561010002031660029004612bec929190614b20565b506000803373ffffffffffffffffffffffffffffffffffffffff1673ffffffffffffffffffffffffffffffffffffffff168152602001908152602001600020600c0160016000803373ffffffffffffffffffffffffffffffffffffffff1673ffffffffffffffffffffffffffffffffffffffff168152602001908152602001600020600c01805490500381548110612c8057fe5b9060005260206000200160006101000a81549073ffffffffffffffffffffffffffffffffffffffff02191690555b50565b6000806000808573ffffffffffffffffffffffffffffffffffffffff1673ffffffffffffffffffffffffffffffffffffffff16815260200190815260200160002060000160020160008473ffffffffffffffffffffffffffffffffffffffff1673ffffffffffffffffffffffffffffffffffffffff16815260200190815260200160002060000160009054906101000a900460ff166000808673ffffffffffffffffffffffffffffffffffffffff1673ffffffffffffffffffffffffffffffffffffffff16815260200190815260200160002060000160020160008573ffffffffffffffffffffffffffffffffffffffff1673ffffffffffffffffffffffffffffffffffffffff16815260200190815260200160002060020154915091509250929050565b60606000808373ffffffffffffffffffffffffffffffffffffffff1673ffffffffffffffffffffffffffffffffffffffff168152602001908152602001600020600c01805480602002602001604051908101604052809291908181526020018280548015612e9957602002820191906000526020600020905b8160009054906101000a900473ffffffffffffffffffffffffffffffffffffffff1673ffffffffffffffffffffffffffffffffffffffff1681526020019060010190808311612e4f575b50505050509050919050565b60606000808473ffffffffffffffffffffffffffffffffffffffff1673ffffffffffffffffffffffffffffffffffffffff168152602001908152602001600020600b0160008373ffffffffffffffffffffffffffffffffffffffff1673ffffffffffffffffffffffffffffffffffffffff1681526020019081526020016000206002018054600181600116156101000203166002900480601f016020809104026020016040519081016040528092919081815260200182805460018160011615610100020316600290048015612fbc5780601f10612f9157610100808354040283529160200191612fbc565b820191906000526020600020905b815481529060010190602001808311612f9f57829003601f168201915b5050505050905092915050565b60008060008473ffffffffffffffffffffffffffffffffffffffff1673ffffffffffffffffffffffffffffffffffffffff168152602001908152602001600020600b0160008373ffffffffffffffffffffffffffffffffffffffff1673ffffffffffffffffffffffffffffffffffffffff16815260200190815260200160002060030154905092915050565b6000816000803373ffffffffffffffffffffffffffffffffffffffff1673ffffffffffffffffffffffffffffffffffffffff16815260200190815260200160002060000160010160006101000a81548173ffffffffffffffffffffffffffffffffffffffff021916908373ffffffffffffffffffffffffffffffffffffffff160217905550336000803373ffffffffffffffffffffffffffffffffffffffff1673ffffffffffffffffffffffffffffffffffffffff16815260200190815260200160002060000160000160016101000a81548173ffffffffffffffffffffffffffffffffffffffff021916908373ffffffffffffffffffffffffffffffffffffffff16021790555060018060003373ffffffffffffffffffffffffffffffffffffffff1673ffffffffffffffffffffffffffffffffffffffff16815260200190815260200160002060006101000a81548160ff021916908315150217905550600260008373ffffffffffffffffffffffffffffffffffffffff1673ffffffffffffffffffffffffffffffffffffffff1681526020019081526020016000203390806001815401808255809150509060018203906000526020600020016000909192909190916101000a81548173ffffffffffffffffffffffffffffffffffffffff021916908373ffffffffffffffffffffffffffffffffffffffff1602179055505060019050919050565b60606000808373ffffffffffffffffffffffffffffffffffffffff1673ffffffffffffffffffffffffffffffffffffffff1681526020019081526020016000206004016000018054600181600116156101000203166002900480601f01602080910402602001604051908101604052809291908181526020018280546001816001161561010002031660029004801561333a5780601f1061330f5761010080835404028352916020019161333a565b820191906000526020600020905b81548152906001019060200180831161331d57829003601f168201915b50505050509050919050565b60016000808373ffffffffffffffffffffffffffffffffffffffff1673ffffffffffffffffffffffffffffffffffffffff168152602001908152602001600020600b0160008473ffffffffffffffffffffffffffffffffffffffff1673ffffffffffffffffffffffffffffffffffffffff16815260200190815260200160002060000160000160016101000a81548160ff0219169083151502179055506000808273ffffffffffffffffffffffffffffffffffffffff1673ffffffffffffffffffffffffffffffffffffffff168152602001908152602001600020600b0160008373ffffffffffffffffffffffffffffffffffffffff1673ffffffffffffffffffffffffffffffffffffffff16815260200190815260200160002060000160000160009054906101000a900460ff16801561350f57506000808273ffffffffffffffffffffffffffffffffffffffff1673ffffffffffffffffffffffffffffffffffffffff168152602001908152602001600020600b0160008373ffffffffffffffffffffffffffffffffffffffff1673ffffffffffffffffffffffffffffffffffffffff16815260200190815260200160002060000160000160019054906101000a900460ff165b156136ba576000808273ffffffffffffffffffffffffffffffffffffffff1673ffffffffffffffffffffffffffffffffffffffff168152602001908152602001600020600b0160008373ffffffffffffffffffffffffffffffffffffffff1673ffffffffffffffffffffffffffffffffffffffff1681526020019081526020016000206002016000808373ffffffffffffffffffffffffffffffffffffffff1673ffffffffffffffffffffffffffffffffffffffff16815260200190815260200160002060040160000190805460018160011615610100020316600290046135f8929190614b20565b506000808373ffffffffffffffffffffffffffffffffffffffff1673ffffffffffffffffffffffffffffffffffffffff168152602001908152602001600020600c0160016000808573ffffffffffffffffffffffffffffffffffffffff1673ffffffffffffffffffffffffffffffffffffffff168152602001908152602001600020600c0180549050038154811061368c57fe5b9060005260206000200160006101000a81549073ffffffffffffffffffffffffffffffffffffffff02191690555b5050565b60606000808373ffffffffffffffffffffffffffffffffffffffff1673ffffffffffffffffffffffffffffffffffffffff16815260200190815260200160002060120180548060200260200160405190810160405280929190818152602001828054801561378157602002820191906000526020600020905b8160009054906101000a900473ffffffffffffffffffffffffffffffffffffffff1673ffffffffffffffffffffffffffffffffffffffff1681526020019060010190808311613737575b50505050509050919050565b60606000808373ffffffffffffffffffffffffffffffffffffffff1673ffffffffffffffffffffffffffffffffffffffff168152602001908152602001600020600d0180548060200260200160405190810160405280929190818152602001828054801561385057602002820191906000526020600020905b8160009054906101000a900473ffffffffffffffffffffffffffffffffffffffff1673ffffffffffffffffffffffffffffffffffffffff1681526020019060010190808311613806575b50505050509050919050565b806000803373ffffffffffffffffffffffffffffffffffffffff1673ffffffffffffffffffffffffffffffffffffffff16815260200190815260200160002060000160000160016101000a81548173ffffffffffffffffffffffffffffffffffffffff021916908373ffffffffffffffffffffffffffffffffffffffff160217905550336000803373ffffffffffffffffffffffffffffffffffffffff1673ffffffffffffffffffffffffffffffffffffffff16815260200190815260200160002060000160010160006101000a81548173ffffffffffffffffffffffffffffffffffffffff021916908373ffffffffffffffffffffffffffffffffffffffff16021790555060018060003373ffffffffffffffffffffffffffffffffffffffff1673ffffffffffffffffffffffffffffffffffffffff16815260200190815260200160002060006101000a81548160ff021916908315150217905550600260003373ffffffffffffffffffffffffffffffffffffffff1673ffffffffffffffffffffffffffffffffffffffff1681526020019081526020016000208190806001815401808255809150509060018203906000526020600020016000909192909190916101000a81548173ffffffffffffffffffffffffffffffffffffffff021916908373ffffffffffffffffffffffffffffffffffffffff1602179055505050565b816000808573ffffffffffffffffffffffffffffffffffffffff1673ffffffffffffffffffffffffffffffffffffffff16815260200190815260200160002060040160010160006101000a81548160ff021916908360ff160217905550806000808573ffffffffffffffffffffffffffffffffffffffff1673ffffffffffffffffffffffffffffffffffffffff1681526020019081526020016000206004016002019080519060200190613b14929190614aa0565b50505050565b60606000808373ffffffffffffffffffffffffffffffffffffffff1673ffffffffffffffffffffffffffffffffffffffff168152602001908152602001600020600001600301805480602002602001604051908101604052809291908181526020018280548015613be057602002820191906000526020600020905b8160009054906101000a900473ffffffffffffffffffffffffffffffffffffffff1673ffffffffffffffffffffffffffffffffffffffff1681526020019060010190808311613b96575b50505050509050919050565b60606000808373ffffffffffffffffffffffffffffffffffffffff1673ffffffffffffffffffffffffffffffffffffffff168152602001908152602001600020601101805480602002602001604051908101604052809291908181526020018280548015613caf57602002820191906000526020600020905b8160009054906101000a900473ffffffffffffffffffffffffffffffffffffffff1673ffffffffffffffffffffffffffffffffffffffff1681526020019060010190808311613c65575b50505050509050919050565b600360009054906101000a900473ffffffffffffffffffffffffffffffffffffffff1681565b6040518060400160405280600981526020017f48484848484841414800000000000000000000000000000000000000000000008152506000803373ffffffffffffffffffffffffffffffffffffffff1673ffffffffffffffffffffffffffffffffffffffff1681526020019081526020016000206004016000019080519060200190613d6e929190614aa0565b50565b846000808573ffffffffffffffffffffffffffffffffffffffff1673ffffffffffffffffffffffffffffffffffffffff1681526020019081526020016000206007016000019080519060200190613dc9929190614aa0565b50836000808573ffffffffffffffffffffffffffffffffffffffff1673ffffffffffffffffffffffffffffffffffffffff1681526020019081526020016000206007016001019080519060200190613e22929190614aa0565b50816000808573ffffffffffffffffffffffffffffffffffffffff1673ffffffffffffffffffffffffffffffffffffffff1681526020019081526020016000206007016003019080519060200190613e7b929190614aa0565b50806000808573ffffffffffffffffffffffffffffffffffffffff1673ffffffffffffffffffffffffffffffffffffffff1681526020019081526020016000206007016002019080519060200190613ed4929190614aa0565b505050505050565b816000808573ffffffffffffffffffffffffffffffffffffffff1673ffffffffffffffffffffffffffffffffffffffff168152602001908152602001600020600f0160003373ffffffffffffffffffffffffffffffffffffffff1673ffffffffffffffffffffffffffffffffffffffff16815260200190815260200160002060020160006101000a81548160ff0219169083151502179055508060ff166000808573ffffffffffffffffffffffffffffffffffffffff1673ffffffffffffffffffffffffffffffffffffffff168152602001908152602001600020600f0160003373ffffffffffffffffffffffffffffffffffffffff1673ffffffffffffffffffffffffffffffffffffffff168152602001908152602001600020600101819055506000808473ffffffffffffffffffffffffffffffffffffffff1673ffffffffffffffffffffffffffffffffffffffff1681526020019081526020016000206010013390806001815401808255809150509060018203906000526020600020016000909192909190916101000a81548173ffffffffffffffffffffffffffffffffffffffff021916908373ffffffffffffffffffffffffffffffffffffffff16021790555050505050565b6060600260008373ffffffffffffffffffffffffffffffffffffffff1673ffffffffffffffffffffffffffffffffffffffff16815260200190815260200160002080548060200260200160405190810160405280929190818152602001828054801561416957602002820191906000526020600020905b8160009054906101000a900473ffffffffffffffffffffffffffffffffffffffff1673ffffffffffffffffffffffffffffffffffffffff168152602001906001019080831161411f575b50505050509050919050565b60606000808373ffffffffffffffffffffffffffffffffffffffff1673ffffffffffffffffffffffffffffffffffffffff168152602001908152602001600020600c0180548060200260200160405190810160405280929190818152602001828054801561423857602002820191906000526020600020905b8160009054906101000a900473ffffffffffffffffffffffffffffffffffffffff1673ffffffffffffffffffffffffffffffffffffffff16815260200190600101908083116141ee575b50505050509050919050565b600060606000808473ffffffffffffffffffffffffffffffffffffffff1673ffffffffffffffffffffffffffffffffffffffff16815260200190815260200160002060000160030180548060200260200160405190810160405280929190818152602001828054801561430c57602002820191906000526020600020905b8160009054906101000a900473ffffffffffffffffffffffffffffffffffffffff1673ffffffffffffffffffffffffffffffffffffffff16815260200190600101908083116142c2575b50505050509050600080905060008090505b82518110156143805782818151811061433357fe5b602002602001015173ffffffffffffffffffffffffffffffffffffffff163373ffffffffffffffffffffffffffffffffffffffff16141561437357600191505b808060010191505061431e565b508092505050919050565b60606000808373ffffffffffffffffffffffffffffffffffffffff1673ffffffffffffffffffffffffffffffffffffffff16815260200190815260200160002060100180548060200260200160405190810160405280929190818152602001828054801561444e57602002820191906000526020600020905b8160009054906101000a900473ffffffffffffffffffffffffffffffffffffffff1673ffffffffffffffffffffffffffffffffffffffff1681526020019060010190808311614404575b50505050509050919050565b60008060008473ffffffffffffffffffffffffffffffffffffffff1673ffffffffffffffffffffffffffffffffffffffff168152602001908152602001600020600e0160008373ffffffffffffffffffffffffffffffffffffffff1673ffffffffffffffffffffffffffffffffffffffff16815260200190815260200160002060020154905092915050565b60016000808373ffffffffffffffffffffffffffffffffffffffff1673ffffffffffffffffffffffffffffffffffffffff168152602001908152602001600020600e0160008473ffffffffffffffffffffffffffffffffffffffff1673ffffffffffffffffffffffffffffffffffffffff16815260200190815260200160002060000160006101000a81548160ff0219169083151502179055506000808273ffffffffffffffffffffffffffffffffffffffff1673ffffffffffffffffffffffffffffffffffffffff168152602001908152602001600020600e0160008373ffffffffffffffffffffffffffffffffffffffff1673ffffffffffffffffffffffffffffffffffffffff16815260200190815260200160002060000160019054906101000a900460ff1680156146a657506000808273ffffffffffffffffffffffffffffffffffffffff1673ffffffffffffffffffffffffffffffffffffffff168152602001908152602001600020600e0160008373ffffffffffffffffffffffffffffffffffffffff1673ffffffffffffffffffffffffffffffffffffffff16815260200190815260200160002060000160009054906101000a900460ff165b156147d0576000808273ffffffffffffffffffffffffffffffffffffffff1673ffffffffffffffffffffffffffffffffffffffff168152602001908152602001600020600e0160008373ffffffffffffffffffffffffffffffffffffffff1673ffffffffffffffffffffffffffffffffffffffff16815260200190815260200160002060000160029054906101000a900473ffffffffffffffffffffffffffffffffffffffff166000808373ffffffffffffffffffffffffffffffffffffffff1673ffffffffffffffffffffffffffffffffffffffff16815260200190815260200160002060000160010160006101000a81548173ffffffffffffffffffffffffffffffffffffffff021916908373ffffffffffffffffffffffffffffffffffffffff1602179055505b5050565b6000806000808473ffffffffffffffffffffffffffffffffffffffff1673ffffffffffffffffffffffffffffffffffffffff16815260200190815260200160002060000160000160019054906101000a900473ffffffffffffffffffffffffffffffffffffffff166000808573ffffffffffffffffffffffffffffffffffffffff1673ffffffffffffffffffffffffffffffffffffffff16815260200190815260200160002060000160010160009054906101000a900473ffffffffffffffffffffffffffffffffffffffff1691509150915091565b6000808373ffffffffffffffffffffffffffffffffffffffff1673ffffffffffffffffffffffffffffffffffffffff1681526020019081526020016000206000016003018190806001815401808255809150509060018203906000526020600020016000909192909190916101000a81548173ffffffffffffffffffffffffffffffffffffffff021916908373ffffffffffffffffffffffffffffffffffffffff160217905550506000808273ffffffffffffffffffffffffffffffffffffffff1673ffffffffffffffffffffffffffffffffffffffff1681526020019081526020016000206011018290806001815401808255809150509060018203906000526020600020016000909192909190916101000a81548173ffffffffffffffffffffffffffffffffffffffff021916908373ffffffffffffffffffffffffffffffffffffffff160217905550506000808273ffffffffffffffffffffffffffffffffffffffff1673ffffffffffffffffffffffffffffffffffffffff1681526020019081526020016000206012018190806001815401808255809150509060018203906000526020600020016000909192909190916101000a81548173ffffffffffffffffffffffffffffffffffffffff021916908373ffffffffffffffffffffffffffffffffffffffff160217905550505050565b828054600181600116156101000203166002900490600052602060002090601f016020900481019282601f10614ae157805160ff1916838001178555614b0f565b82800160010185558215614b0f579182015b82811115614b0e578251825591602001919060010190614af3565b5b509050614b1c9190614ba7565b5090565b828054600181600116156101000203166002900490600052602060002090601f016020900481019282601f10614b595780548555614b96565b82800160010185558215614b9657600052602060002091601f016020900482015b82811115614b95578254825591600101919060010190614b7a565b5b509050614ba39190614ba7565b5090565b614bc991905b80821115614bc5576000816000905550600101614bad565b5090565b9056fea265627a7a7231582092b70347c4004e96c1a475c3bceaa2743af44716bfacaa65dbe85b4dd95ad9ee64736f6c63430005110032",
  "source": "pragma solidity ^0.5.0;\r\n\r\ncontract SimpleStorage {\r\n    struct Documents {\r\n        string aadhar;\r\n        uint8 aadharno;\r\n        string aadharnoHash;\r\n    }\r\n\r\n    struct PersonalInfo {\r\n        string name;\r\n        string propic;\r\n        string email;\r\n        string phone;\r\n    }\r\n\r\n    struct Owners {\r\n        uint8 max;\r\n        address stud;\r\n        address inst;\r\n        mapping(address => PartialOwner) partialowner;\r\n        address[] listofpartialowner;\r\n    }\r\n\r\n    struct Request {\r\n        bool stud;\r\n        bool inst;\r\n        bool aadhar;\r\n    }\r\n\r\n    struct ApprovalRequest {\r\n        bool stud;\r\n        bool inst;\r\n    }\r\n\r\n    struct ChangeOwnerShip {\r\n        bool stud;\r\n        bool inst;\r\n        address studa;\r\n        address insta;\r\n        ApprovalRequest approve;\r\n    }\r\n\r\n    struct ChangeOwnerShipInst {\r\n        bool inst;\r\n        bool stud;\r\n        address neinst;\r\n        address nestud;\r\n        uint256 timestamp;\r\n    }\r\n\r\n    struct Upload {\r\n        ApprovalRequest approve;\r\n        bool aadhar;\r\n        string aadharhash;\r\n        uint256 timestamp;\r\n    }\r\n\r\n    struct PartialOwner {\r\n        bool aadhar;\r\n        uint256 day;\r\n        uint256 expiry;\r\n    }\r\n\r\n    struct PartialOwnerRequest {\r\n        ApprovalRequest approve;\r\n        uint256 day;\r\n        bool aadhar;\r\n    }\r\n\r\n    struct MultiSig {\r\n        Owners owners;\r\n        Documents doc;\r\n        PersonalInfo profile;\r\n        mapping(address => Upload) uploadreq;\r\n        address[] listofuploadreq;\r\n        address[] listofchangeowneri;\r\n        mapping(address => ChangeOwnerShipInst) changeowneri;\r\n        mapping(address => PartialOwnerRequest) partialowner;\r\n        address[] listofpartialowner;\r\n        address[] ihaveaccess;\r\n        address[] PastOwners;\r\n    }\r\n\r\n    mapping(address => MultiSig) wallets;\r\n    mapping(address => bool) listofwall;\r\n    mapping(address => address[]) iminwall;\r\n    address public j;\r\n\r\n    function createNewMultiSigUser(address a) public returns (bool) {\r\n        wallets[msg.sender].owners.inst = a;\r\n        wallets[msg.sender].owners.stud = msg.sender;\r\n        listofwall[msg.sender] = true;\r\n        iminwall[a].push(msg.sender);\r\n        return true;\r\n    }\r\n\r\n    constructor() public {}\r\n\r\n    function createNewMultiSigInst(address a) public {\r\n        wallets[msg.sender].owners.stud = a;\r\n        wallets[msg.sender].owners.inst = msg.sender;\r\n        listofwall[msg.sender] = true;\r\n        iminwall[msg.sender].push(a);\r\n    }\r\n\r\n    function doesWalletExists(address a) public view returns (bool) {\r\n        if (listofwall[a] == true) return true;\r\n        else return false;\r\n    }\r\n\r\n    function createUploadRequestbyUser(bool ad, string memory hash) public {\r\n        address inst = wallets[msg.sender].owners.inst;\r\n        wallets[msg.sender].uploadreq[inst].approve.stud = true;\r\n        wallets[msg.sender].uploadreq[inst].approve.inst = false;\r\n        wallets[msg.sender].uploadreq[inst].aadhar = ad;\r\n        wallets[msg.sender].uploadreq[inst].aadharhash = hash;\r\n        wallets[msg.sender].listofuploadreq.push(msg.sender);\r\n        wallets[msg.sender].uploadreq[inst].timestamp = now;\r\n    }\r\n\r\n    function createUploadRequestbyInstitute(\r\n        address a,\r\n        bool ad,\r\n        string memory hash\r\n    ) public {\r\n        wallets[a].uploadreq[a].approve.inst = true;\r\n        wallets[a].uploadreq[a].approve.stud = false;\r\n        wallets[a].uploadreq[a].aadhar = ad;\r\n        wallets[a].uploadreq[a].timestamp = now;\r\n        wallets[a].uploadreq[a].aadharhash = hash;\r\n        wallets[a].listofuploadreq.push(msg.sender);\r\n        wallets[a].doc.aadhar = hash;\r\n    }\r\n\r\n    function getUploadReqList(address ad)\r\n        public\r\n        view\r\n        returns (address[] memory)\r\n    {\r\n        return wallets[ad].listofuploadreq;\r\n    }\r\n\r\n    function approveUploadbyUser(address ad) public {\r\n        wallets[msg.sender].uploadreq[ad].approve.stud = true;\r\n        if (\r\n            wallets[msg.sender].uploadreq[ad].approve.stud &&\r\n            wallets[msg.sender].uploadreq[ad].approve.inst\r\n        ) {\r\n            wallets[msg.sender].doc.aadhar = wallets[msg.sender]\r\n                .uploadreq[ad]\r\n                .aadharhash;\r\n            delete wallets[msg.sender].listofuploadreq[\r\n                wallets[msg.sender].listofuploadreq.length - 1\r\n            ];\r\n        }\r\n    }\r\n\r\n    function approveUploadbyInstitute(address ad, address student) public {\r\n        wallets[student].uploadreq[ad].approve.inst = true;\r\n        if (\r\n            wallets[student].uploadreq[ad].approve.stud &&\r\n            wallets[student].uploadreq[ad].approve.inst\r\n        ) {\r\n            wallets[student].doc.aadhar = wallets[student]\r\n                .uploadreq[ad]\r\n                .aadharhash;\r\n\r\n            delete wallets[ad].listofuploadreq[\r\n                wallets[ad].listofuploadreq.length - 1\r\n            ];\r\n        }\r\n    }\r\n\r\n    function getAadhar(address stud) public view returns (string memory) {\r\n        return wallets[stud].doc.aadhar;\r\n    }\r\n\r\n    function getOwners(address a) public view returns (address, address) {\r\n        return (wallets[a].owners.stud, wallets[a].owners.inst);\r\n    }\r\n\r\n    function getInstitutesWallet(address ad)\r\n        public\r\n        view\r\n        returns (address[] memory)\r\n    {\r\n        return iminwall[ad];\r\n    }\r\n\r\n    function getInstitutesUploadList(address ad)\r\n        public\r\n        view\r\n        returns (address[] memory)\r\n    {\r\n        return wallets[ad].listofuploadreq;\r\n    }\r\n\r\n    function changeOwnerInstfromInst(address stud, address Inst) public {\r\n        wallets[stud].changeowneri[msg.sender].inst = true;\r\n        wallets[stud].changeowneri[msg.sender].neinst = Inst;\r\n        wallets[stud].listofchangeowneri.push(msg.sender);\r\n        wallets[stud].changeowneri[msg.sender].timestamp = now;\r\n        wallets[stud].changeowneri[msg.sender].stud = true;\r\n        wallets[stud].owners.inst = wallets[stud]\r\n            .changeowneri[msg.sender]\r\n            .neinst;\r\n    }\r\n\r\n    function changeOwnerInstfromStud(address Inst) public {\r\n        wallets[msg.sender].changeowneri[msg.sender].stud = true;\r\n        wallets[msg.sender].changeowneri[msg.sender].neinst = Inst;\r\n        wallets[msg.sender].listofchangeowneri.push(msg.sender);\r\n\r\n        wallets[msg.sender].changeowneri[msg.sender].timestamp = now;\r\n    }\r\n\r\n    function getChangeOwnerList(address a)\r\n        public\r\n        view\r\n        returns (address[] memory)\r\n    {\r\n        return wallets[a].listofchangeowneri;\r\n    }\r\n\r\n    function updateProf(\r\n        string memory name,\r\n        string memory pro,\r\n        address my,\r\n        string memory no,\r\n        string memory email\r\n    ) public {\r\n        wallets[my].profile.name = name;\r\n        wallets[my].profile.propic = pro;\r\n        wallets[my].profile.phone = no;\r\n        wallets[my].profile.email = email;\r\n    }\r\n\r\n    function getProfile(address a)\r\n        public\r\n        view\r\n        returns (string memory, string memory)\r\n    {\r\n        return (wallets[a].profile.name, wallets[a].profile.propic);\r\n    }\r\n\r\n    function approveChangeOwnerINSTReqbyStud(address ad) public {\r\n        wallets[msg.sender].changeowneri[ad].stud = true;\r\n        if (\r\n            wallets[msg.sender].changeowneri[ad].stud &&\r\n            wallets[msg.sender].changeowneri[ad].inst\r\n        ) {\r\n            wallets[msg.sender].owners.inst = wallets[msg.sender]\r\n                .changeowneri[ad]\r\n                .neinst;\r\n        }\r\n    }\r\n\r\n    function approveChangeOwnerINSTReqbyInst(address ad, address io) public {\r\n        wallets[io].changeowneri[ad].inst = true;\r\n        if (\r\n            wallets[io].changeowneri[ad].stud &&\r\n            wallets[io].changeowneri[ad].inst\r\n        ) {\r\n            wallets[io].owners.inst = wallets[io].changeowneri[ad].neinst;\r\n        }\r\n    }\r\n\r\n    function createNewPartialOwnerRequest(\r\n        address a,\r\n        bool adhar,\r\n        uint8 d\r\n    ) public {\r\n        wallets[a].partialowner[msg.sender].aadhar = adhar;\r\n        wallets[a].partialowner[msg.sender].day = d;\r\n        wallets[a].listofpartialowner.push(msg.sender);\r\n    }\r\n\r\n    function getPartialOwnerShipList(address a)\r\n        public\r\n        view\r\n        returns (address[] memory)\r\n    {\r\n        return wallets[a].listofpartialowner;\r\n    }\r\n\r\n    // function approvePartialOwnerReqfromStudent (address reqq) public {\r\n\r\n    // wallets[msg.sender].partialowner[reqq].approve.stud=true;\r\n\r\n    // if( wallets[msg.sender].partialowner[reqq].approve.stud==true&& wallets[msg.sender].partialowner[reqq].approve.inst==true)\r\n    //     {\r\n    //         wallets[msg.sender].owners.partialowner[msg.sender].aadhar=wallets[msg.sender].partialowner[reqq].aadhar;\r\n\r\n    //         wallets[msg.sender].owners.partialowner[msg.sender].expiry=now+ wallets[msg.sender].owners.partialowner[msg.sender].day * 1 minutes;\r\n    //         wallets[msg.sender].owners.listofpartialowner.push(reqq);\r\n\r\n    //     }\r\n\r\n    // }\r\n\r\n    // function approvePartialOwnerReqfromInst (address stud ,address reqq) public {\r\n\r\n    //     wallets[stud].partialowner[reqq].approve.inst=true;\r\n\r\n    //       wallets[stud].partialowner[reqq].approve.stud=true;\r\n\r\n    //          if( wallets[stud].partialowner[reqq].approve.stud==true&& wallets[stud].partialowner[reqq].approve.inst==true)\r\n    //       {\r\n\r\n    //     wallets[stud].owners.partialowner[reqq].aadhar=wallets[stud].partialowner[reqq].aadhar;\r\n\r\n    //   uint yuyu= wallets[stud].owners.partialowner[reqq].day ;\r\n\r\n    //     wallets[stud].owners.partialowner[reqq].expiry=now+ yuyu *1 minutes;\r\n    //     wallets[stud].owners.listofpartialowner.push(reqq);\r\n\r\n    //           }\r\n\r\n    // }\r\n\r\n    // function getAadharfromPartialOwner(address  a) public view returns (string memory){\r\n\r\n    // address [] memory va=wallets[a].owners.listofpartialowner;\r\n    // bool flag =false;\r\n    // for(uint i=0;i<va.length;i++){\r\n    // if(msg.sender==va[i])\r\n    // {\r\n    //  flag=true;\r\n\r\n    // }\r\n\r\n    // }\r\n\r\n    // if(flag==true){\r\n\r\n    //     if(wallets[a].owners.partialowner[msg.sender].aadhar==true){\r\n\r\n    //         if(wallets[a].owners.partialowner[msg.sender].day<now)\r\n    //          {\r\n\r\n    //              return wallets[a].doc.aadhar;\r\n\r\n    //           }\r\n    //          else {\r\n    //              return \"Date Expired\";\r\n    //          }\r\n\r\n    //     }else {\r\n\r\n    //         return \"error\";\r\n    //     }\r\n\r\n    //     }else {\r\n    //         return  \"a\";\r\n    //     }\r\n\r\n    // }\r\n\r\n    function isIamPartialOwner(address a) public view returns (bool) {\r\n        address[] memory va = wallets[a].owners.listofpartialowner;\r\n        bool flag = false;\r\n        for (uint256 i = 0; i < va.length; i++) {\r\n            if (msg.sender == va[i]) {\r\n                flag = true;\r\n            }\r\n        }\r\n\r\n        return flag;\r\n    }\r\n\r\n    function getPartialOwnerSList(address a)\r\n        public\r\n        view\r\n        returns (address[] memory)\r\n    {\r\n        return wallets[a].owners.listofpartialowner;\r\n    }\r\n\r\n    function set() public {\r\n        wallets[msg.sender].doc.aadhar = \"HHHHHHAAH\";\r\n    }\r\n\r\n    function getPartialOwnerShipINFO(address stud, address paro)\r\n        public\r\n        view\r\n        returns (bool, uint256)\r\n    {\r\n        //it returns the expiry date and whether the It Has Request to aadhar or NOt\r\n        return (\r\n            wallets[stud].owners.partialowner[paro].aadhar,\r\n            wallets[stud].owners.partialowner[paro].expiry\r\n        );\r\n    }\r\n\r\n    function getUploadRequestTIMESTAMP(address stud, address reqq)\r\n        public\r\n        view\r\n        returns (uint256)\r\n    {\r\n        return wallets[stud].uploadreq[reqq].timestamp;\r\n    }\r\n\r\n    function getChangeOwnerRequestTIMESTAMP(address stud, address reqq)\r\n        public\r\n        view\r\n        returns (uint256)\r\n    {\r\n        return wallets[stud].changeowneri[reqq].timestamp;\r\n    }\r\n\r\n    function setAaadharNo(\r\n        address a,\r\n        uint8 qw,\r\n        string memory io\r\n    ) public {\r\n        wallets[a].doc.aadharno = qw;\r\n        wallets[a].doc.aadharnoHash = io;\r\n    }\r\n\r\n    function createNEwAccess(address stud, address ad) public {\r\n        wallets[stud].owners.listofpartialowner.push(ad);\r\n\r\n        wallets[ad].ihaveaccess.push(stud);\r\n\r\n        wallets[ad].PastOwners.push(ad);\r\n    }\r\n\r\n    function getIhaveaAccess(address a) public view returns (address[] memory) {\r\n        return wallets[a].ihaveaccess;\r\n    }\r\n\r\n    function getUploadReqPic(address stud, address inst)\r\n        public\r\n        view\r\n        returns (string memory)\r\n    {\r\n        return wallets[stud].uploadreq[inst].aadharhash;\r\n    }\r\n\r\n    function getPastOwner(address a) public view returns (address[] memory) {\r\n        return wallets[a].PastOwners;\r\n    }\r\n}\r\n",
  "sourcePath": "C:\\Users\\Harsi\\Projects\\BCTIdentity\\src\\contracts\\SimpleStorage.sol",
  "compiler": {
    "name": "solc",
    "version": "0.5.17+commit.d19bba13.Emscripten.clang"
  },
  "schemaVersion": "3.4.3",
  "updatedAt": "2021-12-31T07:46:20.433Z",
  "networkType": "ethereum",
  "devdoc": {
    "methods": {}
  },
  "userdoc": {
    "methods": {}
  }
}