{
  "contractName": "SimpleStorage",
  "abi": [
    {
      "inputs": [],
      "payable": false,
      "stateMutability": "nonpayable",
      "type": "constructor"
    },
    {
      "constant": true,
      "inputs": [],
      "name": "j",
      "outputs": [
        {
          "internalType": "address",
          "name": "",
          "type": "address"
        }
      ],
      "payable": false,
      "stateMutability": "view",
      "type": "function"
    },
    {
      "constant": false,
      "inputs": [
        {
          "internalType": "address",
          "name": "a",
          "type": "address"
        }
      ],
      "name": "createNewMultiSigUser",
      "outputs": [
        {
          "internalType": "bool",
          "name": "",
          "type": "bool"
        }
      ],
      "payable": false,
      "stateMutability": "nonpayable",
      "type": "function"
    },
    {
      "constant": false,
      "inputs": [
        {
          "internalType": "address",
          "name": "a",
          "type": "address"
        }
      ],
      "name": "createNewMultiSigInst",
      "outputs": [],
      "payable": false,
      "stateMutability": "nonpayable",
      "type": "function"
    },
    {
      "constant": true,
      "inputs": [
        {
          "internalType": "address",
          "name": "a",
          "type": "address"
        }
      ],
      "name": "doesWalletExists",
      "outputs": [
        {
          "internalType": "bool",
          "name": "",
          "type": "bool"
        }
      ],
      "payable": false,
      "stateMutability": "view",
      "type": "function"
    },
    {
      "constant": false,
      "inputs": [
        {
          "internalType": "bool",
          "name": "ad",
          "type": "bool"
        },
        {
          "internalType": "string",
          "name": "hash",
          "type": "string"
        }
      ],
      "name": "createUploadRequestbyUser",
      "outputs": [],
      "payable": false,
      "stateMutability": "nonpayable",
      "type": "function"
    },
    {
      "constant": false,
      "inputs": [
        {
          "internalType": "address",
          "name": "a",
          "type": "address"
        },
        {
          "internalType": "bool",
          "name": "ad",
          "type": "bool"
        },
        {
          "internalType": "string",
          "name": "hash",
          "type": "string"
        }
      ],
      "name": "createUploadRequestbyInstitute",
      "outputs": [],
      "payable": false,
      "stateMutability": "nonpayable",
      "type": "function"
    },
    {
      "constant": true,
      "inputs": [
        {
          "internalType": "address",
          "name": "ad",
          "type": "address"
        }
      ],
      "name": "getUploadReqList",
      "outputs": [
        {
          "internalType": "address[]",
          "name": "",
          "type": "address[]"
        }
      ],
      "payable": false,
      "stateMutability": "view",
      "type": "function"
    },
    {
      "constant": false,
      "inputs": [
        {
          "internalType": "address",
          "name": "ad",
          "type": "address"
        }
      ],
      "name": "approveUploadbyUser",
      "outputs": [],
      "payable": false,
      "stateMutability": "nonpayable",
      "type": "function"
    },
    {
      "constant": false,
      "inputs": [
        {
          "internalType": "address",
          "name": "ad",
          "type": "address"
        },
        {
          "internalType": "address",
          "name": "student",
          "type": "address"
        }
      ],
      "name": "approveUploadbyInstitute",
      "outputs": [],
      "payable": false,
      "stateMutability": "nonpayable",
      "type": "function"
    },
    {
      "constant": true,
      "inputs": [
        {
          "internalType": "address",
          "name": "stud",
          "type": "address"
        }
      ],
      "name": "getAadhar",
      "outputs": [
        {
          "internalType": "string",
          "name": "",
          "type": "string"
        }
      ],
      "payable": false,
      "stateMutability": "view",
      "type": "function"
    },
    {
      "constant": true,
      "inputs": [
        {
          "internalType": "address",
          "name": "a",
          "type": "address"
        }
      ],
      "name": "getOwners",
      "outputs": [
        {
          "internalType": "address",
          "name": "",
          "type": "address"
        },
        {
          "internalType": "address",
          "name": "",
          "type": "address"
        }
      ],
      "payable": false,
      "stateMutability": "view",
      "type": "function"
    },
    {
      "constant": true,
      "inputs": [
        {
          "internalType": "address",
          "name": "ad",
          "type": "address"
        }
      ],
      "name": "getInstitutesWallet",
      "outputs": [
        {
          "internalType": "address[]",
          "name": "",
          "type": "address[]"
        }
      ],
      "payable": false,
      "stateMutability": "view",
      "type": "function"
    },
    {
      "constant": true,
      "inputs": [
        {
          "internalType": "address",
          "name": "ad",
          "type": "address"
        }
      ],
      "name": "getInstitutesUploadList",
      "outputs": [
        {
          "internalType": "address[]",
          "name": "",
          "type": "address[]"
        }
      ],
      "payable": false,
      "stateMutability": "view",
      "type": "function"
    },
    {
      "constant": false,
      "inputs": [
        {
          "internalType": "address",
          "name": "stud",
          "type": "address"
        },
        {
          "internalType": "address",
          "name": "Inst",
          "type": "address"
        }
      ],
      "name": "changeOwnerInstfromInst",
      "outputs": [],
      "payable": false,
      "stateMutability": "nonpayable",
      "type": "function"
    },
    {
      "constant": false,
      "inputs": [
        {
          "internalType": "address",
          "name": "Inst",
          "type": "address"
        }
      ],
      "name": "changeOwnerInstfromStud",
      "outputs": [],
      "payable": false,
      "stateMutability": "nonpayable",
      "type": "function"
    },
    {
      "constant": true,
      "inputs": [
        {
          "internalType": "address",
          "name": "a",
          "type": "address"
        }
      ],
      "name": "getChangeOwnerList",
      "outputs": [
        {
          "internalType": "address[]",
          "name": "",
          "type": "address[]"
        }
      ],
      "payable": false,
      "stateMutability": "view",
      "type": "function"
    },
    {
      "constant": false,
      "inputs": [
        {
          "internalType": "string",
          "name": "name",
          "type": "string"
        },
        {
          "internalType": "string",
          "name": "pro",
          "type": "string"
        },
        {
          "internalType": "address",
          "name": "my",
          "type": "address"
        },
        {
          "internalType": "string",
          "name": "no",
          "type": "string"
        },
        {
          "internalType": "string",
          "name": "email",
          "type": "string"
        }
      ],
      "name": "updateProf",
      "outputs": [],
      "payable": false,
      "stateMutability": "nonpayable",
      "type": "function"
    },
    {
      "constant": true,
      "inputs": [
        {
          "internalType": "address",
          "name": "a",
          "type": "address"
        }
      ],
      "name": "getProfile",
      "outputs": [
        {
          "internalType": "string",
          "name": "",
          "type": "string"
        },
        {
          "internalType": "string",
          "name": "",
          "type": "string"
        }
      ],
      "payable": false,
      "stateMutability": "view",
      "type": "function"
    },
    {
      "constant": false,
      "inputs": [
        {
          "internalType": "address",
          "name": "ad",
          "type": "address"
        }
      ],
      "name": "approveChangeOwnerINSTReqbyStud",
      "outputs": [],
      "payable": false,
      "stateMutability": "nonpayable",
      "type": "function"
    },
    {
      "constant": false,
      "inputs": [
        {
          "internalType": "address",
          "name": "ad",
          "type": "address"
        },
        {
          "internalType": "address",
          "name": "io",
          "type": "address"
        }
      ],
      "name": "approveChangeOwnerINSTReqbyInst",
      "outputs": [],
      "payable": false,
      "stateMutability": "nonpayable",
      "type": "function"
    },
    {
      "constant": false,
      "inputs": [
        {
          "internalType": "address",
          "name": "a",
          "type": "address"
        },
        {
          "internalType": "bool",
          "name": "adhar",
          "type": "bool"
        },
        {
          "internalType": "uint8",
          "name": "d",
          "type": "uint8"
        }
      ],
      "name": "createNewPartialOwnerRequest",
      "outputs": [],
      "payable": false,
      "stateMutability": "nonpayable",
      "type": "function"
    },
    {
      "constant": true,
      "inputs": [
        {
          "internalType": "address",
          "name": "a",
          "type": "address"
        }
      ],
      "name": "getPartialOwnerShipList",
      "outputs": [
        {
          "internalType": "address[]",
          "name": "",
          "type": "address[]"
        }
      ],
      "payable": false,
      "stateMutability": "view",
      "type": "function"
    },
    {
      "constant": true,
      "inputs": [
        {
          "internalType": "address",
          "name": "a",
          "type": "address"
        }
      ],
      "name": "isIamPartialOwner",
      "outputs": [
        {
          "internalType": "bool",
          "name": "",
          "type": "bool"
        }
      ],
      "payable": false,
      "stateMutability": "view",
      "type": "function"
    },
    {
      "constant": true,
      "inputs": [
        {
          "internalType": "address",
          "name": "a",
          "type": "address"
        }
      ],
      "name": "getPartialOwnerSList",
      "outputs": [
        {
          "internalType": "address[]",
          "name": "",
          "type": "address[]"
        }
      ],
      "payable": false,
      "stateMutability": "view",
      "type": "function"
    },
    {
      "constant": false,
      "inputs": [],
      "name": "set",
      "outputs": [],
      "payable": false,
      "stateMutability": "nonpayable",
      "type": "function"
    },
    {
      "constant": true,
      "inputs": [
        {
          "internalType": "address",
          "name": "stud",
          "type": "address"
        },
        {
          "internalType": "address",
          "name": "paro",
          "type": "address"
        }
      ],
      "name": "getPartialOwnerShipINFO",
      "outputs": [
        {
          "internalType": "bool",
          "name": "",
          "type": "bool"
        },
        {
          "internalType": "uint256",
          "name": "",
          "type": "uint256"
        }
      ],
      "payable": false,
      "stateMutability": "view",
      "type": "function"
    },
    {
      "constant": true,
      "inputs": [
        {
          "internalType": "address",
          "name": "stud",
          "type": "address"
        },
        {
          "internalType": "address",
          "name": "reqq",
          "type": "address"
        }
      ],
      "name": "getUploadRequestTIMESTAMP",
      "outputs": [
        {
          "internalType": "uint256",
          "name": "",
          "type": "uint256"
        }
      ],
      "payable": false,
      "stateMutability": "view",
      "type": "function"
    },
    {
      "constant": true,
      "inputs": [
        {
          "internalType": "address",
          "name": "stud",
          "type": "address"
        },
        {
          "internalType": "address",
          "name": "reqq",
          "type": "address"
        }
      ],
      "name": "getChangeOwnerRequestTIMESTAMP",
      "outputs": [
        {
          "internalType": "uint256",
          "name": "",
          "type": "uint256"
        }
      ],
      "payable": false,
      "stateMutability": "view",
      "type": "function"
    },
    {
      "constant": false,
      "inputs": [
        {
          "internalType": "address",
          "name": "a",
          "type": "address"
        },
        {
          "internalType": "uint8",
          "name": "qw",
          "type": "uint8"
        },
        {
          "internalType": "string",
          "name": "io",
          "type": "string"
        }
      ],
      "name": "setAaadharNo",
      "outputs": [],
      "payable": false,
      "stateMutability": "nonpayable",
      "type": "function"
    },
    {
      "constant": false,
      "inputs": [
        {
          "internalType": "address",
          "name": "stud",
          "type": "address"
        },
        {
          "internalType": "address",
          "name": "ad",
          "type": "address"
        }
      ],
      "name": "createNEwAccess",
      "outputs": [],
      "payable": false,
      "stateMutability": "nonpayable",
      "type": "function"
    },
    {
      "constant": true,
      "inputs": [
        {
          "internalType": "address",
          "name": "a",
          "type": "address"
        }
      ],
      "name": "getIhaveaAccess",
      "outputs": [
        {
          "internalType": "address[]",
          "name": "",
          "type": "address[]"
        }
      ],
      "payable": false,
      "stateMutability": "view",
      "type": "function"
    },
    {
      "constant": true,
      "inputs": [
        {
          "internalType": "address",
          "name": "stud",
          "type": "address"
        },
        {
          "internalType": "address",
          "name": "inst",
          "type": "address"
        }
      ],
      "name": "getUplaodReqPic",
      "outputs": [
        {
          "internalType": "string",
          "name": "",
          "type": "string"
        }
      ],
      "payable": false,
      "stateMutability": "view",
      "type": "function"
    },
    {
      "constant": true,
      "inputs": [
        {
          "internalType": "address",
          "name": "a",
          "type": "address"
        }
      ],
      "name": "getPastOwner",
      "outputs": [
        {
          "internalType": "address[]",
          "name": "",
          "type": "address[]"
        }
      ],
      "payable": false,
      "stateMutability": "view",
      "type": "function"
    }
  ],
  "bytecode": "0x608060405234801561001057600080fd5b50614b97806100206000396000f3fe608060405234801561001057600080fd5b50600436106101fb5760003560e01c80637bbba8f91161011a578063cdb2b1f1116100ad578063f9cdf62b1161007c578063f9cdf62b146112c0578063fa271d8014611359578063fb9e0ac9146113d1578063fd8b84b114611435578063fe2dc83c146114ec576101fb565b8063cdb2b1f1146110d5578063d5808aa014611132578063d88997f7146111cb578063e5f91f7114611264576101fb565b8063b533c202116100e9578063b533c20214610d48578063b582ec5f14610de1578063b8e010de14610e2b578063c1b14dcb14610e35576101fb565b80637bbba8f914610aa657806384320a3f14610b8357806388839eb114610bc7578063989bb9ff14610caf576101fb565b806347e4ab251161019257806367fa04cb1161016157806367fa04cb146108535780636b061c24146109105780636d30a0be146109745780637a17dab514610a0d576101fb565b806347e4ab251461066357806365e69686146106e6578063679a6f791461077f57806367ddb864146107f7576101fb565b80632aebaf40116101ce5780632aebaf401461049857806332584da91461057f57806333b62877146105c35780633b2b0d341461061f576101fb565b80630e8ab506146102005780630f53a470146102445780631dbcc0311461036d57806320a38c5f146103d1575b600080fd5b6102426004803603602081101561021657600080fd5b81019080803573ffffffffffffffffffffffffffffffffffffffff169060200190929190505050611550565b005b6102866004803603602081101561025a57600080fd5b81019080803573ffffffffffffffffffffffffffffffffffffffff16906020019092919050505061183d565b604051808060200180602001838103835285818151815260200191508051906020019080838360005b838110156102ca5780820151818401526020810190506102af565b50505050905090810190601f1680156102f75780820380516001836020036101000a031916815260200191505b50838103825284818151815260200191508051906020019080838360005b83811015610330578082015181840152602081019050610315565b50505050905090810190601f16801561035d5780820380516001836020036101000a031916815260200191505b5094505050505060405180910390f35b6103cf6004803603604081101561038357600080fd5b81019080803573ffffffffffffffffffffffffffffffffffffffff169060200190929190803573ffffffffffffffffffffffffffffffffffffffff169060200190929190505050611a09565b005b610496600480360360408110156103e757600080fd5b810190808035151590602001909291908035906020019064010000000081111561041057600080fd5b82018360208201111561042257600080fd5b8035906020019184600183028401116401000000008311171561044457600080fd5b91908080601f016020809104026020016040519081016040528093929190818152602001838380828437600081840152601f19601f820116905080830192505050505050509192919290505050611e50565b005b61057d600480360360608110156104ae57600080fd5b81019080803573ffffffffffffffffffffffffffffffffffffffff169060200190929190803515159060200190929190803590602001906401000000008111156104f757600080fd5b82018360208201111561050957600080fd5b8035906020019184600183028401116401000000008311171561052b57600080fd5b91908080601f016020809104026020016040519081016040528093929190818152602001838380828437600081840152601f19601f8201169050808301925050505050505091929192905050506121e8565b005b6105c16004803603602081101561059557600080fd5b81019080803573ffffffffffffffffffffffffffffffffffffffff1690602001909291905050506125da565b005b610605600480360360208110156105d957600080fd5b81019080803573ffffffffffffffffffffffffffffffffffffffff169060200190929190505050612862565b604051808215151515815260200191505060405180910390f35b6106616004803603602081101561063557600080fd5b81019080803573ffffffffffffffffffffffffffffffffffffffff1690602001909291905050506128d0565b005b6106c56004803603604081101561067957600080fd5b81019080803573ffffffffffffffffffffffffffffffffffffffff169060200190929190803573ffffffffffffffffffffffffffffffffffffffff169060200190929190505050612c47565b60405180831515151581526020018281526020019250505060405180910390f35b610728600480360360208110156106fc57600080fd5b81019080803573ffffffffffffffffffffffffffffffffffffffff169060200190929190505050612d6c565b6040518080602001828103825283818151815260200191508051906020019060200280838360005b8381101561076b578082015181840152602081019050610750565b505050509050019250505060405180910390f35b6107e16004803603604081101561079557600080fd5b81019080803573ffffffffffffffffffffffffffffffffffffffff169060200190929190803573ffffffffffffffffffffffffffffffffffffffff169060200190929190505050612e3b565b6040518082815260200191505060405180910390f35b6108396004803603602081101561080d57600080fd5b81019080803573ffffffffffffffffffffffffffffffffffffffff169060200190929190505050612ec7565b604051808215151515815260200191505060405180910390f35b6108956004803603602081101561086957600080fd5b81019080803573ffffffffffffffffffffffffffffffffffffffff1690602001909291905050506130d2565b6040518080602001828103825283818151815260200191508051906020019080838360005b838110156108d55780820151818401526020810190506108ba565b50505050905090810190601f1680156109025780820380516001836020036101000a031916815260200191505b509250505060405180910390f35b6109726004803603604081101561092657600080fd5b81019080803573ffffffffffffffffffffffffffffffffffffffff169060200190929190803573ffffffffffffffffffffffffffffffffffffffff1690602001909291905050506131b8565b005b6109b66004803603602081101561098a57600080fd5b81019080803573ffffffffffffffffffffffffffffffffffffffff169060200190929190505050613530565b6040518080602001828103825283818151815260200191508051906020019060200280838360005b838110156109f95780820151818401526020810190506109de565b505050509050019250505060405180910390f35b610a4f60048036036020811015610a2357600080fd5b81019080803573ffffffffffffffffffffffffffffffffffffffff1690602001909291905050506135ff565b6040518080602001828103825283818151815260200191508051906020019060200280838360005b83811015610a92578082015181840152602081019050610a77565b505050509050019250505060405180910390f35b610b0860048036036040811015610abc57600080fd5b81019080803573ffffffffffffffffffffffffffffffffffffffff169060200190929190803573ffffffffffffffffffffffffffffffffffffffff1690602001909291905050506136ce565b6040518080602001828103825283818151815260200191508051906020019080838360005b83811015610b48578082015181840152602081019050610b2d565b50505050905090810190601f168015610b755780820380516001836020036101000a031916815260200191505b509250505060405180910390f35b610bc560048036036020811015610b9957600080fd5b81019080803573ffffffffffffffffffffffffffffffffffffffff1690602001909291905050506137f2565b005b610cad60048036036060811015610bdd57600080fd5b81019080803573ffffffffffffffffffffffffffffffffffffffff169060200190929190803560ff16906020019092919080359060200190640100000000811115610c2757600080fd5b820183602082011115610c3957600080fd5b80359060200191846001830284011164010000000083111715610c5b57600080fd5b91908080601f016020809104026020016040519081016040528093929190818152602001838380828437600081840152601f19601f8201169050808301925050505050505091929192905050506139f5565b005b610cf160048036036020811015610cc557600080fd5b81019080803573ffffffffffffffffffffffffffffffffffffffff169060200190929190505050613ab0565b6040518080602001828103825283818151815260200191508051906020019060200280838360005b83811015610d34578082015181840152602081019050610d19565b505050509050019250505060405180910390f35b610d8a60048036036020811015610d5e57600080fd5b81019080803573ffffffffffffffffffffffffffffffffffffffff169060200190929190505050613b82565b6040518080602001828103825283818151815260200191508051906020019060200280838360005b83811015610dcd578082015181840152602081019050610db2565b505050509050019250505060405180910390f35b610de9613c51565b604051808273ffffffffffffffffffffffffffffffffffffffff1673ffffffffffffffffffffffffffffffffffffffff16815260200191505060405180910390f35b610e33613c77565b005b6110d3600480360360a0811015610e4b57600080fd5b8101908080359060200190640100000000811115610e6857600080fd5b820183602082011115610e7a57600080fd5b80359060200191846001830284011164010000000083111715610e9c57600080fd5b91908080601f016020809104026020016040519081016040528093929190818152602001838380828437600081840152601f19601f82011690508083019250505050505050919291929080359060200190640100000000811115610eff57600080fd5b820183602082011115610f1157600080fd5b80359060200191846001830284011164010000000083111715610f3357600080fd5b91908080601f016020809104026020016040519081016040528093929190818152602001838380828437600081840152601f19601f820116905080830192505050505050509192919290803573ffffffffffffffffffffffffffffffffffffffff16906020019092919080359060200190640100000000811115610fb657600080fd5b820183602082011115610fc857600080fd5b80359060200191846001830284011164010000000083111715610fea57600080fd5b91908080601f016020809104026020016040519081016040528093929190818152602001838380828437600081840152601f19601f8201169050808301925050505050505091929192908035906020019064010000000081111561104d57600080fd5b82018360208201111561105f57600080fd5b8035906020019184600183028401116401000000008311171561108157600080fd5b91908080601f016020809104026020016040519081016040528093929190818152602001838380828437600081840152601f19601f820116905080830192505050505050509192919290505050613d07565b005b611130600480360360608110156110eb57600080fd5b81019080803573ffffffffffffffffffffffffffffffffffffffff169060200190929190803515159060200190929190803560ff169060200190929190505050613e72565b005b6111746004803603602081101561114857600080fd5b81019080803573ffffffffffffffffffffffffffffffffffffffff16906020019092919050505061403e565b6040518080602001828103825283818151815260200191508051906020019060200280838360005b838110156111b757808201518184015260208101905061119c565b505050509050019250505060405180910390f35b61120d600480360360208110156111e157600080fd5b81019080803573ffffffffffffffffffffffffffffffffffffffff16906020019092919050505061410b565b6040518080602001828103825283818151815260200191508051906020019060200280838360005b83811015611250578082015181840152602081019050611235565b505050509050019250505060405180910390f35b6112a66004803603602081101561127a57600080fd5b81019080803573ffffffffffffffffffffffffffffffffffffffff1690602001909291905050506141da565b604051808215151515815260200191505060405180910390f35b611302600480360360208110156112d657600080fd5b81019080803573ffffffffffffffffffffffffffffffffffffffff169060200190929190505050614321565b6040518080602001828103825283818151815260200191508051906020019060200280838360005b8381101561134557808201518184015260208101905061132a565b505050509050019250505060405180910390f35b6113bb6004803603604081101561136f57600080fd5b81019080803573ffffffffffffffffffffffffffffffffffffffff169060200190929190803573ffffffffffffffffffffffffffffffffffffffff1690602001909291905050506143f0565b6040518082815260200191505060405180910390f35b611433600480360360408110156113e757600080fd5b81019080803573ffffffffffffffffffffffffffffffffffffffff169060200190929190803573ffffffffffffffffffffffffffffffffffffffff16906020019092919050505061447c565b005b6114776004803603602081101561144b57600080fd5b81019080803573ffffffffffffffffffffffffffffffffffffffff16906020019092919050505061476a565b604051808373ffffffffffffffffffffffffffffffffffffffff1673ffffffffffffffffffffffffffffffffffffffff1681526020018273ffffffffffffffffffffffffffffffffffffffff1673ffffffffffffffffffffffffffffffffffffffff1681526020019250505060405180910390f35b61154e6004803603604081101561150257600080fd5b81019080803573ffffffffffffffffffffffffffffffffffffffff169060200190929190803573ffffffffffffffffffffffffffffffffffffffff169060200190929190505050614840565b005b60016000803373ffffffffffffffffffffffffffffffffffffffff1673ffffffffffffffffffffffffffffffffffffffff168152602001908152602001600020600e0160008373ffffffffffffffffffffffffffffffffffffffff1673ffffffffffffffffffffffffffffffffffffffff16815260200190815260200160002060000160016101000a81548160ff0219169083151502179055506000803373ffffffffffffffffffffffffffffffffffffffff1673ffffffffffffffffffffffffffffffffffffffff168152602001908152602001600020600e0160008273ffffffffffffffffffffffffffffffffffffffff1673ffffffffffffffffffffffffffffffffffffffff16815260200190815260200160002060000160019054906101000a900460ff16801561171057506000803373ffffffffffffffffffffffffffffffffffffffff1673ffffffffffffffffffffffffffffffffffffffff168152602001908152602001600020600e0160008273ffffffffffffffffffffffffffffffffffffffff1673ffffffffffffffffffffffffffffffffffffffff16815260200190815260200160002060000160009054906101000a900460ff165b1561183a576000803373ffffffffffffffffffffffffffffffffffffffff1673ffffffffffffffffffffffffffffffffffffffff168152602001908152602001600020600e0160008273ffffffffffffffffffffffffffffffffffffffff1673ffffffffffffffffffffffffffffffffffffffff16815260200190815260200160002060000160029054906101000a900473ffffffffffffffffffffffffffffffffffffffff166000803373ffffffffffffffffffffffffffffffffffffffff1673ffffffffffffffffffffffffffffffffffffffff16815260200190815260200160002060000160010160006101000a81548173ffffffffffffffffffffffffffffffffffffffff021916908373ffffffffffffffffffffffffffffffffffffffff1602179055505b50565b6060806000808473ffffffffffffffffffffffffffffffffffffffff1673ffffffffffffffffffffffffffffffffffffffff1681526020019081526020016000206007016000016000808573ffffffffffffffffffffffffffffffffffffffff1673ffffffffffffffffffffffffffffffffffffffff168152602001908152602001600020600701600101818054600181600116156101000203166002900480601f01602080910402602001604051908101604052809291908181526020018280546001816001161561010002031660029004801561195d5780601f106119325761010080835404028352916020019161195d565b820191906000526020600020905b81548152906001019060200180831161194057829003601f168201915b50505050509150808054600181600116156101000203166002900480601f0160208091040260200160405190810160405280929190818152602001828054600181600116156101000203166002900480156119f95780601f106119ce576101008083540402835291602001916119f9565b820191906000526020600020905b8154815290600101906020018083116119dc57829003601f168201915b5050505050905091509150915091565b60016000808473ffffffffffffffffffffffffffffffffffffffff1673ffffffffffffffffffffffffffffffffffffffff168152602001908152602001600020600e0160003373ffffffffffffffffffffffffffffffffffffffff1673ffffffffffffffffffffffffffffffffffffffff16815260200190815260200160002060000160006101000a81548160ff021916908315150217905550806000808473ffffffffffffffffffffffffffffffffffffffff1673ffffffffffffffffffffffffffffffffffffffff168152602001908152602001600020600e0160003373ffffffffffffffffffffffffffffffffffffffff1673ffffffffffffffffffffffffffffffffffffffff16815260200190815260200160002060000160026101000a81548173ffffffffffffffffffffffffffffffffffffffff021916908373ffffffffffffffffffffffffffffffffffffffff1602179055506000808373ffffffffffffffffffffffffffffffffffffffff1673ffffffffffffffffffffffffffffffffffffffff168152602001908152602001600020600d013390806001815401808255809150509060018203906000526020600020016000909192909190916101000a81548173ffffffffffffffffffffffffffffffffffffffff021916908373ffffffffffffffffffffffffffffffffffffffff16021790555050426000808473ffffffffffffffffffffffffffffffffffffffff1673ffffffffffffffffffffffffffffffffffffffff168152602001908152602001600020600e0160003373ffffffffffffffffffffffffffffffffffffffff1673ffffffffffffffffffffffffffffffffffffffff1681526020019081526020016000206002018190555060016000808473ffffffffffffffffffffffffffffffffffffffff1673ffffffffffffffffffffffffffffffffffffffff168152602001908152602001600020600e0160003373ffffffffffffffffffffffffffffffffffffffff1673ffffffffffffffffffffffffffffffffffffffff16815260200190815260200160002060000160016101000a81548160ff0219169083151502179055506000808373ffffffffffffffffffffffffffffffffffffffff1673ffffffffffffffffffffffffffffffffffffffff168152602001908152602001600020600e0160003373ffffffffffffffffffffffffffffffffffffffff1673ffffffffffffffffffffffffffffffffffffffff16815260200190815260200160002060000160029054906101000a900473ffffffffffffffffffffffffffffffffffffffff166000808473ffffffffffffffffffffffffffffffffffffffff1673ffffffffffffffffffffffffffffffffffffffff16815260200190815260200160002060000160010160006101000a81548173ffffffffffffffffffffffffffffffffffffffff021916908373ffffffffffffffffffffffffffffffffffffffff1602179055505050565b60016000803373ffffffffffffffffffffffffffffffffffffffff1673ffffffffffffffffffffffffffffffffffffffff168152602001908152602001600020600b0160003373ffffffffffffffffffffffffffffffffffffffff1673ffffffffffffffffffffffffffffffffffffffff16815260200190815260200160002060000160000160006101000a81548160ff02191690831515021790555060008060003373ffffffffffffffffffffffffffffffffffffffff1673ffffffffffffffffffffffffffffffffffffffff168152602001908152602001600020600b0160003373ffffffffffffffffffffffffffffffffffffffff1673ffffffffffffffffffffffffffffffffffffffff16815260200190815260200160002060000160000160016101000a81548160ff021916908315150217905550816000803373ffffffffffffffffffffffffffffffffffffffff1673ffffffffffffffffffffffffffffffffffffffff168152602001908152602001600020600b0160003373ffffffffffffffffffffffffffffffffffffffff1673ffffffffffffffffffffffffffffffffffffffff16815260200190815260200160002060010160006101000a81548160ff021916908315150217905550806000803373ffffffffffffffffffffffffffffffffffffffff1673ffffffffffffffffffffffffffffffffffffffff168152602001908152602001600020600b0160003373ffffffffffffffffffffffffffffffffffffffff1673ffffffffffffffffffffffffffffffffffffffff16815260200190815260200160002060020190805190602001906120b8929190614a36565b506000803373ffffffffffffffffffffffffffffffffffffffff1673ffffffffffffffffffffffffffffffffffffffff168152602001908152602001600020600c013390806001815401808255809150509060018203906000526020600020016000909192909190916101000a81548173ffffffffffffffffffffffffffffffffffffffff021916908373ffffffffffffffffffffffffffffffffffffffff16021790555050426000803373ffffffffffffffffffffffffffffffffffffffff1673ffffffffffffffffffffffffffffffffffffffff168152602001908152602001600020600b0160003373ffffffffffffffffffffffffffffffffffffffff1673ffffffffffffffffffffffffffffffffffffffff168152602001908152602001600020600301819055505050565b60016000808573ffffffffffffffffffffffffffffffffffffffff1673ffffffffffffffffffffffffffffffffffffffff168152602001908152602001600020600b0160008573ffffffffffffffffffffffffffffffffffffffff1673ffffffffffffffffffffffffffffffffffffffff16815260200190815260200160002060000160000160016101000a81548160ff02191690831515021790555060008060008573ffffffffffffffffffffffffffffffffffffffff1673ffffffffffffffffffffffffffffffffffffffff168152602001908152602001600020600b0160008573ffffffffffffffffffffffffffffffffffffffff1673ffffffffffffffffffffffffffffffffffffffff16815260200190815260200160002060000160000160006101000a81548160ff021916908315150217905550816000808573ffffffffffffffffffffffffffffffffffffffff1673ffffffffffffffffffffffffffffffffffffffff168152602001908152602001600020600b0160008573ffffffffffffffffffffffffffffffffffffffff1673ffffffffffffffffffffffffffffffffffffffff16815260200190815260200160002060010160006101000a81548160ff021916908315150217905550426000808573ffffffffffffffffffffffffffffffffffffffff1673ffffffffffffffffffffffffffffffffffffffff168152602001908152602001600020600b0160008573ffffffffffffffffffffffffffffffffffffffff1673ffffffffffffffffffffffffffffffffffffffff16815260200190815260200160002060030181905550806000808573ffffffffffffffffffffffffffffffffffffffff1673ffffffffffffffffffffffffffffffffffffffff168152602001908152602001600020600b0160008573ffffffffffffffffffffffffffffffffffffffff1673ffffffffffffffffffffffffffffffffffffffff16815260200190815260200160002060020190805190602001906124d6929190614a36565b506000808473ffffffffffffffffffffffffffffffffffffffff1673ffffffffffffffffffffffffffffffffffffffff168152602001908152602001600020600c013390806001815401808255809150509060018203906000526020600020016000909192909190916101000a81548173ffffffffffffffffffffffffffffffffffffffff021916908373ffffffffffffffffffffffffffffffffffffffff16021790555050806000808573ffffffffffffffffffffffffffffffffffffffff1673ffffffffffffffffffffffffffffffffffffffff16815260200190815260200160002060040160000190805190602001906125d4929190614a36565b50505050565b60016000803373ffffffffffffffffffffffffffffffffffffffff1673ffffffffffffffffffffffffffffffffffffffff168152602001908152602001600020600e0160003373ffffffffffffffffffffffffffffffffffffffff1673ffffffffffffffffffffffffffffffffffffffff16815260200190815260200160002060000160016101000a81548160ff021916908315150217905550806000803373ffffffffffffffffffffffffffffffffffffffff1673ffffffffffffffffffffffffffffffffffffffff168152602001908152602001600020600e0160003373ffffffffffffffffffffffffffffffffffffffff1673ffffffffffffffffffffffffffffffffffffffff16815260200190815260200160002060000160026101000a81548173ffffffffffffffffffffffffffffffffffffffff021916908373ffffffffffffffffffffffffffffffffffffffff1602179055506000803373ffffffffffffffffffffffffffffffffffffffff1673ffffffffffffffffffffffffffffffffffffffff168152602001908152602001600020600d013390806001815401808255809150509060018203906000526020600020016000909192909190916101000a81548173ffffffffffffffffffffffffffffffffffffffff021916908373ffffffffffffffffffffffffffffffffffffffff16021790555050426000803373ffffffffffffffffffffffffffffffffffffffff1673ffffffffffffffffffffffffffffffffffffffff168152602001908152602001600020600e0160003373ffffffffffffffffffffffffffffffffffffffff1673ffffffffffffffffffffffffffffffffffffffff1681526020019081526020016000206002018190555050565b600060011515600160008473ffffffffffffffffffffffffffffffffffffffff1673ffffffffffffffffffffffffffffffffffffffff16815260200190815260200160002060009054906101000a900460ff16151514156128c657600190506128cb565b600090505b919050565b60016000803373ffffffffffffffffffffffffffffffffffffffff1673ffffffffffffffffffffffffffffffffffffffff168152602001908152602001600020600b0160008373ffffffffffffffffffffffffffffffffffffffff1673ffffffffffffffffffffffffffffffffffffffff16815260200190815260200160002060000160000160006101000a81548160ff0219169083151502179055506000803373ffffffffffffffffffffffffffffffffffffffff1673ffffffffffffffffffffffffffffffffffffffff168152602001908152602001600020600b0160008273ffffffffffffffffffffffffffffffffffffffff1673ffffffffffffffffffffffffffffffffffffffff16815260200190815260200160002060000160000160009054906101000a900460ff168015612a9957506000803373ffffffffffffffffffffffffffffffffffffffff1673ffffffffffffffffffffffffffffffffffffffff168152602001908152602001600020600b0160008273ffffffffffffffffffffffffffffffffffffffff1673ffffffffffffffffffffffffffffffffffffffff16815260200190815260200160002060000160000160019054906101000a900460ff165b15612c44576000803373ffffffffffffffffffffffffffffffffffffffff1673ffffffffffffffffffffffffffffffffffffffff168152602001908152602001600020600b0160008273ffffffffffffffffffffffffffffffffffffffff1673ffffffffffffffffffffffffffffffffffffffff1681526020019081526020016000206002016000803373ffffffffffffffffffffffffffffffffffffffff1673ffffffffffffffffffffffffffffffffffffffff1681526020019081526020016000206004016000019080546001816001161561010002031660029004612b82929190614ab6565b506000803373ffffffffffffffffffffffffffffffffffffffff1673ffffffffffffffffffffffffffffffffffffffff168152602001908152602001600020600c0160016000803373ffffffffffffffffffffffffffffffffffffffff1673ffffffffffffffffffffffffffffffffffffffff168152602001908152602001600020600c01805490500381548110612c1657fe5b9060005260206000200160006101000a81549073ffffffffffffffffffffffffffffffffffffffff02191690555b50565b6000806000808573ffffffffffffffffffffffffffffffffffffffff1673ffffffffffffffffffffffffffffffffffffffff16815260200190815260200160002060000160020160008473ffffffffffffffffffffffffffffffffffffffff1673ffffffffffffffffffffffffffffffffffffffff16815260200190815260200160002060000160009054906101000a900460ff166000808673ffffffffffffffffffffffffffffffffffffffff1673ffffffffffffffffffffffffffffffffffffffff16815260200190815260200160002060000160020160008573ffffffffffffffffffffffffffffffffffffffff1673ffffffffffffffffffffffffffffffffffffffff16815260200190815260200160002060020154915091509250929050565b60606000808373ffffffffffffffffffffffffffffffffffffffff1673ffffffffffffffffffffffffffffffffffffffff168152602001908152602001600020600c01805480602002602001604051908101604052809291908181526020018280548015612e2f57602002820191906000526020600020905b8160009054906101000a900473ffffffffffffffffffffffffffffffffffffffff1673ffffffffffffffffffffffffffffffffffffffff1681526020019060010190808311612de5575b50505050509050919050565b60008060008473ffffffffffffffffffffffffffffffffffffffff1673ffffffffffffffffffffffffffffffffffffffff168152602001908152602001600020600b0160008373ffffffffffffffffffffffffffffffffffffffff1673ffffffffffffffffffffffffffffffffffffffff16815260200190815260200160002060030154905092915050565b6000816000803373ffffffffffffffffffffffffffffffffffffffff1673ffffffffffffffffffffffffffffffffffffffff16815260200190815260200160002060000160010160006101000a81548173ffffffffffffffffffffffffffffffffffffffff021916908373ffffffffffffffffffffffffffffffffffffffff160217905550336000803373ffffffffffffffffffffffffffffffffffffffff1673ffffffffffffffffffffffffffffffffffffffff16815260200190815260200160002060000160000160016101000a81548173ffffffffffffffffffffffffffffffffffffffff021916908373ffffffffffffffffffffffffffffffffffffffff16021790555060018060003373ffffffffffffffffffffffffffffffffffffffff1673ffffffffffffffffffffffffffffffffffffffff16815260200190815260200160002060006101000a81548160ff021916908315150217905550600260008373ffffffffffffffffffffffffffffffffffffffff1673ffffffffffffffffffffffffffffffffffffffff1681526020019081526020016000203390806001815401808255809150509060018203906000526020600020016000909192909190916101000a81548173ffffffffffffffffffffffffffffffffffffffff021916908373ffffffffffffffffffffffffffffffffffffffff1602179055505060019050919050565b60606000808373ffffffffffffffffffffffffffffffffffffffff1673ffffffffffffffffffffffffffffffffffffffff1681526020019081526020016000206004016000018054600181600116156101000203166002900480601f0160208091040260200160405190810160405280929190818152602001828054600181600116156101000203166002900480156131ac5780601f10613181576101008083540402835291602001916131ac565b820191906000526020600020905b81548152906001019060200180831161318f57829003601f168201915b50505050509050919050565b60016000808373ffffffffffffffffffffffffffffffffffffffff1673ffffffffffffffffffffffffffffffffffffffff168152602001908152602001600020600b0160008473ffffffffffffffffffffffffffffffffffffffff1673ffffffffffffffffffffffffffffffffffffffff16815260200190815260200160002060000160000160016101000a81548160ff0219169083151502179055506000808273ffffffffffffffffffffffffffffffffffffffff1673ffffffffffffffffffffffffffffffffffffffff168152602001908152602001600020600b0160008373ffffffffffffffffffffffffffffffffffffffff1673ffffffffffffffffffffffffffffffffffffffff16815260200190815260200160002060000160000160009054906101000a900460ff16801561338157506000808273ffffffffffffffffffffffffffffffffffffffff1673ffffffffffffffffffffffffffffffffffffffff168152602001908152602001600020600b0160008373ffffffffffffffffffffffffffffffffffffffff1673ffffffffffffffffffffffffffffffffffffffff16815260200190815260200160002060000160000160019054906101000a900460ff165b1561352c576000808273ffffffffffffffffffffffffffffffffffffffff1673ffffffffffffffffffffffffffffffffffffffff168152602001908152602001600020600b0160008373ffffffffffffffffffffffffffffffffffffffff1673ffffffffffffffffffffffffffffffffffffffff1681526020019081526020016000206002016000808373ffffffffffffffffffffffffffffffffffffffff1673ffffffffffffffffffffffffffffffffffffffff168152602001908152602001600020600401600001908054600181600116156101000203166002900461346a929190614ab6565b506000808373ffffffffffffffffffffffffffffffffffffffff1673ffffffffffffffffffffffffffffffffffffffff168152602001908152602001600020600c0160016000808573ffffffffffffffffffffffffffffffffffffffff1673ffffffffffffffffffffffffffffffffffffffff168152602001908152602001600020600c018054905003815481106134fe57fe5b9060005260206000200160006101000a81549073ffffffffffffffffffffffffffffffffffffffff02191690555b5050565b60606000808373ffffffffffffffffffffffffffffffffffffffff1673ffffffffffffffffffffffffffffffffffffffff1681526020019081526020016000206012018054806020026020016040519081016040528092919081815260200182805480156135f357602002820191906000526020600020905b8160009054906101000a900473ffffffffffffffffffffffffffffffffffffffff1673ffffffffffffffffffffffffffffffffffffffff16815260200190600101908083116135a9575b50505050509050919050565b60606000808373ffffffffffffffffffffffffffffffffffffffff1673ffffffffffffffffffffffffffffffffffffffff168152602001908152602001600020600d018054806020026020016040519081016040528092919081815260200182805480156136c257602002820191906000526020600020905b8160009054906101000a900473ffffffffffffffffffffffffffffffffffffffff1673ffffffffffffffffffffffffffffffffffffffff1681526020019060010190808311613678575b50505050509050919050565b60606000808473ffffffffffffffffffffffffffffffffffffffff1673ffffffffffffffffffffffffffffffffffffffff168152602001908152602001600020600b0160008373ffffffffffffffffffffffffffffffffffffffff1673ffffffffffffffffffffffffffffffffffffffff1681526020019081526020016000206002018054600181600116156101000203166002900480601f0160208091040260200160405190810160405280929190818152602001828054600181600116156101000203166002900480156137e55780601f106137ba576101008083540402835291602001916137e5565b820191906000526020600020905b8154815290600101906020018083116137c857829003601f168201915b5050505050905092915050565b806000803373ffffffffffffffffffffffffffffffffffffffff1673ffffffffffffffffffffffffffffffffffffffff16815260200190815260200160002060000160000160016101000a81548173ffffffffffffffffffffffffffffffffffffffff021916908373ffffffffffffffffffffffffffffffffffffffff160217905550336000803373ffffffffffffffffffffffffffffffffffffffff1673ffffffffffffffffffffffffffffffffffffffff16815260200190815260200160002060000160010160006101000a81548173ffffffffffffffffffffffffffffffffffffffff021916908373ffffffffffffffffffffffffffffffffffffffff16021790555060018060003373ffffffffffffffffffffffffffffffffffffffff1673ffffffffffffffffffffffffffffffffffffffff16815260200190815260200160002060006101000a81548160ff021916908315150217905550600260003373ffffffffffffffffffffffffffffffffffffffff1673ffffffffffffffffffffffffffffffffffffffff1681526020019081526020016000208190806001815401808255809150509060018203906000526020600020016000909192909190916101000a81548173ffffffffffffffffffffffffffffffffffffffff021916908373ffffffffffffffffffffffffffffffffffffffff1602179055505050565b816000808573ffffffffffffffffffffffffffffffffffffffff1673ffffffffffffffffffffffffffffffffffffffff16815260200190815260200160002060040160010160006101000a81548160ff021916908360ff160217905550806000808573ffffffffffffffffffffffffffffffffffffffff1673ffffffffffffffffffffffffffffffffffffffff1681526020019081526020016000206004016002019080519060200190613aaa929190614a36565b50505050565b60606000808373ffffffffffffffffffffffffffffffffffffffff1673ffffffffffffffffffffffffffffffffffffffff168152602001908152602001600020600001600301805480602002602001604051908101604052809291908181526020018280548015613b7657602002820191906000526020600020905b8160009054906101000a900473ffffffffffffffffffffffffffffffffffffffff1673ffffffffffffffffffffffffffffffffffffffff1681526020019060010190808311613b2c575b50505050509050919050565b60606000808373ffffffffffffffffffffffffffffffffffffffff1673ffffffffffffffffffffffffffffffffffffffff168152602001908152602001600020601101805480602002602001604051908101604052809291908181526020018280548015613c4557602002820191906000526020600020905b8160009054906101000a900473ffffffffffffffffffffffffffffffffffffffff1673ffffffffffffffffffffffffffffffffffffffff1681526020019060010190808311613bfb575b50505050509050919050565b600360009054906101000a900473ffffffffffffffffffffffffffffffffffffffff1681565b6040518060400160405280600981526020017f48484848484841414800000000000000000000000000000000000000000000008152506000803373ffffffffffffffffffffffffffffffffffffffff1673ffffffffffffffffffffffffffffffffffffffff1681526020019081526020016000206004016000019080519060200190613d04929190614a36565b50565b846000808573ffffffffffffffffffffffffffffffffffffffff1673ffffffffffffffffffffffffffffffffffffffff1681526020019081526020016000206007016000019080519060200190613d5f929190614a36565b50836000808573ffffffffffffffffffffffffffffffffffffffff1673ffffffffffffffffffffffffffffffffffffffff1681526020019081526020016000206007016001019080519060200190613db8929190614a36565b50816000808573ffffffffffffffffffffffffffffffffffffffff1673ffffffffffffffffffffffffffffffffffffffff1681526020019081526020016000206007016003019080519060200190613e11929190614a36565b50806000808573ffffffffffffffffffffffffffffffffffffffff1673ffffffffffffffffffffffffffffffffffffffff1681526020019081526020016000206007016002019080519060200190613e6a929190614a36565b505050505050565b816000808573ffffffffffffffffffffffffffffffffffffffff1673ffffffffffffffffffffffffffffffffffffffff168152602001908152602001600020600f0160003373ffffffffffffffffffffffffffffffffffffffff1673ffffffffffffffffffffffffffffffffffffffff16815260200190815260200160002060020160006101000a81548160ff0219169083151502179055508060ff166000808573ffffffffffffffffffffffffffffffffffffffff1673ffffffffffffffffffffffffffffffffffffffff168152602001908152602001600020600f0160003373ffffffffffffffffffffffffffffffffffffffff1673ffffffffffffffffffffffffffffffffffffffff168152602001908152602001600020600101819055506000808473ffffffffffffffffffffffffffffffffffffffff1673ffffffffffffffffffffffffffffffffffffffff1681526020019081526020016000206010013390806001815401808255809150509060018203906000526020600020016000909192909190916101000a81548173ffffffffffffffffffffffffffffffffffffffff021916908373ffffffffffffffffffffffffffffffffffffffff16021790555050505050565b6060600260008373ffffffffffffffffffffffffffffffffffffffff1673ffffffffffffffffffffffffffffffffffffffff1681526020019081526020016000208054806020026020016040519081016040528092919081815260200182805480156140ff57602002820191906000526020600020905b8160009054906101000a900473ffffffffffffffffffffffffffffffffffffffff1673ffffffffffffffffffffffffffffffffffffffff16815260200190600101908083116140b5575b50505050509050919050565b60606000808373ffffffffffffffffffffffffffffffffffffffff1673ffffffffffffffffffffffffffffffffffffffff168152602001908152602001600020600c018054806020026020016040519081016040528092919081815260200182805480156141ce57602002820191906000526020600020905b8160009054906101000a900473ffffffffffffffffffffffffffffffffffffffff1673ffffffffffffffffffffffffffffffffffffffff1681526020019060010190808311614184575b50505050509050919050565b600060606000808473ffffffffffffffffffffffffffffffffffffffff1673ffffffffffffffffffffffffffffffffffffffff1681526020019081526020016000206000016003018054806020026020016040519081016040528092919081815260200182805480156142a257602002820191906000526020600020905b8160009054906101000a900473ffffffffffffffffffffffffffffffffffffffff1673ffffffffffffffffffffffffffffffffffffffff1681526020019060010190808311614258575b50505050509050600080905060008090505b8251811015614316578281815181106142c957fe5b602002602001015173ffffffffffffffffffffffffffffffffffffffff163373ffffffffffffffffffffffffffffffffffffffff16141561430957600191505b80806001019150506142b4565b508092505050919050565b60606000808373ffffffffffffffffffffffffffffffffffffffff1673ffffffffffffffffffffffffffffffffffffffff1681526020019081526020016000206010018054806020026020016040519081016040528092919081815260200182805480156143e457602002820191906000526020600020905b8160009054906101000a900473ffffffffffffffffffffffffffffffffffffffff1673ffffffffffffffffffffffffffffffffffffffff168152602001906001019080831161439a575b50505050509050919050565b60008060008473ffffffffffffffffffffffffffffffffffffffff1673ffffffffffffffffffffffffffffffffffffffff168152602001908152602001600020600e0160008373ffffffffffffffffffffffffffffffffffffffff1673ffffffffffffffffffffffffffffffffffffffff16815260200190815260200160002060020154905092915050565b60016000808373ffffffffffffffffffffffffffffffffffffffff1673ffffffffffffffffffffffffffffffffffffffff168152602001908152602001600020600e0160008473ffffffffffffffffffffffffffffffffffffffff1673ffffffffffffffffffffffffffffffffffffffff16815260200190815260200160002060000160006101000a81548160ff0219169083151502179055506000808273ffffffffffffffffffffffffffffffffffffffff1673ffffffffffffffffffffffffffffffffffffffff168152602001908152602001600020600e0160008373ffffffffffffffffffffffffffffffffffffffff1673ffffffffffffffffffffffffffffffffffffffff16815260200190815260200160002060000160019054906101000a900460ff16801561463c57506000808273ffffffffffffffffffffffffffffffffffffffff1673ffffffffffffffffffffffffffffffffffffffff168152602001908152602001600020600e0160008373ffffffffffffffffffffffffffffffffffffffff1673ffffffffffffffffffffffffffffffffffffffff16815260200190815260200160002060000160009054906101000a900460ff165b15614766576000808273ffffffffffffffffffffffffffffffffffffffff1673ffffffffffffffffffffffffffffffffffffffff168152602001908152602001600020600e0160008373ffffffffffffffffffffffffffffffffffffffff1673ffffffffffffffffffffffffffffffffffffffff16815260200190815260200160002060000160029054906101000a900473ffffffffffffffffffffffffffffffffffffffff166000808373ffffffffffffffffffffffffffffffffffffffff1673ffffffffffffffffffffffffffffffffffffffff16815260200190815260200160002060000160010160006101000a81548173ffffffffffffffffffffffffffffffffffffffff021916908373ffffffffffffffffffffffffffffffffffffffff1602179055505b5050565b6000806000808473ffffffffffffffffffffffffffffffffffffffff1673ffffffffffffffffffffffffffffffffffffffff16815260200190815260200160002060000160000160019054906101000a900473ffffffffffffffffffffffffffffffffffffffff166000808573ffffffffffffffffffffffffffffffffffffffff1673ffffffffffffffffffffffffffffffffffffffff16815260200190815260200160002060000160010160009054906101000a900473ffffffffffffffffffffffffffffffffffffffff1691509150915091565b6000808373ffffffffffffffffffffffffffffffffffffffff1673ffffffffffffffffffffffffffffffffffffffff1681526020019081526020016000206000016003018190806001815401808255809150509060018203906000526020600020016000909192909190916101000a81548173ffffffffffffffffffffffffffffffffffffffff021916908373ffffffffffffffffffffffffffffffffffffffff160217905550506000808273ffffffffffffffffffffffffffffffffffffffff1673ffffffffffffffffffffffffffffffffffffffff1681526020019081526020016000206011018290806001815401808255809150509060018203906000526020600020016000909192909190916101000a81548173ffffffffffffffffffffffffffffffffffffffff021916908373ffffffffffffffffffffffffffffffffffffffff160217905550506000808273ffffffffffffffffffffffffffffffffffffffff1673ffffffffffffffffffffffffffffffffffffffff1681526020019081526020016000206012018190806001815401808255809150509060018203906000526020600020016000909192909190916101000a81548173ffffffffffffffffffffffffffffffffffffffff021916908373ffffffffffffffffffffffffffffffffffffffff160217905550505050565b828054600181600116156101000203166002900490600052602060002090601f016020900481019282601f10614a7757805160ff1916838001178555614aa5565b82800160010185558215614aa5579182015b82811115614aa4578251825591602001919060010190614a89565b5b509050614ab29190614b3d565b5090565b828054600181600116156101000203166002900490600052602060002090601f016020900481019282601f10614aef5780548555614b2c565b82800160010185558215614b2c57600052602060002091601f016020900482015b82811115614b2b578254825591600101919060010190614b10565b5b509050614b399190614b3d565b5090565b614b5f91905b80821115614b5b576000816000905550600101614b43565b5090565b9056fea265627a7a723158206012c1694c06c08da18d31397f19bdda3fde66de3e054966d2b0e193ed910ec164736f6c63430005110032",
  "source": "pragma solidity ^0.5.0;\ncontract SimpleStorage {\n    \n  struct Documents  {\n    string  aadhar;\n    uint8 aadharno;\n    string aadharnoHash;\n  }\n\n  struct PersonalInfo {\n    string name;\n    string propic;\n    string email;\n    string phone;    \n  }\n\n  struct Owners{\n    uint8 max;\n    address stud;\n    address inst;\n    mapping(address=>PartialOwner) partialowner;\n    address[] listofpartialowner;\n  }\n\n  struct Request {\n    bool stud;\n    bool inst;\n    bool aadhar;\n  } \n\n  struct ApprovalRequest{\n    bool stud;\n    bool inst;\n  }\n\n  struct ChangeOwnerShip{\n    bool stud;\n    bool inst;\n    address studa;\n    address insta;\n    ApprovalRequest approve;\n  }\n\n  struct ChangeOwnerShipInst{      \n    bool inst ;\n    bool stud;\n    address neinst;\n    address nestud;\n    uint timestamp;\n  }\n\n  struct Upload {\n    ApprovalRequest approve;\n    bool aadhar;\n    string aadharhash;\n    uint timestamp;\n  }\n\n  struct PartialOwner {      \n    bool aadhar;\n    uint day;\n    uint expiry;\n  }\n\n  struct PartialOwnerRequest {\n    ApprovalRequest approve;\n    uint256 day;\n    bool aadhar;\n  }\n\n  struct MultiSig {     \n    Owners owners;\n    Documents doc;\n    PersonalInfo profile;\n    mapping(address=>Upload) uploadreq;\n    address[] listofuploadreq;\n    address[] listofchangeowneri;\n    mapping(address=>ChangeOwnerShipInst) changeowneri;\n    mapping(address=>PartialOwnerRequest) partialowner;\n    address[] listofpartialowner;\n    address [] ihaveaccess;\n    address[] PastOwners;\n  }\n  \n  mapping(address=>MultiSig) wallets;\n  mapping(address=>bool) listofwall;\n  mapping (address=>address[] )  iminwall;\n  address public j;\n\n  function createNewMultiSigUser(address a) public returns (bool) {\n    wallets[msg.sender].owners.inst=a;\n    wallets[msg.sender].owners.stud=msg.sender;\n    listofwall[msg.sender]=true;\n    iminwall[a].push(msg.sender);\n    return true;\n  }\n\n  constructor ()public {\n      \n  }\n\n  function createNewMultiSigInst(address a) public {\n    wallets[msg.sender].owners.stud=a;\n    wallets[msg.sender].owners.inst=msg.sender;\n    listofwall[msg.sender]=true;\n    iminwall[msg.sender].push(a);    \n  }\n\n  function doesWalletExists(address a)public view returns (bool){\n    if(listofwall[a]==true) \n    return true;\n    else return false;\n  }\n\n  function createUploadRequestbyUser(bool ad,string memory hash)public {      \n    wallets[msg.sender].uploadreq[msg.sender].approve.stud=true;\n    wallets[msg.sender].uploadreq[msg.sender].approve.inst=false;\n    wallets[msg.sender].uploadreq[msg.sender].aadhar=ad;\n    wallets[msg.sender].uploadreq[msg.sender].aadharhash=hash;\n    wallets[msg.sender].listofuploadreq.push(msg.sender);\n    wallets[msg.sender].uploadreq[msg.sender].timestamp=now;\n  }\n\n  function createUploadRequestbyInstitute(address a,bool ad,string memory hash)public{\n    wallets[a].uploadreq[a].approve.inst=true;\n    wallets[a].uploadreq[a].approve.stud=false;\n    wallets[a].uploadreq[a].aadhar=ad;\n    wallets[a].uploadreq[a].timestamp=now;\n    wallets[a].uploadreq[a].aadharhash=hash;\n    wallets[a].listofuploadreq.push(msg.sender);\n    wallets[a].doc.aadhar=hash;\n  }\n\n  function getUploadReqList(address ad)public view returns (address[] memory){\n    return wallets[ad].listofuploadreq;\n  }\n\n  function approveUploadbyUser(address ad) public{\n    wallets[msg.sender].uploadreq[ad].approve.stud=true;\n    if(wallets[msg.sender].uploadreq[ad].approve.stud&&wallets[msg.sender].uploadreq[ad].approve.inst)\n    {\n    wallets[msg.sender].doc.aadhar=wallets[msg.sender].uploadreq[ad].aadharhash;\n    delete wallets[msg.sender].listofuploadreq[wallets[msg.sender].listofuploadreq.length-1];\n  }\n  }\n\n\n  function approveUploadbyInstitute(address ad ,address student)public{\n      \n  wallets[student].uploadreq[ad].approve.inst=true;\n  if(wallets[student].uploadreq[ad].approve.stud&&wallets[student].uploadreq[ad].approve.inst)\n  {\n  wallets[student].doc.aadhar=wallets[student].uploadreq[ad].aadharhash;\n\n  delete wallets[ad].listofuploadreq[wallets[ad].listofuploadreq.length-1];\n\n  }\n\n\n  }\n\n\n  function getAadhar (address stud )public view returns(string memory ){\n  return wallets[stud].doc.aadhar;\n\n      \n  }\n\n\n  function getOwners(address a)public view returns(address ,address){\n      return (wallets[a].owners.stud,wallets[a].owners.inst);\n\n  }\n\n  function getInstitutesWallet(address ad) public view returns(address[] memory){\n    \n      return iminwall[ad];\n    \n  }\n\n  function getInstitutesUploadList(address ad) public view returns(address[] memory){\n  return wallets[ad].listofuploadreq;\n  }\n\n\n\n\n  function changeOwnerInstfromInst(address stud,address Inst)  public {\n      \n  wallets[stud].changeowneri[msg.sender].inst=true;\n  wallets[stud].changeowneri[msg.sender].neinst=Inst;\n  wallets[stud].listofchangeowneri.push(msg.sender);\n  wallets[stud].changeowneri[msg.sender].timestamp=now;\n  wallets[stud].changeowneri[msg.sender].stud=true;\n  wallets[stud].owners.inst=wallets[stud].changeowneri[msg.sender].neinst;\n  }\n  \n  \n  \n  function changeOwnerInstfromStud(address Inst)  public {\n      \n  wallets[msg.sender].changeowneri[msg.sender].stud=true;\n  wallets[msg.sender].changeowneri[msg.sender].neinst=Inst;\n  wallets[msg.sender].listofchangeowneri.push(msg.sender);\n\n  wallets[msg.sender].changeowneri[msg.sender].timestamp=now;\n\n\n  }\n  \n\n\n\n\n\n\n\n\n\n\n\n\n\n\n  function getChangeOwnerList(address a)public view returns(address[] memory)\n  {\n      return wallets[a].listofchangeowneri;\n      \n      \n  }\n\n\n\n\n  function updateProf (string memory name,string memory pro,address  my,string memory no,string memory email) public\n  {\n      \n  wallets[my].profile.name=name;\n  wallets[my].profile.propic=pro;\n  wallets[my].profile.phone=no;\n  wallets[my].profile.email=email;\n\n\n  }\n\n\n\n  function getProfile(address  a) public view returns (string memory,string memory){\n    \n  return (wallets[a].profile.name,wallets[a].profile.propic);\n      \n      \n  }\n\n\n  function approveChangeOwnerINSTReqbyStud(address ad)public{\n  wallets[msg.sender].changeowneri[ad].stud=true;\n  if(wallets[msg.sender].changeowneri[ad].stud&&wallets[msg.sender].changeowneri[ad].inst)\n  {\n  wallets[msg.sender].owners.inst=wallets[msg.sender].changeowneri[ad].neinst;\n\n  }\n      \n  }\n\n\n\n  function approveChangeOwnerINSTReqbyInst(address ad,address io)public{\n  wallets[io].changeowneri[ad].inst=true;\n  if(wallets[io].changeowneri[ad].stud&&wallets[io].changeowneri[ad].inst)\n  {\n  wallets[io].owners.inst=wallets[io].changeowneri[ad].neinst;\n\n  }\n      \n  }\n\n\n\n\n\n\n  function createNewPartialOwnerRequest(address a,bool adhar,uint8 d)public\n  {\n      \n      \n      \n      wallets[a].partialowner[msg.sender].aadhar=adhar;\n      wallets[a].partialowner[msg.sender].day=d;\n      wallets[a].listofpartialowner.push(msg.sender);\n      \n      \n      \n      \n  }\n\n  function getPartialOwnerShipList(address a) public view returns (address [] memory){\n      \n      \n      return wallets[a].listofpartialowner;\n\n  }\n\n\n\n\n\n  // function approvePartialOwnerReqfromStudent (address reqq) public {\n    \n  // wallets[msg.sender].partialowner[reqq].approve.stud=true;\n      \n  // if( wallets[msg.sender].partialowner[reqq].approve.stud==true&& wallets[msg.sender].partialowner[reqq].approve.inst==true)\n  //     {\n  //         wallets[msg.sender].owners.partialowner[msg.sender].aadhar=wallets[msg.sender].partialowner[reqq].aadhar;\n          \n  //         wallets[msg.sender].owners.partialowner[msg.sender].expiry=now+ wallets[msg.sender].owners.partialowner[msg.sender].day * 1 minutes;\n  //         wallets[msg.sender].owners.listofpartialowner.push(reqq);\n\n  //     }\n      \n      \n  // }\n\n\n  // function approvePartialOwnerReqfromInst (address stud ,address reqq) public {\n      \n      \n        \n      \n  //     wallets[stud].partialowner[reqq].approve.inst=true;\n      \n  //       wallets[stud].partialowner[reqq].approve.stud=true;\n\n\n\n  //          if( wallets[stud].partialowner[reqq].approve.stud==true&& wallets[stud].partialowner[reqq].approve.inst==true)\n  //       {\n\n  //     wallets[stud].owners.partialowner[reqq].aadhar=wallets[stud].partialowner[reqq].aadhar;\n    \n  //   uint yuyu= wallets[stud].owners.partialowner[reqq].day ;\n    \n  //     wallets[stud].owners.partialowner[reqq].expiry=now+ yuyu *1 minutes;\n  //     wallets[stud].owners.listofpartialowner.push(reqq);\n\n  //           }\n          \n          \n          \n\n  // }\n\n\n\n  // function getAadharfromPartialOwner(address  a) public view returns (string memory){\n      \n  // address [] memory va=wallets[a].owners.listofpartialowner;\n  // bool flag =false;\n  // for(uint i=0;i<va.length;i++){\n  // if(msg.sender==va[i])\n  // {\n  //  flag=true;\n  \n  \n      \n  // }\n      \n  // }\n\n\n\n\n  // if(flag==true){\n      \n      \n      \n  //     if(wallets[a].owners.partialowner[msg.sender].aadhar==true){\n          \n          \n  //         if(wallets[a].owners.partialowner[msg.sender].day<now)\n  //          {\n              \n  //              return wallets[a].doc.aadhar;\n              \n  //           }\n  //          else {\n  //              return \"Date Expired\";\n  //          }\n          \n  //     }else {\n          \n  //         return \"error\";\n  //     }\n          \n  //     }else {\n  //         return  \"a\";\n  //     }\n      \n  // }\n\n\n\n  function isIamPartialOwner (address a)public  view returns (bool){\n      address [] memory va=wallets[a].owners.listofpartialowner;\n  bool flag =false;\n  for(uint i=0;i<va.length;i++){\n  if(msg.sender==va[i])\n  {\n  flag=true;\n  \n  \n      \n  }\n      \n  }\n\n  return flag;\n      \n      \n  }\n\n\n  function getPartialOwnerSList(address a) public view returns (address[] memory) {\n      return wallets[a].owners.listofpartialowner;\n      \n  }\n\n  function set() public {\n      \n      \n  wallets[msg.sender].doc.aadhar=\"HHHHHHAAH\";\n\n      \n  }\n\n\n\n\n\n\n\n\n  function getPartialOwnerShipINFO(address stud ,address paro)public view returns (bool ,uint ) {\n    //it returns the expiry date and whether the It Has Request to aadhar or NOt  \n  return (wallets[stud].owners.partialowner[paro].aadhar, wallets[stud].owners.partialowner[paro].expiry);    \n      \n      \n  }\n\n\n\n  function getUploadRequestTIMESTAMP(address stud,address reqq) public view returns(uint){\n      \n  return wallets[stud].uploadreq[reqq].timestamp;\n\n\n      \n  }\n\n\n  function getChangeOwnerRequestTIMESTAMP(address stud,address reqq) public view returns(uint){\n      \n  return wallets[stud].changeowneri[reqq].timestamp;\n\n      \n  }\n\n\n\n\n\n  function setAaadharNo (address a,uint8 qw,string memory io) public  {\n  wallets[a].doc.aadharno=qw;\n  wallets[a].doc.aadharnoHash=io;\n\n      \n      \n  }\n\n\n\n  function createNEwAccess (address stud ,address ad) public {\n\n\n  wallets[stud].owners.listofpartialowner.push(ad);\n\n  wallets[ad].ihaveaccess.push(stud);\n\n\n  wallets[ad].PastOwners.push(ad);\n\n\n  }\n\n\n\n\n\n  function getIhaveaAccess(address  a)public view returns (address[] memory){\n      \n      \n      \n  return wallets[a].ihaveaccess;\n\n    \n  }\n\n\n\n  function getUplaodReqPic(address stud,address inst) public view returns (string memory)\n  {\n      \n      \n      return wallets[stud].uploadreq[inst].aadharhash;\n\n      \n      }\n\n\n  function getPastOwner(address a)public view\n  returns  (address[] memory)\n  {\n      \n      \n      return wallets[a].PastOwners;\n      \n      \n      \n  }\n\n\n\n}\n",
  "sourcePath": "/home/shubhankargupta/Documents/BCTIdentity/src/contracts/SimpleStorage.sol",
  "compiler": {
    "name": "solc",
    "version": "0.5.17+commit.d19bba13.Emscripten.clang"
  },
  "schemaVersion": "3.4.4",
  "updatedAt": "2021-12-29T09:57:04.374Z",
  "networkType": "ethereum",
  "devdoc": {
    "methods": {}
  },
  "userdoc": {
    "methods": {}
  }
}